:020000040800F2
:10000000E00E0424710300082D700008B962000896
:10001000AB63000819110008BFBB00080000000016
:10002000000000000000000000000000AD02000819
:100030008B110008000000000903000889780008FF
:100040008B0300088B0300088B0300088B03000858
:100050008B0300088B0300088B0300088B03000848
:100060008B0300088B0300088B0300088B03000838
:100070008B0300088B0300088B0300088B03000828
:100080008B0300088B0300088B0300088B03000818
:100090008B0300088B0300088B0300088B03000808
:1000A0008B0300088B0300088B0300088B030008F8
:1000B0005579000865790008757900088B030008F8
:1000C0008B0300088B0300088B0300088B030008D8
:1000D0008B03000875870008A5870008D5870008EE
:1000E0008D1100088B030008000000008B0300083E
:1000F0008B0300088B0300088B0300088B030008A8
:100100008B0300088B030008857900088B03000827
:10011000717A00088B030008957900088B030008AA
:100120008B0300088B0300088B0300088B03000877
:100130008B0300088B0300088B0300088B03000867
:1001400000000000000000000000000000000000AF
:100150008B0300088B0300088B0300088B03000847
:100160008B0300088B0300088B0300088B03000837
:100170008B0300088B0300088B03000800000000BD
:100180008B0300088B0300088B0300088B03000817
:100190008B0300088B0300088B0300088B03000807
:1001A0008B0300088B0300088B0300088B030008F7
:1001B0008B0300088B0300088B0300088B030008E7
:1001C0008B0300088B0300088B0300088B030008D7
:1001D0008B030008317000088B0300088B030008B4
:1001E0008B0300088B0300088B0300088B030008B7
:1001F0008B0300088B0300088B0300088B030008A7
:100200008B0300088B0300088B0300088B03000896
:100210008B0300088B0300088B0300088B03000886
:100220008B0300088B0300088B030008000000000C
:100230008B0300088B030008000000008B030008FC
:100240008B0300088B0300088B0300088B03000856
:100250008B0300088B0300088B0300088B03000846
:100260008B0300088B0300088B0300088B03000836
:100270008B0300088B0300088B03000800000000BC
:100280008B030008000000008B0300080000000042
:10029000000000008B030008DFF80CD000F00AFC1F
:1002A00000480047D1750108E00E04242D4B196861
:1002B0000868B0E8F04F80F30988BFF36F8F4FF004
:1002C000000080F3118870470000000008480068B3
:1002D000006880F308884FF0000080F3148862B64D
:1002E00061B6BFF34F8FBFF36F8F00DF00BF00BF5A
:1002F00008ED00E0DFF80C00016841F470010160D6
:10030000704700BF88ED00E0EFF30980BFF36F8F07
:10031000144B1A681EF0100F08BF20ED108A20E958
:10032000F04F106009B44FF0100072B680F31188DE
:10033000BFF34F8FBFF36F8F62B61AF07FFC4FF0A1
:10034000000080F3118809BC19680868B0E8F04F14
:100350001EF0100F08BFB0EC108A80F30988BFF3BD
:100360006F8F704780000024EFF305807047000016
:100370000648804706480047FEE7FEE7FEE7FEE73F
:10038000FEE7FEE7FEE7FEE7FEE7FEE7C1780008CE
:10039000990200082DE9F05F0546002092469B4631
:1003A00088460646814640241BE02846414647468B
:1003B000224600F0D5F853465A46C01A914110D350
:1003C00011461846224600F0BCF82D1A67EB0108CA
:1003D0004F4622460120002100F0B3F817EB000938
:1003E0004E41201EA4F10104DFDC484631462A4676
:1003F0004346BDE8F09F40EA01039B0703D009E0B4
:1004000008C9121F08C0042AFAD203E011F8013B00
:1004100000F8013B521EF9D27047D2B201E000F859
:10042000012B491EFBD270470022F6E710B5134698
:100430000A4604461946FFF7F0FF204610BD30B5C6
:1004400005462A460B4612F8010B13F8014B08B17A
:10045000A042F8D01CB1002802D06D1CF1E728465C
:1004600030BD10B5044604E00B7800F8013B03B141
:10047000491C521EF8D2204610BD421C10F8011B28
:100480000029FBD1801A704710B5002200E0521CF1
:10049000835C8C5CA34201D1002BF8D1D8B2E1B2CD
:1004A000401A10BD034611F8012B00F8012B002A59
:1004B000F9D118467047000070B50F4D00B9286893
:1004C000002412E00A4602E09E4203D0521C137838
:1004D000002BF9D1DAB2224305D02BB124B100218F
:1004E00000F8011B04E00446401C0678002EE9D108
:1004F0002860204670BD00004402002470B5064606
:100500000BF0A4FD046805460A220021304600F0E5
:1005100085F82C6070BD30B50B46014600202022C6
:10052000012409E021FA02F59D4205D303FA02F500
:10053000491B04FA02F52844151EA2F10102F1DC60
:1005400030BD202A04DB203A00FA02F10020704777
:100550009140C2F1200320FA03F319439040704701
:10056000202A04DB203A21FA02F00021704721FA08
:1005700002F3D040C2F1200291400843194670476F
:100580000FB4002300B589B00CA900910B996FF04E
:100590000042CB601E4B06931E4B07930423CDE90C
:1005A00001321D4A089202466B46002000F034FBDF
:1005B00009B05DF814FB70B586B006464FF0FF3009
:1005C0000091CDE90101002015460C460490324609
:1005D000694604A8FFF7D4FF02460498211825B104
:1005E00008B1084600E020462860049800280DD095
:1005F000002A02DD0098884208D0081B0094CDE94B
:1006000001043246694604A8FFF7BAFF06B070BD80
:10061000510E00086F0E0008050B00082DE9F04789
:1006200091460F4680460446002614F8015B2DB122
:1006300000F064FA0068405DC007F6D12B2D02D0AF
:100640002D2D18D0641E4A463946204600F020FC65
:1006500027B13968A14201D1C7F8008071054FF078
:1006600002040BD54042002803DD0BF0EFFC0460D0
:10067000A007BDE8F08746F48066E4E70028F8DAD2
:100680000BF0E4FC04606FF00040F2E72DE9FE4F50
:10069000804681EA0300C00F0C46009021F0004123
:1006A00023F00045B8EB0200A94105D2404621469F
:1006B00090461C460B46024623F00040104347D0AC
:1006C000270DC7F30A00C3F30A510290401A0190A4
:1006D00040286BDAC3F3130040F4801B0098924665
:1006E00020B10023D2EB030A63EB0B0B01985946B0
:1006F000C0F140025046FFF724FF06460D46504623
:100700005946019A00F0E8F910EB08006141002415
:1007100087EA115284EAE7731A4340D0009A62B321
:10072000019A012A4FEA075215DC001B61EB020116
:100730004FF0004202EA0752CDE90042001C41F5A9
:10074000801132462B4600F001FC03B0BDE8F08F6B
:1007500040462146F9E7001B61EB0201001C41F510
:10076000801300185B412018A2F5001747EB030126
:1007700040EAD570B6196D4111E06D084FEA3606B2
:1007800045EAC0754FEA0752001B61EB0201001CED
:1007900041F5801149084FEA3000001951413246B5
:1007A0002B4603B0BDE8F04F00F0C1BB009801221A
:1007B00040000023D0EB020263EBE0730098214677
:1007C0004FEAE074B8EB000061EB0401E9E783F065
:1007D00000435BE781F0004158E72DE9FE4F81EAD5
:1007E000030404F0004421F0004100944FF0000B9A
:1007F00023F0004350EA01045ED052EA03045BD0C8
:10080000C3F30A54C1F30A552C44A4F2F3340194FF
:10081000A0FB0254C1F3130141F48011C3F313038D
:1008200043F4801301FB024400FB034E840A970A41
:1008300044EA815447EA8357A4FB076802958D0A6E
:1008400005FB07854FEA932C04FB0C542705029DFA
:100850004FEA065847EA1637B5EB08056EEB070C6A
:10086000870E920E47EA811742EA8312A7FB020124
:10087000B6EB0B0164EB00042B0D43EA0C335E185E
:1008800044EB1C50DA465146E7FB0201C5F3130462
:100890004FEA0B3343EA14534FEA0432019C43EA14
:1008A0000603A4F10C040294009CCDE900B400F00E
:1008B0004DFB03B0BDE8F08F00200146F9E72DE9BC
:1008C000F04D81EA030404F0004B21F0004514468A
:1008D0004FF0000A23F0004150EA050220D054EA0C
:1008E00001021DD0C5F30A570246C5F31303C1F335
:1008F0001300C1F30A5640F4801543F48013A7EBAC
:100900000608101BD64608F2FD3873EB050002D32B
:1009100008F1010801E092185B41B8F1000F03DA19
:1009200000200146BDE8F08D00204FF480110646FE
:1009300084460EE0171B73EB050705D3121B63EB10
:10094000050306434CEA010C49084FEA30009218AF
:100950005B4150EA0107EDD152EA030012D082EA6E
:10096000040083EA0501084305D0101BAB4106D201
:100970000122002306E000224FF0004302E06FF066
:10098000010253101AEB06004CEB085110EB0A0061
:1009900041EB0B01BDE8F04D00F0C9BA70B521F094
:1009A000004303430CD0C1F30A550024D5EB0405E2
:1009B00064EB0403D617AD1AB34102DB00200146F5
:1009C00070BD201841EB025170BD00002DE9F041CF
:1009D000054621F000400C46284309D0C4F30A50D4
:1009E00040F23341884205DD28462146BDE8F081CA
:1009F0002846FBE740F2FE31884210DC0CDB4FEA70
:100A0000043040EA155050EA053105D0104804F092
:100A1000004101430020E9E700200146E6E7A0F29B
:100A200033404642C6F1400228462146FFF789FD81
:100A300007468846284621463246FFF791FD434641
:100A40003A4600F074FA3246BDE8F041FFF779BD4E
:100A50000000F03FC1F30A52C1F3130140F2FF332B
:100A600041F480119A4202DA00200146704740F2B8
:100A700033439A42A2F2334202DC5242FFF770BD86
:100A8000FFF75FBD30B5041E71F1000404DB4FF0C9
:100A90000044404264EB0101141E73F1000405DBC5
:100AA0001C464FF00043524263EB0403994208BFD7
:100AB000904230BD064C074D06E0E06840F001036F
:100AC00094E8070098471034AC42F6D3FFF7E8FBF0
:100AD0004469040864690408202A06DBCB17203A1D
:100AE00041FA02F043EAE07306E041FA02F3D04033
:100AF000C2F12002914008431946704700487047F0
:100B00003C69040810B50446FFF7F8FF0068005D73
:100B100000F0010010BD00002DE9FF4F087881B002
:100B20009946FF2805D0491C2D2804D00024002315
:100B300008E000230BE00124F9E703EB830300EB5B
:100B40004303491C0878FF28F7D104B15B42002019
:100B50000090147801462D2C01D02B2C04D1521C6E
:100B60002D2C12D00024009400251678FF2E0ED0D4
:100B70000A24A0FB04C801FB0481002700FB071125
:100B8000521C16EB0C006941EFE70124EBE7994496
:100B900050EA01020ED00024AA4D2646DFF8A882B2
:100BA00000F030FA82468B46B9F1000009DAC9F14B
:100BB00000071BE001980021C0E9001105B0BDE865
:100BC000F08F074612E0F80707D022462B46304642
:100BD0004146FFF702FE0646884622462B4610464F
:100BE0001946FFF7FAFD04460D467F10002FEAD1A3
:100BF000B9F1000F324643465046594602DAFFF734
:100C00005EFE01E0FFF7E9FD009A0AB181F00041C4
:100C1000019AC2E90001D1E72DE9FF4F1F468DB0CF
:100C2000D7E901464FF0FF382E2045464FF0000926
:100C30000B90B9696D1C0E988847396A82468847BF
:100C40000028F6D1BAF1FF3F0AD024F4D064002E78
:100C500011DDBAF12B0F08D0BAF12D0F0BD102E044
:100C6000404611B0ABE744F48064B9696D1C0E983E
:100C700088478246761E6946600501D52D2000E032
:100C80002B208DF8000001F1010B0DF1200809E087
:100C9000B9696D1C0E98884782460F9844F4007419
:100CA000761E0560002E02DDBAF1300FF0D00B99F0
:100CB0008A453ED144F0800406E00F99681CA9F1F2
:100CC000010944F400740860B9696D1C761E0E9821
:100CD000884782463028F0D02BE00B998A4505D111
:100CE000200603D444F08004761E18E050460CF031
:100CF0000DF908B30DF11301761E44F400748B4511
:100D000008D2AAF130000BF8010B200607D5A9F193
:100D1000010003E0200602D409F101008146A0058C
:100D200002D50F99681C0860B9696D1C0E98884738
:100D30008246002ED1DC53E0002E51DDBAF1650F62
:100D400002D0BAF1450F4BD1A00549D5B9696D1C48
:100D500024F44074761E0E9888478246002E0CDDDF
:100D60002B2804D0BAF12D0F07D144F48074B9694F
:100D70006D1C0E9888478246761EE00501D52D2110
:100D800000E02B2108F8011BCDF82C8021E00DF1AB
:100D90002901761E44F4007488450CD2AAF1300073
:100DA00010F0FF0088F8000002D10B99884509D99E
:100DB00008F1010806E0E00501D5244801E042F20F
:100DC0000F708146B9696D1C0E98884782460F984E
:100DD0000560002E04DD50460CF098F80028D6D1AE
:100DE000F9690E988847FF208BF8000088F800000A
:100DF0000020069007904B466A4608A906A8FFF710
:100E00008BFEA00502D46FF001002AE714F0240F36
:100E10000AD0E00714D1DDE906123868031D3B60F3
:100E20000068C0E900120BE0DDE9060100F0F6F809
:100E30000146E00704D13868021D3A60006801608D
:100E400028460EE7000024400000F03FF1D8FFFFE5
:100E5000426842B1016811F8013B23B1521EC0E95A
:100E60000012184670470121C160881E7047426811
:100E70005AB1C368016843B983688B4205D0491EE3
:100E8000521CC0E90012002070474FF0FF3070473D
:100E90002DE9F05F82460078002715468B460AF15F
:100EA0000104B946302801D09DB113E014F8010BBC
:100EB0000127782803D0582801D045B10AE00DB1A8
:100EC000102D07D10027102514F8010B02E008258A
:100ED00000E00A250026B0460EE005FB080005FBF1
:100EE00006F1012701EB10461FFA80F8B6F5803FA6
:100EF00000D3B94614F8010B294600F075F8002814
:100F0000EBDABBF1000F05D00FB1641E00E05446D0
:100F1000CBF80040B9F1000F06D00BF097F8022192
:100F20000160C81EBDE8F09F48EA0640FAE710B528
:100F3000141E73F1000408DA401C41F100019218FC
:100F40005B411A4301D120F0010010BD2DE9F04DA5
:100F500092469B4611B1B1FA81F202E0B0FA80F2FA
:100F600020329046FFF7EDFA04460F4640EA0A00A9
:100F700041EA0B0153465A46084313D0114653EA3F
:100F8000010019D0C8F140025046FFF7E9FA0546C2
:100F90000E46504659464246FFF7D3FA084305D05D
:100FA000012004E020463946BDE8F08D00200543CD
:100FB00046EAE0762C4337430A986305E40AA0EB3F
:100FC00008000022FD0A44EA47540A3002D50020F6
:100FD0000146E9E7010510196941DDE908450019F5
:100FE0006941BDE8F04DA2E73A2800D2303820F040
:100FF0002002412A01D3A2F13700884201D34FF0E9
:10100000FF3070470EB540F2334202920022CDE924
:1010100000221346FFF79AFF03B000BD01F0004322
:1010200030B421F0004150EA010206D00A0DA2F5C9
:101030006072C1F31301002A02DC30BC002070474B
:10104000440F44EAC104C100E01830BC00EBC250B8
:10105000AFF300800029A8BF7047401C490008BFBB
:1010600020F00100704710B4B0FA80FC00FA0CF0D8
:1010700050EA010404BF10BC704749B1CCF1200410
:1010800021FA04F411FA0CF118BF0121214308439D
:10109000A3EB0C01CB1D4FEA00614FEA102042BFC9
:1010A000002010BC704700EBC35010440029A4BFBF
:1010B00010BC7047401C490008BF20F0010010BC64
:1010C000704770B58C1810F8015B15F0070301D15B
:1010D00010F8013B2A1106D110F8012B03E010F89B
:1010E000016B01F8016B5B1EF9D12B0705D40023BE
:1010F000521E0DD401F8013BFAE710F8013BCB1A60
:10110000921C03E013F8015B01F8015B521EF9D554
:10111000A142D8D3002070BD00BFFEE710B506F095
:10112000A7FA06F057FA0348006840F004000149A6
:10113000086010BD9CEF00E00146002205E000239E
:1011400001F51F7040F82230521C0F2AF7D30022FD
:1011500004E0002301F11C008354521CB2F5007F0F
:10116000F7D3002008704870012088700020C1F873
:10117000B80201230B7640238B7100234B7681F854
:101180001C32012381F81D327047704710B54FF4AF
:10119000804000F03BFE10BD30B5034614460022EF
:1011A000DA680022D1E9000540EA05200D8940EA0D
:1011B00005400D7B40EA05600243DA60002030BD47
:1011C00030B50346144600229A680022D1E9000592
:1011D00040EA05200D8940EA05400D7B40EA0560A4
:1011E00002439A60002030BD10B502460023136808
:1011F00009480340D1E901042043CC6820430C692D
:1012000020434C6940EA44208C6940EA443003435F
:101210001360002010BD00008901F0FF30B50246C8
:10122000002300240868012816D013686FF30E030A
:10123000D1E901052843CD6828430D6928434D694C
:1012400028438D692843CD6928430D6A28434D6A98
:1012500028430343136019E0136823F4F843D1E9EA
:10126000070528434D6A2843034354686FF30E046F
:10127000D1E901052843CD6828430D6928434D690C
:1012800028438D692843044313605460002030BD17
:101290000246506940EA410050610020704718B58D
:1012A000034600200090D1E9000420438C68641EAE
:1012B00040EA4410CC6840EA44200090009818614D
:1012C000002018BD70B50346154600220024012DEC
:1012D0001FD09A6802F070420868401E4E68761E61
:1012E00040EA06168868401E46EA0026C868401E86
:1012F00046EA0036088A401E46EA0046888A401EB2
:1013000046EA0056087E401E46EA006002439A60A4
:1013100022E09A6811480240C868401E0603888A85
:10132000401E46EA00500243DC6804F0704408683E
:10133000401E4E68761E40EA06168868401E46EA41
:101340000026088A401E46EA0046087E401E46EAFD
:10135000006004439A60DC60002070BDFF0F0FFF47
:1013600038B504464FF0AA3000900949897901FB4D
:1013700004F004236A46002105F038FE0449897907
:101380006143481C04236A46002105F02FFE38BD46
:10139000A81600242DE9FC4704460D4600275DE011
:1013A0004FF0000820E001A830490090B1F8029009
:1013B0004FEAE97109EB91718B102C49897901FB96
:1013C00004F02A46002105F045FC28494888C11749
:1013D00000EB9171BDF80420B2EBA10F00D007E043
:1013E00008F101001FFA80F8204880794045DADCD6
:1013F00000BF1E488079404502D10020BDE8FC872F
:10140000204605F0C3F9064626B1394618A00AF071
:10141000C5FD21E0681CF8B10020019016E01349D9
:10142000B1F802904FEAE97109EB91718B100F4905
:101430008979BDF8042004FB01200022114605F043
:10144000A3FDBDF80400401C80B2019007488079DC
:10145000BDF804108842E2DC781C87B2032F9FDBC2
:10146000214609A00AF09AFD0120C7E7A81600242A
:101470006572726F7220657261736520626C6F6352
:101480006B3A25640D0A000062616420626C6F6330
:101490006B20636865636B65643A25640D0A000020
:1014A00038B50446002000900F49897901FB04F00B
:1014B00001236A46002105F015FC9DF80000FF2875
:1014C00010D1094989796143481C01236A460021EA
:1014D00005F008FC9DF80000FF2801D1002038BD70
:1014E0000120FCE70220FAE7A81600242DE9FE4FB0
:1014F00081460F4692461D460024002002908046F9
:10150000019000263B488079B9FBF0F83948807992
:10151000B9FBF0F100FB1190019000BF404600F0D4
:10152000E1F8064633484089B04202D20120BDE8C6
:10153000FE8F00243AE00198844221D305B32D4860
:101540004088C01BA84205D22A484088C01B1FFA09
:1015500080FB01E01FFA85FB264ACDF800B09279A6
:1015600006FB0241234A927908FB024053463A4661
:1015700004F01EFF02900027DA44A5EB0B050AE0F9
:101580001C4A927906FB02411A4A927908FB0240F2
:1015900005F012F80290029830B13046FFF7E0FEF5
:1015A000012000F029F8B9E7601C84B21148807965
:1015B000A042C0DC0F488079A04219D1304600F02B
:1015C00099FA404605F0E2F800240CE00948406929
:1015D00030F81400404504D10649496921F81460E7
:1015E00005E0601C84B203484089A042EEDC00BFE5
:1015F00000209CE7A8160024F8B505460026002424
:1016000006E04FF6FF703049496921F81400641C68
:101610002D484089A042F4D800202B49888100241D
:1016200033E02949897901FB04F004236A4600214B
:1016300005F058FB9DF80000FF2809D145B122496B
:1016400089796143481C01236A46002105F04AFB61
:101650009DF80000FF2813D19DF802009DF80310AB
:1016600000EB012618484089B04203D91649496960
:1016700021F8164014488089401C1349888103E0F2
:10168000214612A00AF08AFC641C0F484089A0423F
:10169000C7D800240BE00C48406930F814000A4910
:1016A0004989884202DB0849CC8104E0641C064871
:1016B0004089A042EFD800BF0348C089642801DAFE
:1016C0000220F8BD0020FCE7A81600246261642017
:1016D000626C6F636B20696E6465783A25640D0AED
:1016E0000000000070B50546002418484089401EDF
:1016F00017490968884204D214484089401E144999
:10170000086005F001011248006800F023F8044663
:10171000601C90B90D484089401E0D4909688842F7
:101720000BD90A484089401E0949086005F00101AB
:101730000748006800F00EF80446601C10B94FF02E
:10174000FF3070BD024804602046FAE7A816002466
:1017500024000024F8B505460E4600200090002421
:101760006C1C14E0601E00F00100B0420ED1611E3E
:10177000094A927901FB02F004236A46002105F030
:10178000B1FA0098401C08B9601EF8BD641E002C18
:10179000E8D1601EF9E70000A8160024F8B500267D
:1017A00000202D498881002417E02046FFF778FEAD
:1017B00005468DB9204604F0E9FF05463DB12146B6
:1017C00026A00AF0EBFB2046FFF7CAFD04E0224802
:1017D0008089401C20498881641C1F484089A042A0
:1017E000E3D81D48818921A00AF0D8FB1A488089D6
:1017F000642801DA0120F8BD17488089C0EB401049
:1018000000EB4000642190FBF1F6002000900024E2
:1018100015E02046FFF744FE05467DB90E4989795B
:1018200001FB04F002236A46194605F0DFFB00982D
:10183000401C00900098B04200D104E0641C0648AF
:101840004089A042E5D800BF0120FFF7D5FE08B1CE
:101850000220D0E70020CEE7A816002442616420D1
:10186000626C6F636B3A25640D0A0000676F6F64EA
:101870005F626C6F636B6E756D3A25640D0A0000D4
:1018800010B504F0B1FF08B1012010BD1F48406938
:1018900020B11E484169012018F0EEFD1B48408927
:1018A0004100012018F0FAFD184948610A465289A2
:1018B0005100164A5069FEF7B7FD1448406908B94F
:1018C0000120E2E70120FFF797FE044664B110A073
:1018D0000AF064FBFFF762FF0446002C13D012A04D
:1018E0000AF05CFB0220D0E70848418913A00AF007
:1018F00055FB0648818917A00AF050FB0348C189AF
:1019000019A00AF04BFB0020BFE70000A816002436
:10191000666F726D6174206E616E6420666C6173B7
:10192000682E2E2E0D0A0000666F726D617420669F
:1019300061696C6564210D0A00000000746F7461B8
:101940006C20626C6F636B206E756D3A25640D0AB6
:1019500000000000676F6F6420626C6F636B206E25
:10196000756D3A25640D0A0076616C696420626CBD
:101970006F636B206E756D3A25640D0A00000000E0
:10198000014600220648C089884202D24FF6FF7005
:1019900070470348406930F811201046F8E700000E
:1019A000A81600242DE9FF4F83B014469A4600265E
:1019B000002500BF97E04E48408890FBF4F04C496A
:1019C0008979484304992944B1FBF0F002900298C8
:1019D000FFF7D6FF834646484189594503D8012081
:1019E00007B0BDE8F08F4248408890FBF4F04049D2
:1019F0008979484304992944B1FBF0F200FB1210A5
:101A0000604301903A4841880198B0FBF1F03849B1
:101A100089790BFB0108364841880198B0FBF1F247
:101A200001FB120932484088A0EB0900B0FBF4F03A
:101A300087B2AAEB0500B84202D2AAEB050087B232
:101A400007FB04F083B21FFA89F14046039A04F0C1
:101A5000B3FF0646032E39D107FB04F083B21FFA09
:101A600089F14046039A04F0A7FF0646032E2DD1C4
:101A700007FB04F31FFA89F14046039AFFF736FD8E
:101A80001B488079B8FBF0F0311F0090FFF782FC13
:101A900006467EB916488079B8FBF0F00021009028
:101AA000FFF778FC064612488079B8FBF0F000900A
:101AB00004F06CFE4EB10E488079B8FBF0F0009057
:101AC000FFF74EFC0120FFF797FD0026042E00D102
:101AD00000260EB1022083E7039804FB0700039061
:101AE000781E05446D1C5545FFF465AF002077E76F
:101AF000A816002438B50446CC20009000250649DD
:101B0000897901FB04F001236A46194605F06EFA53
:101B10000546284638BD0000A81600242DE9FF4FD1
:101B200087B014469A464FF0000B0025681E0290BD
:101B300000BFA7E05648408890FBF4F054498979EB
:101B4000484308992944B1FBF0F005900598FFF748
:101B500017FF06464E484189B14203D801200BB019
:101B6000BDE8F08F4A48408890FBF4F048498979F5
:101B7000484308992944B1FBF0F200FB121060437E
:101B80000390434841880398B0FBF1F040498979BC
:101B900006FB010004903E4841880398B0FBF1F237
:101BA00001FB12093A484088A0EB090080B2069078
:101BB000BDF8180090FBF4F080B20690AAEB050087
:101BC00087B2BDF81800874201DBBDF8187007FB2B
:101BD00004F806A81FFA89F1C8F38F034FF0FF320B
:101BE0000090049805F036F88346BBF1000F01D051
:101BF0000220B4E7BDF81800B0EB980F09D11FFA26
:101C000088F31FFA89F1079A049805F0FBF88346D8
:101C100001E04FF0010BBBF1000F07D10298B04279
:101C200004D03046FFF766FF83460296BBF1000FF3
:101C300022D0174880791649498848430399401AA9
:101C4000B0FBF4F080B20690AAEB050087B2BDF8B5
:101C50001800874201DBBDF8187007FB04F81FFA73
:101C600089F14346079A0498FFF740FC8346BBF18D
:101C7000000F01D0032072E7781E05440798404406
:101C800007906D1C5545FFF455AF002067E7000035
:101C9000A816002410B504460CB9012010BD94F814
:101CA0003500022803D0802060650120F6E7344922
:101CB0002068884205D333492068884201D8012032
:101CC00000E00020C0B1042084F835002C492068D1
:101CD00088420AD32B492068884206D820680068C9
:101CE00020F001002168086048E02068006820F0CA
:101CF00001002168086041E02068006820F00E00C3
:101D0000216808601E49206888420AD31D4920685E
:101D1000884206D82068006820F001002168086029
:101D200005E02068006820F0010021680860206E4E
:101D3000006820F48070216E086094F85C10012027
:101D4000884011490860D4E919104860E06E40B13C
:101D5000E06E006820F48070E16E0860D4E91C1029
:101D6000486000BF002084F8340000BF012084F8E0
:101D70003500206D10B12046216D884700208DE789
:101D800010000240B80402400454025810B5044642
:101D9000A0B218F045FB10BD0348006840F00100F8
:101DA00001490860704700002004005810B504463F
:101DB000B4F5804F23D10FF0BBFB012080F31388D3
:101DC00000BF00BF00BF00BF00BF00BFBFF34F8F09
:101DD00000BF00BF00BF0B48006800F4E0600A4984
:101DE0000843001D0749086000BF00BF00BFBFF3E4
:101DF0004F8F00BF00BF00BF00BF00BFFDE700BFA7
:101E000010BD00000CED00E00000FA0510B504461E
:101E100004480068204020B1024804602046FFF7D3
:101E2000C5FF10BD88000058F8B502460B460021DA
:101E3000002600240020824D00BFFCE0012707FAA5
:101E400001F61F6807EA0604B4427CD15F68022FDE
:101E500002D05F68122F1AD14FEAD10C02F120078D
:101E600057F82C004F074FEAD76C0F2707FA0CF7EB
:101E7000B8434FEA417C4FEADC6C1F6907FA0CF764
:101E800038434FEAD10C02F1200747F82C001068C4
:101E90004FEA410C032707FA0CF7B8431F7907F004
:101EA00003074FEA410C07FA0CF7384310605F68EC
:101EB000012F08D05F68022F05D05F68112F02D074
:101EC0005F68122F17D190684FEA410C032707FA79
:101ED0000CF7B8434FEA410CDF6807FA0CF73843B8
:101EE0009060506801278F40B8431F79C7F30017EF
:101EF0008F4038435060D0684FEA410C032707FAFF
:101F00000CF7B8434FEA410C9F6807FA0CF73843C7
:101F1000D0605F6807F08057B7F1805F95D100BF50
:101F2000484F3F6847F00207DFF818C1CCF800704F
:101F300067463F6807F00207009700BF00BF424FA7
:101F40004FEA910C00E075E057F82C008F074FEA3C
:101F5000177C0F2707FA0CF7B8433C4FBA4201D160
:101F600000272DE03A4FBA4201D1012728E0394F2E
:101F7000BA4201D1022723E0374FBA4201D10327E9
:101F80001EE0364FBA4201D1042719E0344FBA425D
:101F900001D1052714E0334FBA4201D106270FE0E3
:101FA000314FBA4201D107270AE0304FBA4201D17E
:101FB000082705E02E4FBA4201D1092700E00A2781
:101FC0004FEA817C4FEA1C7C07FA0CF738431E4F1E
:101FD0004FEA910C47F82C002868A0435F6807F48B
:101FE0008037B7F5803F00D1204328606868A04360
:101FF0005F6807F40037B7F5003F00D12043686001
:102000004FF0B0473868A0435F6807F48017B7F512
:10201000801F00D120434FF0B04738607868A0435C
:102020005F6807F40017B7F5001F00D120434FF099
:10203000B0477860491C1029FFF400AFF8BD0000DC
:1020400080000058F4440258080400580000025868
:102050000004025800080258000C025800100258F0
:102060000014025800180258001C025800200258A0
:1020700000240258024613690B400BB1012000E016
:10208000002070470AB1018300E0418370470000DF
:1020900001480068704700000C00002410B5044699
:1020A00003A009F07BFFD4F8940206F0C1FF10BD35
:1020B000436F6E6E6563746564210D0A0D0A00003E
:1020C00010B5044603A009F069FFD4F8940206F0A5
:1020D000C7FF10BD446973636F6E6E65637465649A
:1020E000210D0A0D0A00000010B50446206809F011
:1020F000B7F910BD10B50446206809F0B7F910BD56
:10210000024601EB810302F1380000EBC30090F8B6
:1021100024007047024601EB810302F1380000EB16
:10212000C3004069704770B504460D46002600BFE5
:1021300094F89002012801D1022070BD012084F89A
:10214000900200BF2946206809F09EF900BF0020D8
:1021500084F8900200BF3046EFE72DE9FE4F0446B9
:102160000D4616461F46DDE90D9ADDF830804FF02A
:10217000000B00BF94F89002012802D10220BDE8B4
:10218000FE8F012084F8900200BF05EB850104F169
:10219000380000F8317005EB850100EBC100A0F8B4
:1021A00008A005EB850104F1380000EBC100457083
:1021B00005EB850104F1380000EBC10080F80790C1
:1021C00006F07F0105EB850204F1380000EBC20048
:1021D0008170C6F3C01105EB850204F1380000EBF5
:1021E000C200C17005EB850104F1380000EBC100AD
:1021F00080F804808DE800073B4632462946206877
:1022000009F0FEF9834600BF002084F8900200BF69
:102210005846B4E770472DE9F05F04460D46164670
:102220001F46DDE90BB9DDF834A0DDF8288005EBA9
:10223000850104F1380000EBC100C67005EB850193
:1022400004F1380000EBC100C771B8F1000F08D1EC
:10225000032105EB850204F1380000EBC200817216
:1022600007E0022105EB850204F1380000EBC20013
:10227000817237B1012F7DD0022F3DD0032F3AD18B
:1022800082E0B8F1010F36D1AEBBB9F1000F07D132
:10229000012105EB850204F1380000EBC200417614
:1022A00005EB850104F1380000EBC100407E40B928
:1022B000002105EB850204F1380000EBC2008172B9
:1022C00007E0022105EB850204F1380000EBC200B3
:1022D000817205EB850104F1380000EBC10090F834
:1022E0002400022807D005EB850104F1380000EB3B
:1022F000C10080F805A085E05EBB05EB850104F117
:10230000380000EBC100407E40B9002105EB85029A
:1023100004F1380000EBC200817207E0022105EBF6
:10232000850204F1380000EBC200817205EB8501E3
:1023300004F1380000EBC10090F82400022822D0FC
:1023400005EB850104F1380000EBC10080F805A021
:1023500019E005EB850104F1380000EBC100007EB7
:1023600048B9002105EB850204F1380000EBC200FA
:10237000817208E03DE0022105EB850204F138009E
:1023800000EBC20081723DE0CEB905EB850104F19E
:10239000380000EBC100407E40B9002105EB85020A
:1023A00004F1380000EBC200817221E0022105EB4C
:1023B000850204F1380000EBC200817218E005EBE1
:1023C000850104F1380000EBC100007E40B9002116
:1023D00005EB850204F1380000EBC200817207E0D2
:1023E000022105EB850204F1380000EBC200817286
:1023F00008E0002105EB850204F1380000EBC20083
:10240000817200BF00BF05EB850104F1380000EBCD
:10241000C100C0F80CB005EB850104F1380000EBF9
:10242000C100C0F81090002105EB850204F13800CE
:1024300000EBC20080F8241005EB850204F138009F
:1024400000EBC200416105EB850104F1380000EBAF
:10245000C1004570002105EB850204F1380000EB56
:10246000C20080F82510227C05EB850C04F13803AE
:1024700003EBCC01206809F08FF9BDE8F09F2DE94E
:10248000F0410446266800250027206808F0F7FF81
:10249000012871D1206809F0D4FA08B9BDE8F081AB
:1024A000206809F0CEFA00F40010B0F5001F03D147
:1024B0004FF4001021684861206809F0C2FA00F466
:1024C0008010B0F5801F03D14FF48010216848615F
:1024D000206809F0B6FA00F08060B0F1806F03D197
:1024E0004FF0806021684861206809F0AAFA00F086
:1024F0000200022801D121684861206809F0A1FA90
:1025000000F00050B0F1005F10D1D6F8400420F088
:102510002E00C6F840042046FFF7D2FD01212068B6
:1025200009F070FA4FF0005021684861206809F006
:1025300088FA00F08070B0F1807F02D1204603F06D
:10254000C5FD206809F07DFA00F00800082805D1D3
:10255000204600F0CBF8082021684861206809F087
:1025600070FA00F00070B0F1007F23D1206809F00C
:102570000DF90746002516E032E00120A84038405A
:1025800080B106F5A06000EB4510006800F4004043
:1025900020B1E9B2204603F0A7F803E0E9B22046F3
:1025A00003F01CFB6D1CA068A842E6D84FF0007039
:1025B00021684861206809F044FA00F010001028F2
:1025C0000ED12068806920F01000216888612046C3
:1025D00003F0EEFD2068806940F0100021688861FA
:1025E00000BF5BE710B58AB0044614B901200AB0F9
:1025F00010BD032084F89102204600F021F82068E5
:1026000008F0AEFE282204F110016846FDF7F3FE43
:1026100094E80F0008F046FE0121206809F043FA13
:10262000282204F110016846FDF7E5FE94E80F004A
:1026300009F078F9012084F891020020D7E7000022
:1026400010B5B6B004464FF4802002904FF440100D
:10265000239002A800F0A4FE1E492068884235D1CC
:1026600000BF1D48006840F001001B490860084693
:10267000006800F00100019000BF00BF4FF4C0509F
:1026800031900220329000203390032034900A20B1
:10269000359031A91148FFF7C7FB00BF0E48083835
:1026A000006840F000600C4908390860084600687E
:1026B00000F00060019000BF00BF002201216520F2
:1026C00000F0A8F9652000F095F900E000BF36B0F1
:1026D00010BD000000000840E0440258000002580D
:1026E00010B50446206809F0C6F910BD10B50446BF
:1026F000D4F8940206F059FD10BD10B5044600BF91
:1027000094F89002012801D1022010BD012084F824
:10271000900200BF206808F06DFE0121206808F0DB
:1027200047FE00BF002084F8900200BF00BFECE726
:1027300010B5044600BF94F89002012801D1022090
:1027400010BD012084F8900200BF206809F0C3F991
:1027500000BF002084F8900200BF00BFF0E770B512
:1027600004460CB9012070BD4CF6CC4021680860CD
:1027700045F2555021680860D4E90010486021688E
:10278000A0688860FFF784FC054606E0FFF780FC40
:10279000401B302801D90320E5E72068C0680028E5
:1027A000F4D120680169E068814203D02168E068C3
:1027B000086103E04AF6AA20216808600020D2E7F9
:1027C00010B5032000F064F90F2000F007F808B1FD
:1027D000012010BD00F06AF80020FAE70146002051
:1027E000704700004178154A11600178F9B1121D57
:1027F00041681160017B0907C27A41EA0261827A6D
:1028000041EAC241427B41EA8241827B41EA424144
:10281000C27B41EA0241427A41EA0221027A41EA5C
:10282000420102781143054A0832116005E0002197
:10283000024A121D1160121D1160704798ED00E0F0
:1028400000BF00BF00BFBFF35F8F00BF00BF00BF6E
:102850000548006820F480300349086000200249E0
:10286000703108607047000024ED00E040F0010185
:102870000D4A11600C497039096841F480310A4AE7
:10288000703A116000BF00BF00BFBFF34F8F00BFA1
:1028900000BF00BF00BF00BF00BFBFF36F8F00BF0E
:1028A00000BF00BF7047000094ED00E070470000DB
:1028B00070B504460E4615460CB9012070BD94F85B
:1028C000210028B9002084F82000204600F022F8DA
:1028D000211D2068FEF788FC3146D4E90002FEF78E
:1028E0006FFC2946D4E90002FEF756FC2068006818
:1028F00040F00400216808600548006840F000408E
:1029000003490860012084F821000020D6E7000078
:102910000040005210B586B0044600BF3148006840
:1029200040F480502F4908600846006800F4805049
:10293000009000BF00BF00BF2A480C30006840F084
:10294000080028490C3108600846006800F00800BB
:10295000009000BF00BF00BF0846006840F01000B4
:1029600008600846006800F01000009000BF00BF3B
:1029700000BF0846006840F0400008600846006854
:1029800000F04000009000BF00BF402001900020F8
:102990000290012003900320049001A91248FFF740
:1029A00043FA4FF40070019002200290002003903F
:1029B000032004900C20059001A90C48FFF734FA7D
:1029C0004DF6330001900020039001A90648FFF75F
:1029D0002BFA4FF4F060019001A90548FFF724FAA3
:1029E00006B010BDD4440258000C0258001802581A
:1029F0000010025801460846002809DB00F01F03BA
:102A000001229A4043099B0003F1E023C3F800210F
:102A100000BF70472DE9F05F80460D46164609F06D
:102A2000F9FA074639462A46334601F00700C0F155
:102A3000070ABAF1040F02D94FF0040A01E0C0F10D
:102A4000070AD14600F1040ABAF1070F02D24FF08B
:102A5000000A01E0A0F1030AD4464FF0010A0AFA85
:102A600009FAAAF1010A0AEA020A0AFA0CFA4FF074
:102A7000010B0BFA0CFBABF1010B0BEA030B4AEA5F
:102A80000B042146404609F0CDFABDE8F09F000056
:102A900000BF00F00702064B19684FF6FF0319400C
:102AA000044B0B4343EA0221014B196000BF7047FE
:102AB0000CED00E00000FA050348006840F080706B
:102AC00001490860704700000C4802582DE9F8439E
:102AD00004460D4616460127FFF7DAFA8046A86934
:102AE00000B100BFE86900B100BF286A00B100BFB3
:102AF00000BF94F84000012802D10220BDE8F8830D
:102B0000012084F8400000BF94F84100012828D13A
:102B100000206064022084F8410043460022202106
:102B20002046009604F000FC0746DFB90022294643
:102B3000204604F085FA686A78B9434601220221EA
:102B40002046009604F0F0FB07465FB9022021689A
:102B5000C860012084F8410004E0012084F84100AD
:102B600000E0022700BF002084F8400000BF384684
:102B7000C4E70000F8B504460125FFF789FA0646C8
:102B80000CB90120F8BD206A402800D000BF00BF6A
:102B900094F84000012801D10220F3E7012084F8D5
:102BA000400000BF94F8410050B9002084F8400074
:102BB000204600F05DF841F28831204600F027F908
:102BC0002068006820F47061A068401E4FF47062B5
:102BD00092FAA2F2B2FA82F29040014320680160B8
:102BE000A06C3346002220210090204604F09CFB7C
:102BF000054695BB4FF07F4191FAA1F1B1FA81F101
:102C000060688840E1680843E1690843216A084335
:102C100021680968144A11400843216808604FF48C
:102C2000F81191FAA1F1B1FA81F120698840616946
:102C30000843A1690843216849680C4A11400843C8
:102C4000216848602068006840F001002168086041
:102C500000206064012084F8410000BF002084F857
:102C6000400000BF28468DE72FFFFF00FEF8E0FF81
:102C700010B586B0044600BF2948006840F4804083
:102C8000274908600846006800F48040009000BFB3
:102C900000BF00BF22480C30006840F0020020490D
:102CA0000C3108600846006800F00200009000BF88
:102CB00000BF00BF0846006840F0200008600846DA
:102CC000006800F02000009000BF00BF402001908D
:102CD0000220029001200390032004900A20059016
:102CE00001A91048FFF7A0F84FF4407001900020B0
:102CF00003900320049001A90B48FFF795F80420E6
:102D000001900920059001A90648FFF78DF8C02021
:102D1000019001A90448FFF787F806B010BD000034
:102D2000D444025800040258001402582DE9F84F08
:102D300004460E4617460025FFF7AAF9804620688C
:102D4000D0F81890206800F1200A00BF94F84000E5
:102D5000012802D10220BDE8F88F012084F840004C
:102D600000BF94F84100012849D100206064002E82
:102D70003FD0222084F8410020680069401CA063F5
:102D800020680069401C606326632068406920F069
:102D9000406040F08060216848612068C0F8189069
:102DA00012E04346012206212046009704F0BCFAB7
:102DB000054605B10BE09AF80010226B501C206309
:102DC0001170A06B401EA063A06B0028E9D100BF6A
:102DD0005DB94346012202212046009704F0A4FA7F
:102DE000054615B902202168C860012084F8410019
:102DF00006E0606C40F008006064012500E00225F8
:102E000000BF002084F8400000BF2846A3E781648B
:102E100070472DE9F84304460E4617460025FFF794
:102E200037F98046206800F1200900BF94F840007F
:102E3000012802D10220BDE8F883012084F8400077
:102E400000BF94F84100012844D100206064002EA6
:102E50003AD0122084F8410020680069401CE062EA
:102E600020680069401CA06266622068406920F00A
:102E700040602168486112E0434601220421204657
:102E8000009704F051FA054605B10BE0616A481C51
:102E90006062087889F80000E06A401EE062E06A3B
:102EA0000028E9D100BF5DB9434601220221204636
:102EB000009704F039FA054615B902202168C86068
:102EC000012084F8410006E0606C40F00800606476
:102ED000012500E0022500BF002084F8400000BF6B
:102EE0002846A8E710B501F067F90949096801F417
:102EF00070614FF4807292FAA2F2B2FA82F2D1407B
:102F0000044A515CC840044908600846006810BD86
:102F10001844025894BB01080400002410B501F0C5
:102F200003F90749096801F07001102292FAA2F230
:102F3000B2FA82F2D140034A515CC84010BD000091
:102F40002044025894BB010870B5014600220120BC
:102F5000002300249FED811AB0EE410A9FED7F1AF5
:102F6000F0EE410A7E4D2D6805F003027C4D2D6880
:102F7000C5F305307A4D2D1D2D6805F01003784DF1
:102F800014352D68C5F3CC0515FB03F501EE105A79
:102F9000B8EE411AB0EE410A22B1012A4DD0022A00
:102FA0007DD169E06E4D283D2D68C5F340152DB3E8
:102FB0006B4D283D2D68C5F3C1066A4D25FA06F410
:102FC000B4FBF0F501EE105AF8EE411A9FED661AC7
:102FD00080EE012A624D10352D68C5F3080501EE1B
:102FE000105AB8EE411A32EE011AB7EE002A31EE4D
:102FF000021A21EE811AF0EE410A1DE0594DB5FB8F
:10300000F0F501EE105AF8EE411A9FED571A80EED6
:10301000012A534D10352D68C5F3080501EE105AED
:10302000B8EE411A32EE011AB7EE002A31EE021A5A
:1030300021EE811AF0EE410A5EE04C4DB5FBF0F551
:1030400001EE105AB8EE412A9FED471AC0EE011A60
:10305000434D10352D68C5F3080501EE105AB8EE42
:10306000411A31EE811AF7EE001A31EE211A22EEE2
:10307000011AF0EE410A3FE03D4DB5FBF0F501EEDF
:10308000105AF8EE411A9FED381A80EE012A344D9D
:1030900010352D68C5F3080501EE105A00E00CE06C
:1030A000B8EE411A32EE011AB7EE002A31EE021ADA
:1030B00021EE811AF0EE410A1EE02C4DB5FBF0F531
:1030C00001EE105AB8EE412A9FED271AC0EE011A00
:1030D000234D10352D68C5F3080501EE105AB8EEE2
:1030E000411A31EE811AF7EE001A31EE211A22EE62
:1030F000011AF0EE410A00BF00BF194D10352D68CE
:10310000C5F346256D1C01EE105AB8EE411AC0EE0B
:10311000811ABCEEE11A81ED001A114D10352D68AF
:10312000C5F306456D1C01EE105AB8EE411AC0EE0B
:10313000811ABCEEE11A81ED011A094D10352D6896
:10314000C5F306656D1C01EE105AB8EE411AC0EECB
:10315000811ABCEEE11A81ED021A70BD0000000078
:10316000284402580090D0030000004600093D00AA
:1031700040787D0170B50146002201200023002423
:103180009FED811AB0EE410A9FED7F1AF0EE410AE1
:103190007E4D2D6805F003027C4D2D68C5F305506A
:1031A0007A4D2D1D2D6805F48073784D1C352D68E2
:1031B000C5F3CC0515FB03F501EE105AB8EE411A24
:1031C000B0EE410A22B1012A4DD0022A7DD169E038
:1031D0006E4D283D2D68C5F340152DB36B4D283D30
:1031E0002D68C5F3C1066A4D25FA06F4B4FBF0F567
:1031F00001EE105AF8EE411A9FED661A80EE012A90
:10320000624D18352D68C5F3080501EE105AB8EE69
:10321000411A32EE011AB7EE002A31EE021A21EEFF
:10322000811AF0EE410A1DE0594DB5FBF0F501EEB3
:10323000105AF8EE411A9FED571A80EE012A534DAD
:1032400018352D68C5F3080501EE105AB8EE411A7D
:1032500032EE011AB7EE002A31EE021A21EE811A7F
:10326000F0EE410A5EE04C4DB5FBF0F501EE105A70
:10327000B8EE412A9FED471AC0EE011A434D1835AA
:103280002D68C5F3080501EE105AB8EE411A31EE6B
:10329000811AF7EE001A31EE211A22EE011AF0EE31
:1032A000410A3FE03D4DB5FBF0F501EE105AF8EE56
:1032B000411A9FED381A80EE012A344D18352D68D9
:1032C000C5F3080501EE105A00E00CE0B8EE411A13
:1032D00032EE011AB7EE002A31EE021A21EE811AFF
:1032E000F0EE410A1EE02C4DB5FBF0F501EE105A50
:1032F000B8EE412A9FED271AC0EE011A234D18356A
:103300002D68C5F3080501EE105AB8EE411A31EEEA
:10331000811AF7EE001A31EE211A22EE011AF0EEB0
:10332000410A00BF00BF194D18352D68C5F3462569
:103330006D1C01EE105AB8EE411AC0EE811ABCEEB7
:10334000E11A81ED001A114D18352D68C5F30645B7
:103350006D1C01EE105AB8EE411AC0EE811ABCEE97
:10336000E11A81ED011A094D18352D68C5F306657E
:103370006D1C01EE105AB8EE411AC0EE811ABCEE77
:10338000E11A81ED021A70BD0000000028440258C5
:103390000090D0030000004600093D0040787D0108
:1033A0002DE9F041044600250026206800F0006069
:1033B000B0F1006F30D1606E48B1B0F5801F0DD014
:1033C000B0F5001F10D0B0F5401F15D113E0F9483B
:1033D000006840F40030F74908600FE00221201D2A
:1033E00003F0C8FF054609E0022104F1240004F0BF
:1033F00059F8054602E001E0012500BF00BF55B9BC
:10340000EC482430006820F44010616E0843E9491C
:103410002431086000E02E43208800F48070B0F56D
:10342000807F2DD1606D05281AD2DFE800F0030AF5
:1034300010171800DF48006840F40030DD490860CC
:1034400010E00021201D03F095FF05460AE0002151
:1034500004F1240004F026F8054603E002E001E050
:10346000012500BF00BF55B9D2482430006820F0C4
:103470000700616D0843CF492431086000E02E4306
:10348000208800F40070B0F5007F33D1A06D802853
:1034900017D003DC40B140281CD10CE0C02817D065
:1034A000B0F5807F16D114E0C248006840F40030C7
:1034B000C049086010E00021201D03F05BFF0546B5
:1034C0000AE0002104F1240003F0ECFF054603E0CC
:1034D00002E001E0012500BF00BF55B9B548243026
:1034E000006820F4E070A16D0843B24924310860FF
:1034F00000E02E43208800F48060B0F5806F38D162
:10350000D4F8A400B0F5800F19D004DC50B1B0F5A8
:10351000001F1DD10DE0B0F5C00F17D0B0F5000FA2
:1035200016D114E0A348006840F40030A1490860B7
:1035300010E00021201D03F01DFF05460AE00021D8
:1035400004F1240003F0AEFF054603E002E001E0D1
:10355000012500BF00BF5DB996482C30006820F4FB
:103560006000D4F8A410084392492C31086000E0B0
:103570002E43208800F40060B0F5006F38D1D4F8F5
:10358000A800B0F1007F19D004DC50B1B0F1807F09
:103590001DD10DE0B0F1407F17D0B0F1806F16D192
:1035A00014E08448006840F400308249086010E06C
:1035B0000021201D03F0DEFE05460AE0002104F193
:1035C000240003F06FFF054603E002E001E001255F
:1035D00000BF00BF5DB977482C30006820F0E06084
:1035E000D4F8A810084373492C31086000E02E433A
:1035F000206800F00070B0F1007F27D1A06CA0B16E
:10360000102804D0202809D030280FD10CE06948B8
:10361000006840F400306749086009E00221201D7D
:1036200003F0A8FE054603E002E001E0012500BF2B
:1036300000BF55B95F482030006820F03000A16C11
:1036400008435C492031086000E02E43208800F4E4
:103650008050B0F5805F36D1E06DB0F5005F19D0D5
:1036600004DC50B1B0F5805F1DD10DE0B0F5405FD6
:1036700017D0B0F5804F16D114E04E48006840F4E2
:1036800000304C49086010E00021201D03F072FE5C
:1036900005460AE0002104F1240003F003FF05467B
:1036A00003E002E001E0012500BF00BF55B9414839
:1036B0002430006820F4E040E16D08433D492431A6
:1036C000086000E02E43208800F40050B0F5005F51
:1036D00034D1206EB0F5403F1DD007DC68B1B0F5A5
:1036E000803F0BD0B0F5003F18D10DE0B0F5802F32
:1036F00012D0B0F5A02F11D10FE011E00121201D53
:1037000003F038FE05460BE0012104F1240003F02C
:10371000C9FE054604E003E002E001E0012500BF28
:1037200000BF55B923482430006820F4E020216E02
:10373000084320492431086000E02E43208800F42B
:103740008040B0F5804F38D1D4F8AC00B0F1405F84
:103750001DD007DC68B1B0F1805F0BD0B0F1005F25
:1037600018D10DE0B0F1804F12D0B0F1A04F11D1BF
:103770000FE011E00121201D03F0FCFD05460BE0E8
:10378000012104F1240003F08DFE054604E003E06E
:1037900002E001E0012500BF00BF6DB905482C30F3
:1037A000006820F0E040D4F8AC10084301492C3107
:1037B000086002E02C4402582E43208800F40040A8
:1037C000B0F5004F26D1E06E98B1B0F1805F03D024
:1037D000B0F1005F0ED106E0FA48006840F4003016
:1037E000F849086008E00121201D03F0C3FD0546EB
:1037F00002E001E0012500BF00BF55B9F1482430C7
:10380000006820F04050E16E0843EE492431086022
:1038100000E02E43206800F08070B0F1807F27D157
:10382000606CA0B1012804D0022809D003280FD170
:103830000CE0E448006840F40030E249086009E028
:103840000221201D03F096FD054603E002E001E0A1
:10385000012500BF00BF55B9DA482030006820F0CC
:103860000300616C0843D7492031086000E02E4313
:10387000206800F48000B0F5800F7DD1D248006848
:1038800040F48070D0490860FEF702FC074606E06D
:10389000FEF7FEFBC01B642801D9032505E0CA48DA
:1038A000006800F480700028F2D000BF8DBBC548CE
:1038B0004430006800F44070B4F8B01001F4407176
:1038C000884214D0BF484430006820F44078BD4896
:1038D0004430006840F48030BA49443108600846FA
:1038E000006820F4803008600846C0F80080D4F8F2
:1038F000B000B0F5807F15D1FEF7CAFB074609E09E
:10390000FEF7C6FBC01B41F28831884202D903256D
:1039100007E038E0AB4844300068C0F340000028BE
:10392000EED000BF4DBB00BFB4F8B00000F4407053
:10393000B0F5407F0ED1A3481C38006820F47C51BC
:10394000A24AD4F8B000104041EA10109D491C3939
:10395000086007E09B481C38006820F47C509949B7
:103960001C390860974844300068B4F8B010C1F3BF
:103970000B010843934901E006E002E0443108608E
:1039800002E02E4300E02E43207800F0010068B3EF
:10399000A06F182819D005DC48B1082808D01028D5
:1039A00016D10BE0202811D0282811D10FE011E00A
:1039B0000121201D03F0DEFC05460BE0012104F18E
:1039C000240003F06FFD054604E003E002E001E09F
:1039D000012500BF00BF55B97A482830006820F0A3
:1039E0003800A16F084377492831086000E02E4372
:1039F000207800F00200022828D1606F062815D236
:103A0000DFE800F003040A11121311E00121201D68
:103A100003F0B0FC05460BE0012104F1240003F0A3
:103A200041FD054604E003E002E001E0012500BF9E
:103A300000BF55B963482830006820F00700616F67
:103A4000084360492831086000E02E43207800F0E8
:103A5000040004282AD1D4F89000062815D2DFE803
:103A600000F003040A11121311E00121201D03F0DC
:103A700081FC05460BE0012104F1240003F012FD56
:103A8000054604E003E002E001E0012500BF00BFBD
:103A90005DB94C482C30006820F00700D4F8901035
:103AA000084348492C31086000E02E43207800F09C
:103AB0002000202836D1D4F88C00B0F1405F1DD012
:103AC00007DC68B1B0F1805F0BD0B0F1005F18D1B6
:103AD0000DE0B0F1804F12D0B0F1A04F11D10FE046
:103AE00011E00021201D03F045FC05460BE00221FA
:103AF00004F1240003F0D6FC054604E003E002E0F4
:103B000001E0012500BF00BF5DB92E4828300068E4
:103B100020F0E040D4F88C1008432A49283108608E
:103B200000E02E43207800F04000402836D1D4F841
:103B30009800B0F5406F1DD007DC68B1B0F5806F1C
:103B40000BD0B0F5006F18D10DE0B0F5805F12D04A
:103B5000B0F5A05F11D10FE011E00021201D03F0AE
:103B600009FC05460BE0022104F1240003F09AFC55
:103B7000054604E003E002E001E0012500BF00BFCC
:103B80005DB910482C30006820F4E050D4F898104B
:103B900008430C492C31086000E02E43207800F0E7
:103BA000800080283BD1D4F89C00B0F5C04F24D0D1
:103BB0000EDCA0B1B0F5005F12D0B0F5804F1FD180
:103BC00014E000002C44025800480258FFFCFF0F8C
:103BD000B0F5004F12D0B0F5204F11D10FE011E039
:103BE0000021201D03F0C6FB05460BE0022104F175
:103BF000240003F057FC054604E003E002E001E086
:103C0000012500BF00BF4DB9B248006820F46040F4
:103C1000D4F89C100843AF49086000E02E43207898
:103C200000F00800082816D1D4F88000B0F5805FB5
:103C300006D1022104F1240003F034FC06430AE01B
:103C4000A448001F006820F44050D4F880100843B6
:103C5000A049091F0860207800F01000102814D136
:103C6000D4F89400B0F5807F06D1022104F124003D
:103C700003F018FC064308E09648006820F4407002
:103C8000D4F89410084393490860206800F4002099
:103C9000B0F5002F26D1D4F8A00030B1B0F5803FA8
:103CA00009D0B0F5003F0ED10CE00021201D03F03B
:103CB00061FB054609E0022104F1240003F0F2FB58
:103CC000054602E001E0012500BF00BF4DB9814873
:103CD000006820F44030D4F8A01008437D49086003
:103CE00000E02E43206800F48020B0F5802F2DD115
:103CF000D4F88400B0F5801F06D0B0F5001F0CD0BA
:103D0000B0F5401F11D10FE072482C38006840F424
:103D1000003070492C39086009E0012104F12400C9
:103D200003F0C0FB054602E001E0012500BF00BF33
:103D30005DB96848001F006820F44010D4F8841072
:103D400008436449091F086000E02E43206800F41E
:103D50008030B0F5803F24D1E06C18B1B0F5803FE1
:103D60000FD108E05B482C38006840F40030594916
:103D70002C39086007E00221201D03F0FBFA0546FC
:103D800001E0012500BF00BF55B952480C3800685A
:103D900020F48030E16C08434E490C39086000E0A3
:103DA0002E43206800F00050B0F1005F05D10221E1
:103DB00004F1240003F076FB0643206800F4003091
:103DC000B0F5003F27D1E06FA0B1B0F5807F06D0FD
:103DD000B0F5007F0CD0B0F5407F0CD109E03D4834
:103DE0002C38006840F400303A492C39086004E06F
:103DF00003E002E001E0012500BF00BF55B93548EE
:103E0000001F006820F44070E16F08433149091F2A
:103E1000086000E02E43206800F48010B0F5801F99
:103E200009D12C480838006820F00040216F084371
:103E3000284908390860206800F08050B0F1805FA0
:103E40000AD124484838006820F48040D4F8B410DF
:103E50000843204948390860206800F40010B0F594
:103E6000001F09D11B480838006820F08070A16E3F
:103E70000843184908390860206800F08040B0F114
:103E8000804F11D100BF13484838006820F400402B
:103E900010494839086008460068D4F8B81008434B
:103EA0000C494839086000BF206800F00040B0F1BC
:103EB000004F09D107480C38006820F04050216DB0
:103EC000084304490C39086016B90020BDE8F081A8
:103ED0000120FBE75844025870B504460D46002601
:103EE0008D48006800F00700A8420ED28A4800689A
:103EF00020F007002843884908600846006800F061
:103F00000700A84201D0012070BD207800F0020017
:103F1000022807D18148006820F00F00E1680843BB
:103F20007E490860207800F00100002851D07B48CD
:103F3000006820F47060A1680843784908606068F0
:103F4000022807D1754818380068C0F34040F8B916
:103F50000120D9E76068032807D170481838006845
:103F6000C0F34060A0B90120CEE76068012807D106
:103F70006A4818380068C0F3002048B90120C3E738
:103F8000664818380068C0F3800008B90120BBE714
:103F900062480838006820F00700616808435F49FC
:103FA00008390860FEF774F806466068022811D1E7
:103FB00008E0FEF76DF8801B41F28831884201D994
:103FC0000320A1E755480838006800F038001028A1
:103FD000EFD13AE06068032811D108E0FEF758F805
:103FE000801B41F28831884201D903208CE74B487D
:103FF0000838006800F038001828EFD125E0606824
:10400000012811D108E0FEF743F8801B41F2883106
:10401000884201D9032077E740480838006800F05B
:1040200038000828EFD110E008E0FEF731F8801BD7
:1040300041F28831884201D9032065E737480838C2
:10404000006800F038000028EFD13348006800F025
:104050000700A8420ED93048006820F00700284326
:104060002D4908600846006800F00700A84201D00A
:10407000012049E7207800F00400042807D12748F0
:10408000006820F070002169084324490860207806
:1040900000F00800082809D12048001D006820F021
:1040A0007000616908431D49091D0860207800F00F
:1040B0001000102809D11948001D006820F4E060A4
:1040C000A16908431549091D0860207800F0200007
:1040D000202809D111480830006820F07000E169FB
:1040E00008430E490831086000F066F80B4909687A
:1040F00001F470614FF4807292FAA2F2B2FA82F285
:10410000D140074A515CC840064908600F20FEF7BD
:1041100065FB0020F8E60000002000521844025819
:1041200094BB01080400002410B5FEF7DBFE09492A
:10413000096801F00F01012292FAA2F2B2FA82F2AA
:10414000D140054A515CC8400449086008460068EF
:1041500010BD00001844025894BB01080800002458
:1041600010B5FFF7E1FF0749096801F0700110225F
:1041700092FAA2F2B2FA82F2D140034A515CC840EC
:1041800010BD00001C44025894BB010810B5FFF795
:10419000CBFF0749096801F4E0614FF4807292FA9D
:1041A000A2F2B2FA82F2D140024A515CC84010BD7C
:1041B0001C44025894BB010870B5012500EE905ACA
:1041C0000022012100230024DFED861AB0EE610AEF
:1041D000DFED841AB0EE611A0020834D2D6805F0E2
:1041E000380535B1082D15D0102D15D0182D7CD1DE
:1041F00014E07D4D103D2D68C5F3401545B17A4D55
:10420000103D2D68C5F3C106784D25FA06F000E093
:104210007648E5E07648E3E07648E1E0724D18350F
:104220002D6805F00302704D18352D68C5F3051192
:104230006D4D1C352D6805F001036B4D24352D683F
:10424000C5F3CC0515FB03F501EE905AF8EE611AA3
:10425000B0EE610A22B1012A4FD0022A7DD16BE073
:10426000614D103D2D68C5F340152DB35E4D103DD9
:104270002D68C5F3C1065D4D25FA06F4B4FBF1F5D2
:1042800001EE905AB8EE612ADFED5B1AC0EE212AEA
:10429000554D20352D68C5F3080501EE905AF8EE0E
:1042A000611A72EEA11AF7EE002A71EEA21A62EEFE
:1042B000211AB0EE611A1FE04C4DB5FBF1F501EE8D
:1042C000905AB8EE612ADFED4C1AC0EE212A464D15
:1042D00020352D68C5F3080501EE905AF8EE611AF5
:1042E00072EEA11AF7EE002A00E077E071EEA21A52
:1042F00062EE211AB0EE611A5EE03D4DB5FBF1F5BC
:1043000001EE905AB8EE612ADFED3B1AC0EE212A89
:10431000354D20352D68C5F3080501EE905AF8EEAD
:10432000611A72EEA11AF7EE002A71EEA21A62EE7D
:10433000211AB0EE611A3FE02E4DB5FBF1F501EE0A
:10434000905AB8EE612ADFED2C1AC0EE212A264DD4
:1043500020352D68C5F3080500E00EE001EE905A07
:10436000F8EE611A72EEA11AF7EE002A71EEA21AA7
:1043700062EE211AB0EE611A1EE01D4DB5FBF1F59B
:1043800001EE905AF8EE612ADFED1B1A80EE212A29
:10439000154D20352D68C5F3080501EE905AF8EE4D
:1043A000611A72EE211AB7EE002A71EE821A62EEDD
:1043B000A11AB0EE611A00BF00BF0B4D20352D6869
:1043C000C5F346256D1C00EE905AF8EE601A81EE9A
:1043D000212AFCEEC21A11EE900A01E0044800BF47
:1043E00000BF70BD00000000104402580090D003D0
:1043F00000093D0040787D010000004670B504468C
:104400000025207800F00100002872D0F9480068EB
:1044100000F0380010280CD0F648006800F0380092
:10442000182812D1F3481830006800F00300022861
:104430000BD1F04810380068C0F3404000286DD020
:10444000606800286AD1012070BD00BF6068B0F5C7
:10445000803F08D1E7481038006840F48030E549D3
:10446000103908602EE0606868B9E24810380068CA
:1044700020F48030DF49103908600846006820F4D5
:10448000802008601EE06068B0F5A02F0DD1D948EB
:104490001038006840F48020D6491039086008467A
:1044A000006840F4803008600CE0D24810380068A2
:1044B00020F48030CF49103908600846006820F4A5
:1044C0008020086000BF6068A0B1FDF7E1FD0546EF
:1044D00008E0FDF7DDFD401B41F28831884201D93B
:1044E0000320B1E7C34810380068C0F340400028FB
:1044F000EFD013E0FDF7CCFD054608E0FDF7C8FD61
:10450000401B41F28831884201D903209CE7B94819
:1045100010380068C0F340400028EFD1207800F048
:104520000200022847D1B348006800F0380058B1B3
:10453000B048006800F0380018283ED1AD48183067
:10454000006800F00300B8BBAA4810380068C0F348
:10455000800018B1E06808B9012075E7A548103857
:10456000006820F01900E1680843A249103908608A
:10457000FDF78EFD054606E0FDF78AFD401B02288B
:1045800001D9032060E79B4810380068C0F3800021
:104590000028F1D097480C38006820F47C304FF4A4
:1045A0007C3292FAA2F2B2FA82F221699140084377
:1045B00090490C3908604AE0FFE7E06868B38D482D
:1045C0001038006820F01900E16808438949103963
:1045D0000860FDF75DFD054606E0FDF759FD401B4F
:1045E000022801D903202FE7824810380068C0F361
:1045F00080000028F1D07F480C38006820F47C301F
:104600004FF47C3292FAA2F2B2FA82F2216991401E
:10461000084378490C39086019E07648103800687A
:1046200020F00100734910390860FDF731FD05469F
:1046300006E0FDF72DFD401B022801D9032003E70A
:104640006C4810380068C0F380000028F1D1207851
:1046500000F01000102877D16648006800F038009C
:1046600008280CD06348006800F03800182823D1CF
:1046700060481830006800F0030001281CD15D4834
:1046800010380068C0F3002020B1E069802801D014
:104690000120D9E657480C38006820F0F8404FF068
:1046A000F84292FAA2F2B2FA82F2216A91400843E9
:1046B00050490C39086047E0E06958B34D4810385C
:1046C000006840F080004B4910390860FDF7E0FCBD
:1046D000054606E0FDF7DCFC401B022801D903205B
:1046E000B2E6444810380068C0F300200028F1D03A
:1046F00040480C38006820F0F8404FF0F84292FA39
:10470000A2F2B2FA82F2216A9140084339490C3987
:10471000086019E037481038006820F080003549FB
:1047200010390860FDF7B4FC054606E0FDF7B0FC63
:10473000401B022801D9032086E62E481038006865
:10474000C0F300200028F1D1207800F008000828EC
:1047500036D16069D0B127486430006840F001006C
:10476000244964310860FDF793FC054606E0FDF737
:104770008FFC401B022801D9032065E61D486430E8
:104780000068C0F340000028F1D019E019486430F7
:10479000006820F00100174964310860FDF778FCDB
:1047A000054606E0FDF774FC401B022801D90320F2
:1047B0004AE6104864300068C0F340000028F1D198
:1047C000207800F02000202834D1A069D8B1094811
:1047D0001038006840F48050064910390860FDF731
:1047E00057FC054608E0FDF753FC401B022803D99F
:1047F000032029E610440258AF480068C0F3403057
:104800000028F0D016E0AC48006820F48050AA4997
:104810000860FDF73DFC054606E0FDF739FC401B4E
:10482000022801D903200FE6A3480068C0F34030F6
:104830000028F2D1207800F0040004287DD19F48A0
:10484000006840F480709D490860FDF721FC054632
:1048500006E0FDF71DFC401B642801D90320F3E5A9
:104860009648006800F480700028F2D000BFA0686D
:10487000012808D190487030006840F001008E494E
:10488000703108602DE0A06868B98B48703000680E
:1048900020F001008849703108600846006820F067
:1048A000040008601DE0A06805280DD18248703022
:1048B000006840F0040080497031086008460068D4
:1048C00040F0010008600CE07B487030006820F088
:1048D00001007949703108600846006820F0040042
:1048E000086000BFA068A0B1FDF7D2FB054608E054
:1048F000FDF7CEFB401B41F28831884201D90320ED
:10490000A2E56D4870300068C0F340000028EFD089
:1049100013E0FDF7BDFB054608E0FDF7B9FB401BC2
:1049200041F28831884201D903208DE56248703018
:104930000068C0F340000028EFD1606A00287CD0F6
:104940005D481030006800F03800182876D0606AA2
:10495000022874D15848006820F0807056490860D9
:10496000FDF796FB054606E0FDF792FB401B02288B
:1049700001D9032068E550480068C0F34060002872
:10498000F2D100BFD4E90A1041EA00104A492831A7
:10499000096840F2F33291430843474928310860DF
:1049A000208E401EC0F30800616B491E4FF47E420A
:1049B00002EA41210843218F491ED20102EA014146
:1049C00008433C21095D491E120202EA01610843C5
:1049D00039493031086000BF081D00684FF6F87192
:1049E00088434FF6F87292FAA2F2B2FA82F2A16C00
:1049F000914008433049343108602F482C3000681A
:104A000020F00C00216C08432B492C31086008462B
:104A1000006820F00200616C084327492C310860CF
:104A20000846006840F4803008600846006840F49A
:104A3000003008600846006802E03BE038E01FE014
:104A400040F4802008600846006840F001000860DB
:104A50001948006840F0807017490860FDF718FB9E
:104A6000054606E0FDF714FB401B022801D9032090
:104A7000EAE411480068C0F340600028F2D019E071
:104A80000D48006820F080700B490860FDF700FBBE
:104A9000054606E0FDF7FCFA401B022801D9032079
:104AA000D2E405480068C0F340600028F2D101E07C
:104AB0000120C9E40020C7E400440258004802581D
:104AC00070B504460D460CB9012070BD94F82C0059
:104AD00028B9002084F82D00204600F019F80220A3
:104AE00084F82C00211D2068FCF798FB2946D4E9A6
:104AF0000002FCF7E7FB0548006840F0004003496E
:104B00000860012084F82C000020DEE700400052FD
:104B100010B586B0044600BF4648006840F0020069
:104B2000444908600846006800F00200009000BF99
:104B300000BF00BF3F482038006840F480503D4926
:104B4000203908600846006800F48050009000BFDB
:104B500000BF00BF37481438006840F004003549F2
:104B6000143908600846006800F00400009000BF97
:104B700000BF00BF0846006840F008000860084613
:104B8000006800F00800009000BF00BF00BF0846AA
:104B9000006840F0100008600846006800F010004F
:104BA000009000BF00BF00BF0846006840F0200032
:104BB00008600846006800F02000009000BF00BFB9
:104BC00000BF0846006840F04000086008460068E2
:104BD00000F04000009000BF00BF0D2001900220B7
:104BE000029001200390032004900C20059001A95D
:104BF0001148FDF719F94CF20370019001A90F4813
:104C0000FDF712F94FF68370019001A90C48FDF7EA
:104C10000BF94FF63F00019001A90A48FDF704F98E
:104C200048F23710019001A90748FDF7FDF806B0DA
:104C300010BD0000F444025800080258000C02584D
:104C400000100258001402580018025870B50446AB
:104C50000D4694F82C00022800D170BD022084F883
:104C60002C0029462068FCF713FB012084F82C0057
:104C70000020F2E770B504460D46164694F82C0065
:104C8000022800D170BD022084F82C00324629464B
:104C90002068FCF704FB2868022803D1052084F86B
:104CA0002C0002E0012084F82C000020EAE7704785
:104CB000704710B504460CB9012010BD94F83D00B2
:104CC00028B9002084F83C00204600F00DF80220AE
:104CD00084F83D00211D206802F064FE012084F864
:104CE0003D000020E9E7000010B504462068B0F15F
:104CF000804F07D1002204211C20FDF78BFE1C20D1
:104D0000FDF778FE18492068884207D10022042167
:104D10001D20FDF77FFE1D20FDF76CFE1349206866
:104D2000884207D1002204211E20FDF773FE1E20B9
:104D3000FDF760FE0E492068884207D10022042159
:104D40003220FDF767FE3220FDF754FE0949206846
:104D5000884207D1002204213620FDF75BFE362071
:104D6000FDF748FE10BD00000004004000080040B0
:104D7000000C0040001000400146022081F83D0078
:104D80000868008840F001000A681080012081F85E
:104D90003D000020704701460868C06840F00100EF
:104DA0000A68D0600868008840F001000A68108036
:104DB0000020704701460868C06820F001000A68BA
:104DC000D06000BF0868006A41F21112104050B96B
:104DD0000868006A9210104028B90868008820F01E
:104DE00001000A68108000BF00207047704710B5AE
:104DF000044620680069C0F34000D8B12068C0684C
:104E0000C0F34000B0B16FF00200216808610120DA
:104E100020772068806900F0030018B12046FFF772
:104E2000E5FF05E0204600F0BEF8204600F0BCF8A3
:104E30000020207720680069C0F38000D8B1206886
:104E4000C068C0F38000B0B16FF004002168086151
:104E5000022020772068806900F4407018B1204655
:104E6000FFF7C4FF05E0204600F09DF8204600F063
:104E70009BF80020207720680069C0F3C000D8B1FB
:104E80002068C068C0F3C000B0B16FF008002168AE
:104E90000861042020772068C06900F0030018B181
:104EA0002046FFF7A3FF05E0204600F07CF82046EF
:104EB00000F07AF80020207720680069C0F3001025
:104EC000D8B12068C068C0F30010B0B16FF0100016
:104ED00021680861082020772068C06900F44070CC
:104EE00018B12046FFF782FF05E0204600F05BF88E
:104EF000204600F059F8002020772068006900F073
:104F0000010058B12068C06800F0010030B16FF0B6
:104F1000010021680861204600F048F82068006917
:104F2000C0F3C01058B12068C068C0F3C01030B1E1
:104F30006FF08000216808612046FFF7B8FE206806
:104F40000069C0F3002058B12068C068C0F3C010E9
:104F500030B16FF08000216808612046FFF7A7FE9E
:104F600020680069C0F3801058B12068C068C0F3A1
:104F7000801030B16FF0400021680861204600F0D9
:104F80003BF820680069C0F3401058B12068C06841
:104F9000C0F3401030B16FF0200021680861204656
:104FA000FFF786FE10BD70477047000010B504463D
:104FB0000C48844201D109F0C5FB0B48844201D161
:104FC00009F0F4FB0948844201D109F023FC0848A8
:104FD000844201D109F02CFC0648844201D109F039
:104FE0005BFC10BD98020024D802002418030024A2
:104FF0005803002498030024704770477047014607
:105000000022002391F8792091F87A3042EA0300D7
:10501000704700002DE9F04104462068C56920680A
:1050200007682068866805F00F08B8F1000F0DD1F9
:1050300005F0200050B107F0200010B906F08050B4
:1050400020B1204602F007FEBDE8F081B8F1000F64
:1050500072D05D48304018B907F4907000287AD0BB
:1050600005F0010048B107F4807030B101202168DB
:105070000862E06F40F00100E06705F0020048B10F
:1050800006F0010030B1022021680862E06F40F0B4
:105090000400E06705F0040048B106F0010030B1FB
:1050A000042021680862E06F40F00200E06705F02C
:1050B000080078B107F0200028B906F0805010B938
:1050C00006F0010030B1082021680862E06F40F06E
:1050D0000800E067E06F70B305F0200040B107F012
:1050E000200010B906F0805010B1204602F0B3FD48
:1050F000E06F00F0080020B92068806800F04000F0
:1051000018B3204602F087FD2068806800F0400058
:10511000B8B12068806820F0400021688860606F26
:1051200058B12A48616F0865606FFCF7B3FD10B194
:10513000606F016D88470DE00DE02046FFF75EFFD0
:1051400008E02046FFF75AFF04E02046FFF756FF2D
:105150000020E06778E705F4801078B106F480005D
:1051600060B14FF4801021680862202084F8790033
:1051700084F87A002046FFF740FF65E705F08000DD
:1051800048B107F0800010B906F4000018B12046BD
:1051900003F078FA58E705F0400030B107F040001E
:1051A00018B1204602F047FD4EE705F4000040B17B
:1051B00007F0804028B12068006820F08040216816
:1051C000086000BF40E7000001000010FF7B0008FE
:1051D00010B504460CB9012010BDA06900B100E073
:1051E00000BF94F8790028B9002084F878002046A0
:1051F00000F02AF8242084F879002068006820F064
:10520000010021680860204602F06AFD012800D1F3
:10521000E2E7606B10B1204602F042FC2068406873
:1052200020F49040216848602068806820F02A00BF
:10523000216888602068006840F0010021680860EB
:10524000204602F0A2FCC7E710B586B004469A4992
:105250002068884248D100BF9848006840F00100AB
:10526000964908600846006800F00100009000BF01
:1052700000BF00BF0846006840F001000860084613
:10528000006800F00100009000BF00BF00BF8B4825
:105290001030006840F0100088491031086008465E
:1052A000006800F01000009000BF00BF4FF40070D5
:1052B0000190022002900120039002200490072018
:1052C000059001A97E48FCF7AFFD4FF48060019086
:1052D00001A97B48FCF7A8FD2520FDF78BFB0022E8
:1052E00003212520FDF796FB76492068884246D1A8
:1052F00000BF7248006840F001007049086008462D
:10530000006800F00100009000BF00BF00BF084629
:10531000006840F0010008600846006800F00100E5
:10532000009000BF00BF00BF64480830006840F430
:1053300000306249083108600846006800F4003017
:10534000009000BF00BF04200190022002900120C5
:105350000390022004900720059001A95848FCF70B
:1053600063FD0820019001A95548FCF75DFD26204A
:10537000FDF740FB002203212620FDF74BFB52499D
:105380002068884248D100BF4C48006840F00200C5
:105390004A4908600846006800F00200009000BF1B
:1053A00000BF00BF0846006840F0020008600846E1
:1053B000006800F00200009000BF00BF00BF3F483F
:1053C0000830006840F480203C49083108600846F5
:1053D000006800F48020009000BF00BF4FF48060A0
:1053E00001900220029001200390022004900720E7
:1053F000059001A93548FCF717FD4FF400600190B6
:1054000001A93248FCF710FD2720FDF7F3FA00222E
:1054100003212720FDF7FEFA2D492068884248D154
:1054200000BF2648006840F0800024490860084614
:10543000006800F08000009000BF00BF00BF084679
:10544000006840F0800008600846006800F08000B6
:10545000009000BF00BF00BF18480830006840F44B
:1054600000201649083108600846006800F4002052
:10547000009000BF00BF4FF4005001900220029046
:1054800001200390022004900820059001A91148F2
:10549000FCF7CAFC4FF48040019001A90D48FCF7CD
:1054A000C3FC3420FDF7A6FA002203213420FDF7C7
:1054B000B1FA06B010BD000000100140E0440258EF
:1054C0000000025800440040004800400004025818
:1054D000004C0040001C025810B5034693F87A00B7
:1054E000202867D101B10AB9012010BD00BF93F88F
:1054F0007800012801D10220F7E7012083F8780025
:1055000000BF5966A3F86820A3F86A2000BF986816
:10551000B0F5805F0AD1186920B940F2FF10A3F8F6
:105520006C001CE0FF20A3F86C0018E0986848B9F4
:10553000186918B9FF20A3F86C0010E07F20A3F8C9
:105540006C000CE09868B0F1805F08D1186918B958
:105550007F20A3F86C0002E03F20A3F86C0000BF9E
:105560000020D867222083F87A0000BF002083F84B
:10557000780000BF1868806840F001001C68A060D7
:105580001868006800F0005060B11868006840F4C6
:1055900080701C6820601868806840F080501C682B
:1055A000A06005E01868006840F490701C682060F6
:1055B00000209AE7022098E710B5044610492068B9
:1055C000884203D10F49087809F0AEF90E492068E6
:1055D000884203D10D49087809F0C4F90C492068C4
:1055E000884203D10B49087809F002FA0A49206879
:1055F000884203D10949087809F018FA10BD000063
:10560000001001401A000024004400401B00002448
:10561000004800401C000024004C00401D000024F5
:105620002DE9F84304460D4616461F464FF0000983
:1056300094F87900202854D105B116B90120BDE8AD
:10564000F88300BF94F87800012801D10220F6E722
:10565000012084F8780000BF00206034E061212040
:105660006076FCF715FD814626806680603C21E06F
:10567000B4F86200401EA4F862004B46002280216C
:105680002046009703F03FF808B10320D7E7A06851
:10569000B0F5805F0AD1206940B9A846B8F800008B
:1056A000C0F3080021680885AD1C03E015F8010B64
:1056B00021680885B4F862000028D9D14B46002241
:1056C00040212046009703F01EF808B10320B6E7FA
:1056D000202084F8790000BF002084F8780000BF03
:1056E000ADE70220ABE770472DE9F04106460C46D6
:1056F0003568002705F5A06000EB4410806800F0D5
:10570000040090B1042105F5A06000EB4410816015
:1057100005F5A06000EB4410C06840F0020105F5FB
:10572000A06000EB4410C16069E005F5A06000EBEB
:105730004410806800F0200030B1202105F5A06001
:1057400000EB441081605AE005F5A06000EB4410C6
:10575000806800F0080028B305F5A06000EB441055
:10576000C06840F0020105F5A06000EB4410C16084
:10577000052104EB840206F1380000EBC20080F83A
:105780002510102105F5A06000EB44108160082170
:1057900005F5A06000EB441081602146306805F0FB
:1057A00073FE2CE005F5A06000EB4410806800F467
:1057B000806020B305F5A06000EB4410C06840F0A5
:1057C000020105F5A06000EB4410C160214630687D
:1057D00005F05AFE102105F5A06000EB4410816031
:1057E000082104EB840206F1380000EBC20080F8C7
:1057F0002510C90105F5A06000EB4410816005F596
:10580000A06000EB4410806800F40070B8B105F5AA
:10581000A06000EB4410C06840F0020105F5A060F4
:1058200000EB4410C1602146306805F02DFE4FF4B6
:10583000007105F5A06000EB44108160CCE105F536
:10584000A06000EB4410806800F0010000287DD0CB
:105850003069A8B104EB840106F1380000EBC10007
:10586000016905F5A06000EB44100069C0F3120067
:10587000091A04EB840206F1380000EBC200416112
:10588000012104EB840206F1380000EBC20080F82D
:105890002510002104EB840206F1380000EBC20061
:1058A0000162012105F5A06000EB4410816004EB6A
:1058B000840106F1380000EBC100C07940B104EB6F
:1058C000840106F1380000EBC100C079022816D12E
:1058D00005F5A06000EB4410C06840F0020105F53A
:1058E000A06000EB4410C1602146306805F0CCFD9B
:1058F000102105F5A06000EB441081602BE004EB63
:10590000840106F1380000EBC100C079032822D1E0
:1059100005F5A06000EB4410006840F0005105F56B
:10592000A06000EB44100160012104EB840206F149
:10593000380000EBC20080F8241004EB840106F16B
:10594000380000EBC10090F8242000E014E021466C
:105950003046FCF75FFC04EB840106F1380000EBF5
:10596000C100007E80F0010104EB840206F13800E2
:1059700000EBC20001762FE105F5A06000EB4410BA
:10598000806800F00200002871D005F5A06000EBEF
:105990004410C06820F0020105F5A06000EB44103F
:1059A000C16004EB840106F1380000EBC10090F8FF
:1059B0002500012809D1012104EB840206F13800F9
:1059C00000EBC20080F8241069E004EB840106F1CA
:1059D000380000EBC10090F82500052809D1052109
:1059E00004EB840206F1380000EBC20080F82410BA
:1059F00055E004EB840106F1380000EBC10090F89B
:105A00002500062809D004EB840106F1380000EBDC
:105A1000C10090F82500082841D104EB840106F16B
:105A2000380000EBC10004EB8401026A06F1380083
:105A300000EBC100006A401C04EB840306F138014E
:105A400001EBC3010862032A12D9002104EB84028E
:105A500006F1380000EBC2000162042104EB84026D
:105A600006F1380000EBC20080F8241009E029E0BC
:105A7000022104EB840206F1380000EBC20080F83A
:105A8000241005F5A06000EB4410076827F080475C
:105A900047F0004705F5A06000EB441007600221C5
:105AA00005F5A06000EB4410816004EB840106F171
:105AB000380000EBC10090F8242021463046FCF766
:105AC000A9FB89E005F5A06000EB4410806800F0B8
:105AD000800070B305F5A06000EB4410C06840F092
