:020000040800F2
:10000000B8D501207D040008E54800086F480008C5
:10001000E1480008E13100084181000800000000CB
:10002000000000000000000000000000490300087C
:10003000E531000800000000F5030008690400082D
:100040009704000897040008970400089704000824
:100050009704000897040008970400089704000814
:100060009704000897040008970400089704000804
:1000700097040008970400089704000897040008F4
:1000800097040008970400089704000897040008E4
:1000900097040008970400089704000897040008D4
:1000A00097040008970400089704000897040008C4
:1000B0000D5500081D5500082D550008970400082F
:1000C00097040008970400089704000897040008A4
:1000D00097040008BD5B0008ED5B0008970400086A
:1000E0009704000897040008970400089704000884
:1000F0009704000897040008970400089704000874
:100100009704000897040008970400089704000863
:100110009704000897040008970400089704000853
:100120009704000897040008970400089704000843
:100130009704000800000000000000009704000879
:1001400097040008970400089704000879490008FC
:100150009704000897040008970400089704000813
:100160009704000897040008970400089704000803
:100170009704000883490008970400080000000065
:1001800000000000970400080000000000000000CC
:100190009704000800000000000000009704000819
:1001A00000000000000000000000000097040008AC
:1001B00097040008970400089704000897040008B3
:1001C0009704000800F002F800F07AF80AA090E81E
:1001D000000C82448344AAF10107DA4501D100F002
:1001E0006FF8AFF2090EBAE80F0013F0010F18BF55
:1001F000FB1A43F00103184798440100B84401007A
:100200000A444FF0000C10F8013B13F0070408BF3C
:1002100010F8014B1D1108BF10F8015B641E05D0DA
:1002200010F8016B641E01F8016BF9D113F0080F8F
:100230001EBF10F8014BAD1C0C1B09D16D1E58BF21
:1002400001F801CBFAD505E014F8016B01F8016B58
:100250006D1EF9D59142D6D37047000000230024CB
:1002600000250026103A28BF78C1FBD8520728BFC6
:1002700030C148BF0B607047662913F0A885732909
:1002800000F04487002070471FB513F096FD9DE8ED
:10029000030001F0C1FA01F0A2FA040000200021DD
:1002A00012F062FE401C60600020002112F046FE49
:1002B000E06001F081F91FBD10B501F0F5F910BD46
:1002C00001F095FD1146FFF7DFFF0EF06FFF02F022
:1002D0007BF803B4FFF7F0FF03BC09F0E0FA00007D
:1002E00080F309887047EFF309807047684680F310
:1002F000098804480078C00714BF0220032080F357
:1003000014887047F43E0108DFF818C0EFF3058346
:100310001B0618BF6047EFF31483DB0708BF604775
:1003200000DF7047090E0108DFF818C0EFF30583FE
:100330001B0618BF6047EFF31483DB0708BF604755
:1003400000DF704705100108EFF30980816911F89B
:10035000021CC9BB10B590E80F10E047BDE8104083
:10036000EFF3098C204B93E80600914229D081B12C
:100370000CB41EF0100F06BF2CED108A03230123CE
:1003800081F826302CE9F00FC1F82CC011F0DCF90F
:100390000CBC1A60D2F82CC0BCE8F00F92F82630E2
:1003A00013F0020F1ABFBCEC108A6FF0120E6FF040
:1003B000020E8CF3098813F0010F08BF704792F802
:1003C0002500CCF80000704710B5084A1268914229
:1003D00009D8074C54F8214090E80F10A047EFF3DC
:1003E000098C8CE80F0010BD480000204031000847
:1003F0004031000810B510F0F7FFBDE81040194B70
:1004000093E80600914208BF70470CB4EFF3098CE3
:100410001EF0100F06BF2CED108A0223002381F876
:1004200026302CE9F00FC1F82CC011F08DF90CBC6E
:100430001A60D2F82CC0BCE8F00F92F8263013F006
:10044000020F1ABFBCEC108A6FF0120E6FF0020E92
:100450008CF3098813F0010F1CBF92F82530CCF8FB
:10046000003070474800002010B511F04FFAC4E783
:1004700010B50FF06DF811F049FABEE70948804752
:1004800009480047FEE7FEE7FEE7FEE7FEE7FEE776
:10049000FEE7FEE7FEE7FEE704480549054A064B8E
:1004A00070470000A9540008C5010008B853012096
:1004B000B8D50120B8550120B85501200048704733
:1004C0005C520120704700000FB4044910B503AA24
:1004D000029800F01FFE10BC5DF814FB10530120C1
:1004E0002DE9F0410E460446002020622046E168D6
:1004F000884730B3252805D0D4E901219047206AE8
:10050000401CF2E7E168204600278847050018D024
:10051000A5F14100192802D820354FF40067324672
:10052000294620462760FFF7A7FE40B1012804D0E6
:10053000F61D26F007060836D8E7361DD6E728460A
:10054000DAE7206ABDE8F08170B50C460546012A5D
:1005500005D02878800600D5EA69002302E001234F
:1005600005E05B1C934202D2E05C0028F9D1A86947
:10057000E618C01AA861286A184428622846AFF312
:10058000008004E0D5E9012114F8010B9047B44242
:10059000F8D32846AFF3008070BD70B5064600F072
:1005A000F2FA0468054630460A22002100F016FEE1
:1005B0002C6070BD2DE9F041044616460D46476992
:1005C000007B80072ED0384609F076F950BB3EB349
:1005D000012E02D0022E25D104E0204600F053FF68
:1005E00005441DE0384609F05CF9E168002841F057
:1005F0001001E16005DA204600F066FF0120BDE849
:10060000F081C9030BD56268E16A914200D81146B6
:10061000A26911442269891A814200DD0846054415
:10062000002D01DA0220EAE7E16A6068E2688142AF
:1006300006D29103E06203D522F4003141F01002AA
:10064000A6690027AE4213DCE16A814201D90B465C
:1006500000E0034603EB060C2369ACEB030CAC454E
:1006600006DD814201D98C4600E084469C4505D1D7
:10067000A760276042F02000A5620DE0AD1BE6698F
:10068000AE1B8142A66000D90846C01A281A206015
:100690005819606022F0200003490840E060002003
:1006A00084F84870ABE70000BFCFD7FF2DE9F047D3
:1006B00004464FF000094FF0FF37C568D4E90486BF
:1006C000A80707D0204600F033FF304609F0DCF8D9
:1006D000002802DA3846BDE8F087280502D54046F2
:1006E00000F0D3FA4C21204600F0E3F9206D20F011
:1006F000010020654846EEE770B5044600F14C0560
:10070000284609F08DF820460BF0E2F8044628460A
:1007100009F0ACF8204670BD70B505460A4E30466B
:1007200009F07EF805F14C04204609F079F82846D6
:10073000FFF7BCFF0546204609F098F8304609F05F
:1007400095F8284670BD00000C0300202DE9F0410B
:1007500016460F46054600F14C04204609F060F8A5
:10076000324639462846FFF725FF0546204609F060
:100770007DF82846BDE8F0812DE9F0471646884609
:10078000814602F14C07384609F04AF83046FFF737
:100790008DFF18F8010B61280AD0722802D0772843
:1007A0003FD102E00125002405E00225042402E0F7
:1007B000082448F2020518F8010B2B2806D06228FD
:1007C00009D018F8010C74280AD00BE045F0030595
:1007D00044F00204EFE745F0040544F00104EAE7C1
:1007E00044F010044846214609F06EF8411C18D028
:1007F0000021316171604FF40071F560F161706149
:10080000200704D5304602220021FFF7D3FE306DC9
:1008100040F001003065384609F028F83046BDE860
:10082000F0870026F7E72DE9F04115460E4607460A
:10083000204C204608F0F4FF2A4631463846FFF7A0
:100840009BFF0546204609F011F82846BDE8F081D7
:100850002DE9F0410E468046164D284608F0E0FF8F
:10086000154C206DC10704D0410804D020F00104CC
:10087000F7E7224612E0542000F0CCF9070017D029
:10088000206D47F00101084354212065384600F0EF
:1008900010F907F14C0008F0D3FF3A4631464046C4
:1008A000FFF76AFF0446284608F0E0FF2046CDE740
:1008B0000024F8E70C030020BC520120014A00F09C
:1008C0005FBF00001003002040EA0103024630B57C
:1008D0009B0710D14FF0013400E008C208C91D1B6E
:1008E0009D4315EAC41FF8D013F0FF0102F8011B65
:1008F0000DD01B0AF8E711F8013B002B02F8013B71
:1009000005D011F8013B002B02F8013BF3D130BDBB
:100910002DE9F041054690460E460020044600E0D1
:10092000641C44450BD2285D00F0C4F90746305DD5
:1009300000F0C0F9381A02D1295D0029F0D1BDE8D4
:10094000F08110B5431C02E010F8011B71B1810762
:10095000FAD14FF0013202C88C1A8C4314EAC2114A
:10096000F9D0C01A0A0603D0C01E10BDC01A10BDAF
:100970000A0401D0801E10BD0902FCD0401E10BD2B
:10098000032A40F2308010F0030C00F0158011F8BB
:10099000013BBCF1020F624498BF11F801CB00F893
:1009A000013B38BF11F8013BA2F1040298BF00F8E7
:1009B00001CB38BF00F8013B11F0030300F02580A4
:1009C000083AC0F0088051F8043B083A51F804CBCB
:1009D000A0E80810F5E7121D5CBF51F8043B40F891
:1009E000043BAFF30080D20724BF11F8013B11F89C
:1009F00001CB48BF11F8012B24BF00F8013B00F8E0
:100A000001CB48BF00F8012B704710B5203AC0F069
:100A10000B80B1E81850203AA0E81850B1E81850FF
:100A2000A0E81850BFF4F5AF5FEA027C24BFB1E83C
:100A30001850A0E8185044BF18C918C0BDE81040AD
:100A40005FEA827C24BF51F8043B40F8043B08BFB6
:100A50007047D20728BF31F8023B48BF11F8012B7D
:100A600028BF20F8023B48BF00F8012B70474FF029
:100A700000020429C0F0128010F0030C00F01B806B
:100A8000CCF1040CBCF1020F18BF00F8012BA8BF79
:100A900020F8022BA1EB0C0100F00DB85FEAC17C3D
:100AA00024BF00F8012B00F8012B48BF00F8012BF0
:100AB00070474FF0000200B5134694469646203921
:100AC00022BFA0E80C50A0E80C50B1F12001BFF407
:100AD000F7AF090728BFA0E80C5048BF0CC05DF86D
:100AE00004EB890028BF40F8042B08BF704748BFBB
:100AF00020F8022B11F0804F18BF00F8012B70472F
:100B00004FF0013C50F8042B51F8043B9A4221D19C
:100B1000A2EB0C03934313EACC1317D150F8042B28
:100B200051F8043B9A4215D1A2EB0C03934313EA0C
:100B3000CC130BD150F8042B51F8043B9A4209D145
:100B4000A2EB0C03934313EACC13DBD04FF000006D
:100B5000704700BFD01A01BAB1FA81F101F0180153
:100B600022FA01F0CB40C1F12001DBB2C0B2C01AC1
:100B70002CFA01F3D11A914311EAC311E6D170475F
:100B800070477047704708F005BE0B3020F0070033
:100B900070472DE9F04117460E460446FFF7F5FF72
:100BA000A042054633D9002F1CBF06F10C0008F007
:100BB00037FE30467468F4B12168A94217D305F1B5
:100BC000080291423CBF6168416007D362686119C5
:100BD0004A602268521B0A6041602560002F1CBFDA
:100BE00006F10C0008F042FE201DBDE8F081204611
:100BF0006468002CE0D12946304600F0F9FD002859
:100C0000D7D1002F1CBF06F10C0008F02FFE0020EA
:100C1000BDE8F08110B5044600F0DCFD0168204617
:100C2000BDE810400122B4E770B516460D46041F1A
:100C3000002808BF70BD002E1CBF05F10C0008F095
:100C4000EFFD2B465868002818BFA04238BF034666
:100C5000F8D31968CA18A24218BF5C6003D1226891
:100C60001C461144196021680A19824218BF60604D
:100C700004D142686260006808442060002E1CBFF6
:100C800005F10C0008F0F2FD70BD10B5044600F04F
:100C9000A1FD01682046BDE810400122C4E710B55F
:100CA000FFF771FF006810BD10B50446FFF76BFF3A
:100CB000046010BD10B5044600F084FD0068005DBE
:100CC000C00602D504F1200010BD204610BD7047BB
:100CD0002DE9FF4F0C461E464FF0FF378BB0D2E98F
:100CE0000001DDF860800A908A46C1F30A5505B913
:100CF0003D46002108464FF00000BAF1000F00F415
:100D0000400005DA00EB80004FF4400101EA50009A
:100D10004FEA9059B9F1010F00DDB9460A9850EA3F
:100D20004A000ED044F61050A5F2FF3545432F146B
:100D3000B8F1000F1ED07542291E1EDDC9F1000258
:100D40001CE0B8F1010F4FF0000001D0302103E0AA
:100D5000F24305E02154401CB042FBDB3046002248
:100D6000002121540B99C1F80880C1E900200FB07F
:100D7000BDE8F08FBD1B6D1CDEE74A4600DA694214
:100D800006A800F097FE06AB93E8070003AB83E8E4
:100D9000070050460A9901F0C4FD8DE80700A0F550
:100DA00000501F3800900398002D09DD42F21F010A
:100DB0004A46084403A90390684602F04EF808E04A
:100DC000A0F500504A461F3803A90390684602F078
:100DD0006CF88DE807000004000C03D04FF0FF30E2
:100DE000410800E01046B8F1000F03D00022009245
:100DF00015461EE0751E05D400F046FD30326255E2
:100E00006D1EF9D5B3460122084302D000227F1C93
:100E100004E02078302801D100227F1E002A0997A3
:100E200086D01DE0112D07DA00F02EFD303262551C
:100E30006D1C50EA0102F5D1084302D00098C8B1F8
:100E40000EE00021681E05E0235C625C63542254BE
:100E5000401E491C8142F7DBAB46A81B401E09908F
:100E6000002004F80B000B98099AC0F80880C0E92C
:100E7000002B7CE711264FF0000859E72DE9F04FD1
:100E800088460446D21D22F0070191B0D1E9000145
:100E9000CDE90A0107F07AF902460B98C00F01D09C
:100EA0002D2007E02068810701D52B2002E02021BA
:100EB00001EAC000032A099001D0072A05DB034696
:100EC0004146204600F046FD0BE12078800601D522
:100ED000E06900E00620B8F1650F814606D0B8F160
:100EE000660F18D0B8F1670F70D131E00020B9F16A
:100EF000110F009001DB112301E009F101030AAA9F
:100F000001A90CA8FFF7E4FEDDE90C70002609F149
:100F10000105834647E001204B4600904FF0004713
:100F20000AAA01A90CA8FFF7D3FEDDE90DB00C99C0
:100F30005D46002610B909F101000D18B9EB050056
:100F400003D4C0F1FF3609F10105A5EB09002BE040
:100F5000B9F1010F01DA4FF001090020B9F1110FC9
:100F60000090484601DD112300E003460AAA01A9CA
:100F70000CA8FFF7ADFEDDE90C704D460026834658
:100F8000207800070AD4AB4500DA5D4601A8012DA0
:100F900004DD411911F8011C302907D04F4502DA50
:100FA00017F1040F04DA012082460FE06D1EEEE710
:100FB000002F02DCED1B3E4403E0781CA84200DD5C
:100FC0007D1CB81B00F1010A4FF000472078000794
:100FD00003D4AA4501DB4FF0FF3A0021B7F1004FDF
:100FE0000DF143088DF8431024D002202B23002F4D
:100FF00001DA7F422D230A21021EA0F1010000DC4C
:101000005FB197FBF1FC97FBF1F201FB1C7C1746EB
:101010000CF1300C08F801CDEEE7A8F101000370E7
:101020002188090501D5452100E06521A0F10108CD
:1010300000F8011C09980FA9A1EB0807FF1D00B1DA
:101040000120411901EBEA70A1693844081A401ED9
:10105000A0612078C00602D42046AFF30080099832
:1010600028B1D4E901219047206A401C20622078F1
:10107000C00622D52046AFF300801EE0002E04DB20
:10108000B34502DD01A8805D00E03020D4E90121F4
:101090009047206A401C2062761CAAF101005FEA9A
:1010A000000A0AD100F09BFBC0680168405CD4E9EB
:1010B00001219047206A401C2062281EA5F10105ED
:1010C000DCDC07E0D4E9012118F8010B9047206A25
:1010D000401C2062381EA7F10107F3DC2046AFF365
:1010E0000080032011B043E610B5436913B1AFF39C
:1010F000008001E0FFF728FA012010BD127800F10E
:1011000024010A7000224A700122EDE711684FF0B5
:10111000FF32E9E7074B70B50D467B4400F007FC52
:101120000446284600F034FD10B14FF0FF3070BD8A
:10113000204670BD47A800000FB4002300B589B059
:101140000CA900910B99CB60214B7B440693214B5A
:101150007B44079304236FF00042CDE901321E4A1D
:101160007A446B4608920246002012F092FE09B0C3
:101170005DF814FB70B506464FF0FF3015460C467F
:10118000324686B00091CDE9010169460020049005
:1011900004A8FFF7D1FF02460498211825B108B131
:1011A000084600E020462860049800280DD0002A58
:1011B00002DD0098884208D03246081B6946009438
:1011C000CDE9010404A8FFF7B7FF06B070BD000029
:1011D000870800009F080000AF0700002DE9F047D6
:1011E00091460F4680460446002614F8015B2DB157
:1011F00000F0E8FA0068405DC007F6D12B2D02D060
:101200002D2D18D0641E4A463946204600F002FCB7
:1012100027B13968A14201D1C7F800804FF002041C
:1012200071050BD54042002803DDFFF7ACFC0460DC
:10123000A007BDE8F08746F48066E4E70028F8DA06
:10124000FFF7A1FC04606FF00040F2E770B50D46B7
:1012500001461446D36850692A4608F061FB00280D
:1012600007DA411C07D0E16820F0004041F48041DA
:10127000E160281A70BD204600F026F94FF0FF30DB
:1012800070BDC1680022026021F4805141F040012C
:1012900011F4C06FC16001D082607047026941687B
:1012A000891AC269891A816070472DE9F04704469E
:1012B000C06840F48000E060010312D520F40020F3
:1012C000E060810606D4E26A61688A4200D80A4674
:1012D000511A216040F40010E06094F82500BDE848
:1012E000F08720F40010E060800602D5204600F070
:1012F00042F9E06842F281014FF0FF3901400129D3
:1013000003D0204600F0E0F8B6E02168002600296E
:101310000ADAC94340F480502160C4E90260606881
:10132000411C61600078DAE744F2400108420CD0C9
:1013300020F4A04040F040002660E0602169606831
:10134000401AE169401AA06096E0216991B9C00392
:1013500010D4E069FFF75EFC2061B0B1E06840F4B2
:10136000006010F4407FE06002D140F48070E060E3
:1013700020696060E068D4F814A0C1061AD5C003E3
:101380000ED5204600F0D4F814E004F124002061CA
:101390000120E061E06820F4407040F48060E6E7FE
:1013A00021696068401AA1690144504608F0D9FAE1
:1013B0000028A6DBE068C0032AD56168E06A88429D
:1013C00000D808462169451AE069471B1BD0204612
:1013D000D4F8188000F0ACF808EB05015046C4F8CA
:1013E000188008F0BEFA00288BDBE06840F400307B
:1013F000E060000202D5A0692844A061E16920698B
:10140000C91B45180DE0204600F092F8E769F5E7A2
:1014100025696168D4E90607491BE56208446560EF
:10142000A061E06820F0100010F4C06FE06002D00E
:10143000204600F089FCE06840F48050C4E9026076
:10144000000205D52069E06260606FF0010046E7A8
:10145000224639462846FFF7F9FE411C0CD02918D0
:10146000E16258B1401E2060681C6060E06840F492
:101470000030E060287832E7484630E76560204673
:10148000FFF7FFFEF8E710B50146C268900703D0EA
:10149000900607D5886A0AE0FFF775FB0121016015
:1014A000881E10BD8B69486818440B69C01A91F8F2
:1014B00048301BB191F84910401A10BD1103FCD5FA
:1014C0000028FADD401E10BDC16821F4001141F072
:1014D0008001C16000218160016070472DE9F04703
:1014E000814614460E464FF0FF383248D56857699A
:1014F000054209D03846A16908F033FA002811DB0B
:101500002C48C0430540E5602B46324649463846E4
:1015100008F035FAA16920F00042B21A11440028FF
:10152000A16103D02046FFF7CFFF4046BDE8F0871A
:1015300070B504460569C06A6168884200D80846EB
:10154000E16821F42011E160C90312D5A84208D056
:101550002246411B2846FFF7C1FF10B14FF0FF3074
:1015600070BD0020E562C4E90150E06820F48030DD
:10157000E060002070BD10B50446C06820F0200077
:10158000E060A16AA06988420DD02046FFF7D0FF35
:10159000E06820F4405040F01000E060A06AA061D4
:1015A0002069E062606044F24001E0688843E060E6
:1015B00010BD00001000020010B565485421FFF76F
:1015C00078FA64485421FFF774FA63485421FFF70E
:1015D00070FA62485E49624A624B01605D48106081
:1015E0005D4A1A60431C0B65511C016501201065A2
:1015F00057484C3008F024F956484C3008F020F990
:1016000055484C3008F01CF9574808F019F958486B
:101610004F4A56A17844FFF706F920B95448784458
:101620000A3800F0BFFB54484A4A52A17844FFF7F9
:10163000FAF820B9504878440A3800F0B3FB4F4814
:10164000454A4CA17844FFF7EEF820B94B4878445E
:101650000A3800F0A7FB40233D48DC000021224669
:1016600000F0A5FA20B142487844543800F09AFBC3
:10167000384822464023002100F099FA20B13E4824
:101680007844543800F08EFB334822461023002162
:1016900000F08DFA002806D038487844BDE81040A4
:1016A000563800F07FBB10BD2B482DE9F041006D8E
:1016B0002D4E20F00104304608F0B2F8244D4C3590
:1016C000284608F0ADF82248FEF7F0FF284608F05B
:1016D000CDF82846AFF300801E4D4C35284608F063
:1016E0009FF81C48FEF7E2FF284608F0BFF828469E
:1016F000AFF30080184D4C35284608F091F8164895
:10170000FEF7D4FF284608F0B1F82846AFF3008072
:1017100014E0206D20F0010504F14C00074608F0AC
:101720007FF82046FEF7C2FF384608F09FF838469B
:10173000AFF300802046FFF7A8FA2C46002CE8D132
:10174000304608F093F80848AFF30080BDE8F08118
:10175000BC520120105301206453012014030020C7
:10176000180300201C0300200C030020720000005E
:10177000B628010077000000A4280100932801008A
:101780002DE9F04115460E46040002D12C6804B93B
:101790000BA4204600F01DFB0444207870B12746BE
:1017A0003146384600F005FB0444207810B1002093
:1017B00004F8010B38462C60BDE8F0810027F9E7FA
:1017C0000000000010B500F00AF8001D10BD00BFB9
:1017D0009917010010B5FEF771FE083010BD10B565
:1017E000FEF76CFE203010BD7047704770477047A1
:1017F00038B504460A4600206946AFF30080002849
:1018000008BF38BD02460099204600F015FB0120B4
:1018100038BD012000F000BEF8B5AFF300800546EA
:1018200000200C46102000BF0646A819A0420DD982
:10183000324669460020AFF30080070008BF00F081
:10184000EBFD0098A04218BF0546C419FFF7C2FF80
:1018500005600746F01D20F007004619284600F0F5
:101860000AF8B44208BFF8BDA21B31463868BDE88B
:10187000F84000F0E1BA00210160C0E901100C302D
:1018800007F0DEBF1020704730B5B0F10A024FEA12
:10189000900E71F100034EEA817EB0EB0E0061EB19
:1018A00091014FEA101E4EEA017E10EB0E0041EB53
:1018B00011114FEA102E4EEA016E10EB0E0041EBB3
:1018C00011214FEA104E4EEA014E10EB0E0041EB93
:1018D0001141401841F100014FEAD00040EA417047
:1018E0004FEAD10110EB80054FEA810444EA90747D
:1018F00044EB01046D1944EB0404521BA3414FF067
:10190000000348BF0A3200D530BD401C41F1000140
:1019100030BD10B50446FFF755FF0068005D00F0CC
:10192000010010BD01694A1C02610878704700B5CA
:101930008FB0CDE901310021059105497944CDE908
:10194000031011466846FEF7CBFD0FB000BD000046
:10195000E5FFFFFF2DE9F0411F460446032601681D
:10196000072A01F4006004DB08B116A505E016A5FE
:1019700003E008B115A500E015A521F010002060D6
:10198000A069C01EA0610FB1401EA0612046AFF348
:1019900000804FB1D4E9012138469047206A401CAD
:1019A0002062C01C206206E0206AFAE7D4E9012127
:1019B00015F8010B9047761EF8D22046AFF3008051
:1019C000BDE8F0814E414E006E616E00494E46000A
:1019D000696E6600426842B1016811F8013B23B1AB
:1019E000521EC0E90012184670470121C160881ECE
:1019F000704742685AB1C368016843B983688B4233
:101A000005D0491E521CC0E90012002070474FF05B
:101A1000FF3070472DE9F05F824615468B46002760
:101A20000AF10104B9460078302801D09DB113E0D5
:101A300014F8010B0127782803D0582801D045B1AC
:101A40000AE00DB1102D07D1002714F8010B102565
:101A500002E0082500E00A250026B0460EE005FB5E
:101A6000080005FB06F101271FFA80F801EB10467C
:101A7000B6F5803F00D3B94614F8010B294600F0B3
:101A8000FAF90028EBDABBF1000F05D00FB1641EA4
:101A900000E05446CBF80040B9F1000F06D0FFF744
:101AA00072F802210160C81EBDE8F09F48EA0640B6
:101AB000FAE700002DE9F047814616468AB0334820
:101AC00078440DC88DE80D0030487844801C03AC84
:101AD0000DC884E80D0041F69B300844372190FB87
:101AE000F1F290FBF1F5A5F1800501FB12041B3C1E
:101AF00002D56442012000E00020DFF890A080467B
:101B00000027FA44AAF1BE0A0DE0E00709D03246E8
:101B1000684607EB47010AEB810101F0C6F98DE841
:101B2000070064107F1C002CEFD1184F7F44AC3F9E
:101B300018E0E80714D007EB04100DF1180A90E83C
:101B40000E008AE80E00C068F04201D19819089092
:101B5000324606A903A801F0A8F903AB83E8070001
:101B60006D10641C002DE4D132466946B8F1000FB7
:101B700003A802D001F071F901E001F096F9C9E97A
:101B80000001C9F808200AB0BDE8F087982A0100D2
:101B900070B5044600F14C05284607F041FE207B55
:101BA00000F08004284607F061FE204670BD2DE954
:101BB000F04704461E4690460D46C7684C308146A5
:101BC00007F02EFEB80714D0780212D44046B8F5BC
:101BD000807F09D0B0F5007F06D0B8F5806F08D1BE
:101BE000012604F1240506E0701E6FF07F41884253
:101BF00001D3012409E02561E6616560E06820F415
:101C0000706040EA0800E0600024484607F02EFEBD
:101C10002046BDE8F0872DE9FF4F06461C468B465F
:101C200081B003F14C00009007F0FAFDBBF1000F0A
:101C300006D003992768002528460BFB01F963E0CD
:101C400000247AE0002F61DCE06948453FDABAF110
:101C5000000F3CD0207B800601D5A06A04E0A1697A
:101C6000606808442169401A2246A9EB05018046B4
:101C70003046FFF7EBFA002812DD8044A8F101019D
:101C80000644A161226916F8011C00270544117061
:101C90002169491CE1626160E16841F40031E16061
:101CA000411C03D010B1207B400642D52046FFF7EF
:101CB000E8FAC4F8188020696060E062E068276094
:101CC00020F40030E060E0694042A06018E0484540
:101CD00003DAE06840F40000E0602046FFF7E5FA30
:101CE000E16821F40001E160411C08D0811C0AD0A8
:101CF0002768002807DB6D1C06F8010B19E0276038
:101D0000B5FBFBF419E00120824612E0A9EB0500C7
:101D1000B846B84200DA8046304642466168FEF76F
:101D20002FFE6168A7EB0807464401EB0800454415
:101D300060604D4586DB2760039C009807F096FDA8
:101D400005B02046BDE8F08F2DE9F047074613485F
:101D5000814607F065FD124C40F2022817E094F826
:101D60005000C00710D0BC420ED004F14C052846EC
:101D700007F056FDE668284607F078FD38EA0600C9
:101D800002D1204600F0D8FA206D20F00104002C8A
:101D9000E5D1484607F06AFDBDE8F0870C03002056
:101DA000BC52012010B500F01DFBBDE8104000F052
:101DB00014BB30B503461D781DB10A4603E0AC42A2
:101DC00001D1181A30BD12F8014B002CF7D15B1C61
:101DD000F1E730B503461D783DB10A4612F8014BD4
:101DE0001CB1AC42FAD15B1CF5E7181A30BD754640
:101DF000FEF764FBAE4605006946534620F0070037
:101E0000854618B020B5FEF747FBBDE820404FF0EF
:101E100000064FF000074FF000084FF0000B21F0D4
:101E20000701AC46ACE8C009ACE8C009ACE8C009A1
:101E3000ACE8C0098D46704730B404468C46436810
:101E4000002B18BF634538BF1846F8D30368184401
:101E5000604507D0C81C20F0070000F1040CACEB73
:101E60000100121A2146CCF8002030BC00220CF1EF
:101E70000400FEF7D9BE3A2800D2303820F0200204
:101E8000412A01D3A2F13700884201D34FF0FF303D
:101E9000704700002DE9FF4F064689B00878FF28FB
:101EA00006D0491C2D2805D000244FF0000908E079
:101EB00000200CE00124F8E709EB8903491C00EB42
:101EC00043090878FF28F7D114B1C9F10000814611
:101ED000107800252C46AA4629462D2801D02B280B
:101EE00004D1521C2D2813D0002082468B46107836
:101EF000FF280FD04FF0000C0A21521CA5FB0178DF
:101F000004FB018105FB0C11C5194BEB0104EEE745
:101F10000120EAE7002108464FF00000BAF1000F67
:101F200002D000EB80004008C0F38158B8F1010FE7
:101F300001DD4FF0FF380C9809EB000755EA04006B
:101F400009D04FF0020917F5FA7F0BDA4FEACA7091
:101F5000C6E900B012E04FEACA70C6E900B00DB0A1
:101F6000BDE8F08FB7F5FA7F0DDDF0487844D0E991
:101F70000010C6E9001040EACA707060FEF703FE68
:101F8000C0F80090EBE7391E02DAC8F1000200E069
:101F9000424600DA794206A8FFF78CFD06AB93E8CB
:101FA000070003AB83E8070044F23E005BEA04014C
:101FB0000090584604D144F21E012C465D46009123
:101FC000210C0904014306D10099240444EA154474
:101FD0002D041039009104F07F41014306D100998E
:101FE000240244EA15642D020839009104F070417E
:101FF000014306D10099240144EA15742D01091FFB
:10200000009104F04041014306D10099A40044EA44
:102010009574AD00891E009104F00041084304D17D
:1020200000986D196441401E009042466846002F9A
:10203000CDE9014503A902DD00F04BFF01E000F00E
:1020400020FFBAF1000F04460D4601D084F0004491
:1020500040F2FF7724F00040284303D0C4F30A5035
:10206000B84212D1FEF78FFDC0F80090C4F30A50B9
:10207000B8420AD1AE487844D0E90010C6E9001051
:1020800004F000410843706069E7C6E9005466E760
:102090002DE9FF4F1F464FF0000A4FF0FF3845462D
:1020A00091B0D7E90146CDF83CA0FFF798FBC06896
:1020B0000168405C1090B96912986D1C8847396AB4
:1020C000814688470028F6D1B9F1FF3F0AD0002E9B
:1020D00024F4D06411DDB9F12B0F08D0B9F12D0F24
:1020E0000BD102E0404615B03AE744F48064B96988
:1020F00012986D1C8847761E8146600504A901D59B
:102100002D2000E02B20002E01F1010B0DF13008F5
:102110008DF810003FDDB9F1690F08D0B9F1490F12
:1021200005D0B9F16E0F02D0B9F14E0F1CD13B466C
:1021300001A8009580E85002DDE912126FF002005C
:1021400011F0ABFEC11CCED10EE0B96912986D1C26
:10215000884781461398761E44F4007405600F98F2
:10216000401C002E0F9016DDB9F1300FEDD0B9F103
:10217000780F02D0B9F1580F0DD10F9801280AD16C
:102180003B46CDE90054DDE91212001F029611F022
:1021900082FEC11CA7D1109989453ED144F080042C
:1021A00006E01399681CAAF1010A44F4007408605F
:1021B000B9696D1C1298761E884730288146F0D088
:1021C0002BE01099894505D1200603D4761E44F0F2
:1021D000800418E0484607F01BFB08B3761E0DF19B
:1021E00023018B4544F4007408D2A9F130000BF8A8
:1021F000010B200607D5AAF1010003E0200602D456
:102200000AF101008246A00502D51399681C0860F6
:10221000B96912986D1C88478146002ED1DC53E0C5
:10222000002E51DDB9F1650F02D0B9F1450F4BD148
:10223000A00549D5B9696D1C1298761E24F4407426
:102240008847002E81460CDD2B2804D0B9F12D0FD4
:1022500007D144F48074B96912986D1C8847761EC2
:102260008146E00501D52D2100E02B2108F8011B56
:10227000CDF8008021E0761E0DF13901884544F447
:1022800000740CD2A9F1300010F0FF0088F80000B3
:1022900002D10099884509D908F1010806E0E00556
:1022A00001D5244801E042F20F708246B9691298C4
:1022B0006D1C8847814613980560002E04DD484652
:1022C00007F0A6FA0028D6D1F96912988847FF20AE
:1022D00053468BF8000088F8000000200A900B900D
:1022E00004AA0CA90AA8FFF7D5FDA00502D46FF037
:1022F0000100F8E614F0240F0AD0E00714D1386882
:10230000DDE90A12031D3B600068C0E900120BE022
:102310000AA9684607F0A4F8E00705D13868009AD2
:10232000011D3960006802602846DCE64027010094
:1023300036260100F1D8FFFF2DE9F041044600F1F7
:102340004C07384607F06CFAE068810712D0800627
:1023500001D5A66A04E0A169606808442169461AAB
:102360002046FFF7E5F80022054631462046FEF7F5
:1023700021F900E00025384607F078FA2846BDE844
:10238000F0812DE9F04118B1BDE8F041FFF7D4BF6D
:102390000B4E0025304607F043FA0A4C6F1E07E04B
:1023A0002046FFF7C9FF00B13D46206D20F0010433
:1023B000002CF5D1304607F059FA2846DFE7000037
:1023C0000C030020BC52012010B50446AFF300807E
:1023D0002046BDE81040FDF77CBF002801D007F083
:1023E0005EBA704710B5014602A000F01CF801204B
:1023F00010BD000053494752545245443A2052659B
:102400006469726563743A2063616E2774206F702B
:10241000656E3A200000000010B500F01DF8BDE820
:102420001040FFF7DABF70B505460C460A2000E001
:102430006D1C07F0C5FA35B128780028F8D102E004
:10244000641C07F0BDFA14B120780028F8D1BDE86B
:1024500070400A2007F0B4BA10B5012805D0002159
:1024600003A0FFF7E0FF012010BD09A1F8E700007D
:1024700053494752544D454D3A204F7574206F666D
:102480002068656170206D656D6F727900000000D5
:102490003A2048656170206D656D6F727920636FB9
:1024A00072727570746564002DE9FF4F1F464FF01E
:1024B0003C0987B04FF00042DDE9141001F101083A
:1024C000DDF858A002EA40500390002005908346B2
:1024D000054604460490B969461E08988847AAF143
:1024E000010A0290BAF1000F3BDD02982E2815D0A8
:1024F0001021FFF7C0FC00282EDB4FF0010B0599DF
:10250000014317D0B9F1000F0BDB4A46C11700F0A9
:10251000F5F905430C43A9F1040905E001200490F5
:102520000BE008B145F0010501200590049820B9A1
:10253000361D02E0049800B1361FB969089808F109
:1025400001088847BBF1000FAAF1010A0290C9D027
:102550000999C1F80080C5E70298702808D0502872
:1025600006D0F96908988847BBF1000F14D04FE0F6
:10257000002002900120BBF1000F049009D0B9693E
:10258000089808F101088847AAF10109B9F1000F7C
:1025900007DCF969089888476FF001000BB0BDE8C7
:1025A000F08F2B2804D02D280CD14FF0FF30049051
:1025B000B969089808F101088847A9F10109B9F13A
:1025C000000FE6DD411CE4D00A21FFF754FC00288F
:1025D000DFDB029908F1010801EB810100EB41000A
:1025E0000290B969089888470A21FFF744FC099AC4
:1025F000A9F10109B9F1000FC2F8008001DD00283E
:10260000E7DAF969089888470499029800FB01669F
:1026100055EA040004D004F04041090002D006E06D
:10262000039898E0A40044EA9574AD00B61E04F047
:102630000041080002D16D196441761E159810F012
:10264000240F03D04FF00B095C4803E04FF028093A
:102650006FF07D008246564507DAAAEB06018944F1
:10266000B9F1410F01DD4FF0410901200021A9F12D
:10267000010200F043F9024628400B46214008437E
:1026800001D0012100E00021501E029143F1FF31F1
:1026900028402140084301D0012000E00020029999
:1026A000834651EA0B014FD0002108464FF000004D
:1026B000039900F4400039B100EB80004FF4400171
:1026C00000EBD07001EA60008015012802DD4FF0B8
:1026D000FF3000E013D0401C36D0029860B3BBF14D
:1026E000000F0CD14A460120002100F007F92840D4
:1026F0002140084301D0012000E00020E0B101208A
:102700004A46002100F0FAF8034640190A466141A2
:102710002D1A8C4111D3B9F1400F09DD159810F035
:10272000240F02D0AAF1340603E0AAF1170600E054
:10273000761C00254FF0004406E05B1E42F1FF329C
:1027400020EA030521EA0204CAF10100B04206DAD8
:102750001B49039808430190002000900EE0039A63
:10276000C4F3D321E80A0A43164940EA44500A4315
:102770003146CDE90002684606F0CEFE159810F00D
:10278000240F0BD01598C00715D13868DDE9001269
:10279000031D3B600068C0E900120CE002A8694616
:1027A00006F05EFE1598C00705D13868029A011D33
:1027B0003960006802604046F0E6000002FCFFFF5E
:1027C0000000F07F0000F03F2DE9FF4F92461D46CC
:1027D00085B04FF00041DDE9124BDDE914727F1E38
:1027E00001EA4B50414940F0FF4940EA010800210D
:1027F00022F020004928049102D04E2828D04CE035
:102800003BA0012607C88DE80700A9690698641C4B
:1028100088477F1E014606D41DF8060018B121F036
:10282000200181420BD0E96906988847032E34D0F5
:10283000082E32D06FF0010009B0BDE8F08F761C91
:10284000032E01D0082EE0D1601CCAF80000DCE79E
:10285000A9690698641C88477F1E2AD420F02000AE
:10286000412826D1A9690698641C88477F1E20D478
:1028700020F020004E281CD1A9690698641C8847C6
:102880007F1E48F4002849F48009CAF8004001D4AA
:10289000282806D0E969069888475FEACB7012D0ED
:1028A00022E0A9690698641C88477F1E01D400288D
:1028B00003DAE96906988847BCE72928F1D1641C46
:1028C000CAF80040E9E71BF0240F07D028680499F4
:1028D000031D2B600068C0E9001805E02868021D90
:1028E0002A600068C0F800902046A5E70000F07F4D
:1028F000494E46494E49545900000000B2F12003A8
:102900000AD5C2F1200301FA02F120FA03F300FA1A
:1029100002F041EA0301704700FA03F14FF00000B2
:1029200070475FEA400C08BF91F0000F4FEA8C231C
:102930004FEAC12243EA51514FEA1C5018BF00F53B
:10294000F0404FEA300018BF41F000415FEA6C5C94
:1029500000F02980BCF1FF3F08BF40F08040704785
:10296000130C06BF12044FF0100C4FF0000C130EA6
:1029700004BF12020CF1080C130F04BF12010CF17A
:10298000040C930F04BF92000CF1020CD30F04BF90
:1029900052000CF1010C11464FF00002A0F11F0093
:1029A000A0EB0C00704711F0004F08BF704731F0EA
:1029B00000413FF4D5AF0B0C06BF09044FF0100CDB
:1029C0004FF0000C0B0E04BF09020CF1080C0B0FAA
:1029D00004BF09010CF1040C8B0F04BF89000CF13A
:1029E000020CCB0F04BF49000CF1010CCCF1200309
:1029F000A0EB0C0022FA03F302FA0CF241EA030105
:102A000000F10100704720F07F4C80EA030023F0C2
:102A10007F47ACEB070303F57C5300F0004003F164
:102A2000FF032DE980494FEA154B09B44FEA1443DF
:102A300025EA0B4E24EA03480FF2042606EB13277F
:102A400049083E785FEA320203FB0667C7F50007D4
:102A500007FB06F64FEA54374FEAD64606F1020660
:102A600007FB066CCCF1005C4FEA1C472CEA074CD4
:102A700007FB06F40CFB06F504EB15464FEA961629
:102A800034BF00204FF000404FEAD13706FB07FC6F
:102A90004FEA1C4C0CFB0BF7D21B03FB0CF761EB52
:102AA00007010CFB0EF7B0EB074072EB17420CFB73
:102AB00008F734BFA2EB0742B2EB074261EB1741C4
:102AC0004FEA0C444FEA910706FB07FC4FEA1C4C07
:102AD0000CFB0BF7B0EBC74072EB573203FB0CF764
:102AE00034BFA2EBC742B2EBC74261EB57310CFBDC
:102AF0000EF7B0EBC70072EB57720CFB08F734BF50
:102B0000A2EBC702B2EBC70261EB5771039F4FEA1A
:102B1000816141EA921104EBCC044FEAD1374FEACC
:102B2000826206FB07FC42EA90124FEA80604FEA9D
:102B30001C4C0CFB0BF7D21B03FB0CF761EB0701E2
:102B40000CFB0EF7B0EB074072EB17420CFB08F7DB
:102B500034BFA2EB0742B2EB074261EB17414FEAE9
:102B60008C554FEA910704EB9C2406FB07FC4FEAC7
:102B70001C4C0CFB0BF7B0EBC74072EB573203FB5E
:102B80000CF734BFA2EBC742B2EBC74261EB57313F
:102B90000CFB0EF7B0EBC70072EB57720CFB08F79B
:102BA00034BFA2EBC702B2EBC70261EB577115EB62
:102BB0004C254FEA816141EA92114FEA82624FEA65
:102BC000D13742EA901206FB07FC44F100044FEAB9
:102BD00080604FEA1C4C0CFB0BF7D21B03FB0CF77D
:102BE00061EB07010CFB0EF7B0EB074072EB1742ED
:102BF0000CFB08F734BFA2EB0742B2EB074261EBD4
:102C0000174115EB1C154FEA813141EA92414FEA19
:102C1000823242EA90424FEA80304FEA0C7644F129
:102C2000000448EA03434EEA0B484FF0000EB2EBB3
:102C3000080C71EB030724BF624639464EEB0E0EBB
:102C40004FF0000B0018524149414BEB0B0BB2EB1C
:102C5000080C71EB03077BF1000B24BF6246394679
:102C60004EEB0E0E4FF0000B0018524149414BEB5A
:102C70000B0BB2EB080C71EB03077BF1000B24BFCD
:102C8000624639464EEB0E0E51EA020718BF46F077
:102C9000010616EB0E7655F1000254F1000103D542
:102CA000BDE88901BDE80088BDE88901BDE80048AC
:102CB000B619524141EB0101A3F101037047808035
:102CC0007F7E7D7C7B7A7978777676757473727186
:102CD00071706F6E6E6D6C6C6B6A6A69686867663E
:102CE00066656464636362616160605F5F5E5E5DD0
:102CF0005D5C5C5B5B5A5A59595858575756565544
:102D000055555454535352525251515050504F4FA5
:102D10004F4E4E4D4D4D4C4C4C4B4B4B4A4A4A49F5
:102D20004949484848474747474646464545454438
:102D300044444443434343424242424141410000F0
:102D400046EA0646A3F570534FEA164646EA42564F
:102D50004FEAD22242EA415210B54FEAD121A3F103
:102D6000010300F017F820F0004000F1010C00F022
:102D7000004701EB00501146BCF5006F40EA070028
:102D800000D210BD02484FF0000140EA070010BD1C
:102D90000000F07F002B26D4770021D01CB54FEA2D
:102DA000370703B44FF010004FF010014FF0000050
:102DB0000FBCBDE810400BF1010BBBF1010F08BFC8
:102DC0005FEA170722BF12F1010211F101014FF072
:102DD000004143F1000300F0004043EA0000704767
:102DE000F9D35708DAE746EA064613F1400F4FEAEF
:102DF00016461FDD13F1200FDFBF16430A460021E0
:102E000020335B42C8D0C3F1200746EA064602FAE7
:102E100007F74FEA164646EA0706C3F1200722FAEB
:102E200003F201FA07F721FA03F14FF0000342EA37
:102E30000702B1E746EA020646EA06464FEA1646A8
:102E400046EA0106BCBF46EA0646360C4FF00003D0
:102E50004FF000024FF000019EE72DE9C048934675
:102E600030B491E8380007C831EA400C48BF34EA72
:102E7000430C03D5FFF7C7FDFFF78CFFF0BCBDE89F
:102E800000882DE9C048934630B491E8380007C85F
:102E900031EA400C48BF34EA430C03D5FFF7B3FDD9
:102EA000FFF74EFFF0BCBDE800882DE9C04893460F
:102EB00030B491E8380007C810F0804F08BF13F015
:102EC000804F03D100F019F8FFF764FFF0BCBDE8B4
:102ED00000882DE9C048934630B491E8380007C80F
:102EE00010F0804F08BF13F0804F03D100F005F8B9
:102EF000FFF726FFF0BCBDE8008820F07F4780EA9E
:102F0000030023F07F4C07EB0C03A3F57C5300F088
:102F10000040A3F1FE0392F0000F00F0B38095F0A3
:102F2000000F00F077802DE901494FEA11404FEA88
:102F3000144621EA004800FB06FC24EA064708FB89
:102F400006F607FB08F800FB07F718EB06484CEB02
:102F5000164C4FEA124B18EB07484FEA15464CEB5C
:102F6000174022EA0B4E0BFB06FC25EA06470EFB38
:102F700006F607FB0EFE0BFB07F71EEB064E4CEBAF
:102F8000164C4FF000061EEB074E4CEB174B18EBA0
:102F90000B0840F1000018EB0E0B58EB000840F155
:102FA00000008F1A4FF000013CBFC943661B14BFDD
:102FB000B5EB040C00213CBFC943F61B4FEA174494
:102FC0004EEA8E0E27EA04454FEA1C4704FB0762CF
:102FD0002CEA074C05FB07F70CFB05F604FB0CFC81
:102FE00016EB074642EB174216EB0C4642EB1C422F
:102FF0001BEB060658EB0202414146EA9E0601D54C
:10300000BDE80189B619524141EB0101A3F1010369
:10301000BDE801894FEA14454FEA114724EA054605
:1030200021EA074C05FB07F406FB07F70CFB06F14A
:1030300005FB0CFC11EB074144EB17444FEA124728
:1030400011EB0C4144EB1C4422EA074C05FB07F250
:1030500006FB07F70CFB06F605FB0CFC16EB074618
:1030600042EB174216EB0C4642EB1C456A1854F132
:10307000000148BF7047B619524141EB0101A3F16D
:103080000103704795F0000F37D04FEA11424FEA25
:10309000144721EA024624EA074C02FB07F106FB2B
:1030A00007F70CFB06F402FB0CFC14EB074441EBA6
:1030B00017414FEA154714EB0C4441EB1C4125EA3C
:1030C000074C02FB07F506FB07F70CFB06F602FBB5
:1030D0000CFC16EB074645EB174516EB0C4645EB8B
:1030E0001C42121951F1000148BF7047B6195241F4
:1030F00041EB0101A3F1010370474FEA14454FEA88
:10310000114724EA054621EA074C05FB07F106FBB7
:1031100007F70CFB06F24FF0000605FB0CFC12EB68
:10312000074241EB174112EB0C4251EB1C4148BFE7
:103130007047921841EB0101A3F1010370470000B1
:10314000000000000FE0002007F014F84FF47A7040
:10315000DFF814C000DF012007F00CF84FF47A709C
:10316000DFF804C000DFEEE79D0F01080023124ADC
:103170004FF001111148DFF848C000DF1149086025
:103180000023114A4FF004111048DFF834C000DF6B
:103190000F49086009F04CFC0BF0C2FE09F0CAF9B7
:1031A00009F0EEFE0BF02AFD04E04FF47A70DFF830
:1031B00024C000DFF9E700002005002045310008A9
:1031C0009D1901080000002020060020D9310008C8
:1031D000040000209D0F010806F04EFC00BFFEE732
:1031E00000BFFEE77047C0EBC002D2000C23B2FB69
:1031F000F3F100BF0A1EA1F10101FBD170470000ED
:1032000070B504460D4616460DB1002070BD084845
:10321000005D08B90120F9E720460FF0A1F900216F
:1032200020460FF06DFB012800D1EFE70020EDE70D
:103230007401002070B504460D462A462146002040
:10324000FFF7DEFF70BD70B504460D462A462146E5
:103250000120FFF7D5FF70BDF8B502460B460025EB
:10326000002400200021D7E0012606FA01F51E689F
:1032700006EA0504AC4273D15E68022E02D05E6895
:10328000122E13D1CF0802F1200656F827004E0760
:10329000F70E0F26BE40B0434F07FF0E1E69BE401B
:1032A0003043CF0802F1200646F8270010684F008F
:1032B0000326BE40B0431E7906F003064F00BE4011
:1032C000304310605E68012E08D05E68022E05D083
:1032D0005E68112E02D05E68122E13D190684F00E6
:1032E0000326BE40B0434F00DE68BE4030439060CE
:1032F000506801268E40B0431E79C6F300168E40FA
:1033000030435060D0684F000326BE40B0434F00AA
:103310009E68BE403043D0605E6806F08056B6F1CD
:10332000805F78D100BF002600963D4E366846F497
:1033300080463B4F3E603E46366806F48046009627
:1033400000BF00BF374E8F0856F827008E07370F93
:103350000F26BE40B043344EB24202D100261FE0D9
:1033600059E0324EB24201D1012619E0304EB2424C
:1033700001D1022614E02F4EB24201D103260FE004
:103380002D4EB24201D104260AE02C4EB24201D1A8
:10339000052605E02A4EB24201D1062600E00826A5
:1033A0008F073F0FBE4030431E4E8F0846F8270060
:1033B000244E3068A0435E6806F48036B6F5803F40
:1033C00000D120431F4E3060361D3068A0435E6838
:1033D00006F40036B6F5003F00D12043194E361DE5
:1033E0003060361D3068A0435E6806F48016B6F57E
:1033F000801F00D12043134E08363060361D3068E0
:10340000A0435E6806F40016B6F5001F00D1204305
:103410000C4E0C363060491C1029FFF425AFF8BD66
:1034200044380240083801400000024000040240D5
:1034300000080240000C024000100240001402404C
:1034400000180240003C0140024613690B400BB1DA
:10345000012000E0002070470AB1816101E00B0407
:103460008361704701480068704700002C0000200D
:1034700010B50D48006840F400700B49086008461C
:10348000006840F4806008600846006840F480707E
:103490000860032000F068F80F2000F007F800F043
:1034A00017F8002010BD0000003C024070B5044633
:1034B00000F092F94FF47A71B0FBF1F5284600F074
:1034C0000BFE00222146501E00F010F8002070BDB7
:1034D000704700BF00F01F02012191404209920095
:1034E00002F1E022C2F8001100BF70472DE9F05F41
:1034F00080460D461646002701F00EFA074639466B
:103500002A46334601F00700C0F1070ABAF1040F5A
:1035100002D94FF0040A01E0C0F1070AD14600F1D8
:10352000040ABAF1070F02D24FF0000A01E0A0F13D
:10353000030AD4464FF0010A0AFA09FAAAF1010A6D
:103540000AEA020A0AFA0CFA4FF0010B0BFA0CFB1A
:10355000ABF1010B0BEA030B4AEA0B042146404690
:1035600001F0E2F9BDE8F09F00BF00F00702064B52
:1035700019684FF6FF031940044B0B4343EA02213D
:10358000014B196000BF70470CED00E00000FA0528
:1035900038B5002400BF002000902348006840F0A8
:1035A0008050214908600846006800F08050009073
:1035B00000BF00BF0120010491FAA1F1B1FA81F12D
:1035C0001A4A42F82100FFF74DFF044607E0FFF7D3
:1035D00049FF001BB0F57A7F01D9032038BD14489C
:1035E000406800F48030B0F5803FF0D10120410404
:1035F00091FAA1F1B1FA81F10C4A42F82100FFF7EA
:1036000031FF044607E0FFF72DFF001BB0F57A7F7E
:1036100001D90320E2E70648406800F40030B0F525
:10362000003FF0D10020D9E74038024000000E42B0
:103630000070004070B504460D46002664480068DE
:1036400000F00F00A84209D261490D7008460068D9
:1036500000F00F00A84201D0012070BD207800F0DA
:103660000200022807D15B48006820F0F000A16842
:10367000084358490860207800F00100002877D0FE
:103680006068012807D1534808380068C0F34040FB
:10369000B8B90120E1E76068022802D06068032819
:1036A00007D14C4808380068C0F3406048B9012091
:1036B000D3E7484808380068C0F3400008B9012043
:1036C000CBE74448006820F00300616808434149A3
:1036D0000860FFF7C7FE06466068012810D108E0C1
:1036E000FFF7C0FE801B41F28831884201D90320D8
:1036F000B3E73848006800F00C000428F0D137E048
:103700006068022810D108E0FFF7ACFE801B41F290
:103710008831884201D903209FE72E48006800F0D5
:103720000C000828F0D123E06068032810D108E0DD
:10373000FFF798FE801B41F28831884201D90320AF
:103740008BE72448006800F00C000328F0D10FE05C
:1037500008E0FFF787FE801B41F28831884201D9DB
:1037600003207AE71B48006800F00C000028F0D125
:103770001748006800F00F00A84209D914490D70DD
:103780000846006800F00F00A84201D0012064E75D
:10379000207800F00400042807D10E48006820F4C7
:1037A000E050E16808430B490860207800F0080009
:1037B000082808D10748006820F46040216940EAE1
:1037C000C100044908600F20FFF770FE002044E7A5
:1037D000003C02400838024010B500F045F80949A5
:1037E000096801F0F001F02292FAA2F2B2FA82F234
:1037F000D140054A515CC840044908600846006849
:1038000010BD000008380240343F010808000020C5
:1038100010B5FFF7E1FF0749096801F4E0514FF4E3
:10382000E05292FAA2F2B2FA82F2D140024A515C1C
:10383000C84010BD08380240343F010810B5FFF7FA
:10384000CBFF0749096801F460414FF4604292FAE6
:10385000A2F2B2FA82F2D140024A515CC84010BDD5
:1038600008380240343F0108F0B50021002200234F
:1038700000240020464D2D6805F00C0535B1042DBF
:1038800006D0082D06D00C2D7ED140E041487DE0C9
:1038900041487BE03E4D2D1F2D6805F03F013C4D1A
:1038A0002D1F2D6805F4800585B13B4DB5FBF1F664
:1038B000374D2D1F2D6847F6C0773D4097FAA7F783
:1038C000B7FA87F7FD4006FB05F20FE0314DB5FB77
:1038D000F1F62F4D2D1F2D6847F6C0773D4097FA22
:1038E000A7F7B7FA87F7FD4006FB05F2284D2D1F15
:1038F0002D6805F440354FF4403696FAA6F6B6FA30
:1039000086F6F5406D1C6B00B2FBF3F03EE0204DF7
:103910002D1F2D6805F03F011D4D2D1F2D6805F44D
:10392000800585B11C4DB5FBF1F6194D2D1F2D6895
:1039300047F6C0773D4097FAA7F7B7FA87F7FD40FB
:1039400006FB05F20FE0134DB5FBF1F6104D2D1FF0
:103950002D6847F6C0773D4097FAA7F7B7FA87F783
:10396000FD4006FB05F20A4D2D1F2D6805F0E045D0
:103970004FF0E04696FAA6F6B6FA86F625FA06F471
:10398000B2FBF4F002E0FFE7024800BF00BFF0BD69
:10399000083802400024F40000127A0038B50446CA
:1039A0000025207800F0010000286ED0FA48006859
:1039B00000F00C0004281BD0F748006800F00C0051
:1039C000082807D1F448001F006800F48000B0F513
:1039D000800F0DD0F048006800F00C000C2813D1C7
:1039E000ED48001F006800F48000B0F5800F0BD197
:1039F000E94808380068C0F34040002845D06068B6
:103A0000002842D1012038BD0020E349891F0870F9
:103A1000FFF728FD054606E0FFF724FD401B64285C
:103A200001D90320EFE7DC4808380068C0F34040C4
:103A30000028F1D12079D849891F0870606890B1B9
:103A4000FFF710FD054606E0FFF70CFD401B64285C
:103A500001D90320D7E7D04808380068C0F34040B8
:103A60000028F1D011E0FFF7FDFC054606E0FFF766
:103A7000F9FC401B642801D90320C4E7C648083874
:103A80000068C0F340400028F1D1207800F0020027
:103A9000022875D1C048006800F00C00B8B1BE48DB
:103AA000006800F00C00082805D1BB48001F006822
:103AB00000F4800058B1B848006800F00C000C28F1
:103AC00021D1B548001F006800F48000D8B9B24881
:103AD00008380068C0F3400020B1E068012801D038
:103AE000012090E7AC480838006820F0F800F82280
:103AF00092FAA2F2B2FA82F2216991400843A649F1
:103B0000083908603CE0E06828B30120A349086058
:103B1000FFF7A8FC054606E0FFF7A4FC401B0228BF
:103B200001D903206FE79C4808380068C0F34000C3
:103B30000028F1D098480838006820F0F800F822F2
:103B400092FAA2F2B2FA82F22169914008439249B4
:103B50000839086014E0002090490860FFF782FCF3
:103B6000054606E0FFF77EFC401B022801D9032032
:103B700049E7894808380068C0F340000028F1D1BF
:103B8000207800F0080008282CD16069A8B1012035
:103B900083490860FFF766FC054606E0FFF762FC14
:103BA000401B022801D903202DE77B486C300068B8
:103BB000C0F340000028F1D014E0002078490860EC
:103BC000FFF750FC054606E0FFF74CFC401B0228BF
:103BD00001D9032017E770486C300068C0F340003B
:103BE0000028F1D1207800F0040004286FD100BF34
:103BF0000020009068483830006840F080506649E6
:103C0000383108600846006800F08050009000BF1E
:103C100000BF6448006840F4807062490860FFF7A4
:103C200021FC054606E0FFF71DFC401B022801D9D8
:103C30000320E8E65B48006800F480700028F2D0BA
:103C40000020554968310870FFF70CFC054608E074
:103C5000FFF708FC401B41F28831884201D903205C
:103C6000D1E64D4868300068C0F340000028EFD12D
:103C7000207A494968310870A068A0B1FFF7F2FBCB
:103C8000054608E0FFF7EEFB401B41F28831884211
:103C900001D90320B7E6404868300068C0F340000F
:103CA0000028EFD013E0FFF7DDFB054608E0FFF743
:103CB000D9FB401B41F28831884201D90320A2E69A
:103CC000354868300068C0F340000028EFD1A06993
:103CD000F0B33148006800F00C0008287AD0A069E1
:103CE000022861D100202D490866FFF7BBFB05467D
:103CF00006E0FFF7B7FB401B022801D9032082E64C
:103D0000254808380068C0F340600028F1D1D4E9A4
:103D10000701084347F6C07292FAA2F2B2FA82F2A1
:103D2000616A914008430122A16AC2EB51014FF43C
:103D3000403292FAA2F2B2FA82F2914008434FF076
:103D4000706292FAA2F2B2FA82F2E16A914000E065
:103D500042E008434FF0E04292FAA2F2B2FA82F255
:103D6000216B914008430C49091F086001200B4951
:103D70000866FFF777FB054606E0FFF773FB401B7D
:103D8000022801D903203EE6034808380068C0F342
:103D900040600028F1D01FE0083802400000474290
:103DA000800E47420070004000200C490866FFF773
:103DB00059FB054607E0FFF755FB401B022802D9D7
:103DC000032020E606E006480068C0F340600028B3
:103DD000F1D101E0012016E6002014E60000474280
:103DE0000038024010B504460CB9012010BD606ACD
:103DF00000B900BF0021A16294F8510028B9002049
:103E000084F85000204600F033F8022084F8510076
:103E10002068006820F0400021680860D4E90101B2
:103E20000843E16808432169084361690843218B1D
:103E300001F400710843E1690843216A0843A16A5B
:103E40000843216808600421A06901EA1040616A02
:103E50000843216848602068C06920F40060216838
:103E6000C86100206065012084F851000020BDE792
:103E700010B586B0044630492068884259D100BF49
:103E8000002000902D48006840F002002B49086097
:103E90000846006800F00200009000BF00BF00BFAD
:103EA000002000900846006840F0020008600846C4
:103EB000006800F00200009000BF00BF00BF0020BB
:103EC00000900846006840F002000860084600685C
:103ED00000F00200009000BF00BF00BF0020009073
:103EE00016481430006840F48050144914310860BA
:103EF0000846006800F48050009000BF00BF082012
:103F000001900220029001200390022004900520DD
:103F1000059001A90A48FFF79FF91020019001A917
:103F20000748FFF799F92020019001A90448FFF7FD
:103F300093F906B010BD0000003001403038024057
:103F4000000402402DE9F04704460D4616461F4680
:103F5000DDF820804FF00009CA4600BF94F85000F9
:103F6000012802D10220BDE8F087012084F850002A
:103F700000BFFFF777FA814694F8510001280CD072
:103F80006068B0F5827F05D1A06818B994F8510037
:103F9000042802D04FF0020A94E00DB106B117B91F
:103FA0004FF0010A8EE094F85100012802D105205B
:103FB00084F8510000206065A663E787A787256322
:103FC000E786A786206460642068006800F04000EF
:103FD000402805D02068006840F040002168086053
:103FE000E068B0F5006F30D128E0E08E60B1206865
:103FF000806800F00200022806D128882168C86085
:10400000AD1CE08E401EE086E08F58B120688068CD
:1040100000F0010030B12068C0683080B61CE08F2D
:10402000401EE08708F1010040B1FFF71BFAA0EB4A
:104030000900404502D34FF0030A43E0E08E002818
:10404000D3D1E08F0028D0D12FE028E0E08E60B1FE
:104050002068806800F00200022806D115F8010BE4
:1040600021680873E08E401EE086E08F58B120681A
:10407000806800F0010030B12068C06806F8010BCC
:10408000E08F401EE08708F1010040B1FFF7EAF938
:10409000A0EB0900404502D34FF0030A12E0E08E86
:1040A0000028D3D1E08F0028D0D14A46414620468F
:1040B00001F03AF928B1606D40F0200060654FF0E2
:1040C000010A00BF012084F8510000BF002084F8DD
:1040D000500000BF504646E770B504462546681EAE
:1040E000B0F1807F01D301200FE0681E4FF0E02186
:1040F00048610F214FF0FF3000F016FC00204FF018
:10410000E021886107200861002070BD704770477A
:1041100010B504460CB9012010BD94F8390028B937
:10412000002084F83800204600F00CF8022084F8C3
:104130003900211D206801F001FA012084F83900BE
:104140000020E9E710B504462068B0F1804F07D1A0
:10415000002204211C20FFF7C9F91C20FFF7B9F940
:104160000C492068884207D1002204211D20FFF756
:10417000BDF91D20FFF7ADF907492068884207D136
:10418000002204211E20FFF7B1F91E20FFF7A1F93C
:1041900010BD00000004004000080040014602205D
:1041A00081F839000868006840F001000A68106072
:1041B000012081F839000020704701460868C06876
:1041C00040F001000A68D0600868006840F0010013
:1041D0000A6810600020704701460868C06820F037
:1041E00001000A68D06000BF0868006A41F211123D
:1041F000104050B90868006A9210104028B9086849
:10420000006820F001000A68106000BF00207047BD
:10421000704710B5044620680069C0F34000D8B16B
:104220002068C068C0F34000B0B16FF002002168A0
:104230000861012020762068806900F0030018B131
:104240002046FFF7E5FF05E0204600F0ADF82046E8
:1042500000F0ABF80020207620680069C0F38000F1
:10426000D8B12068C068C0F38000B0B16FF004001E
:1042700021680861022020762068806900F440707F
:1042800018B12046FFF7C4FF05E0204600F08CF887
:10429000204600F08AF80020207620680069C0F3EC
:1042A000C000D8B12068C068C0F3C000B0B16FF0E2
:1042B000080021680861042020762068C06900F0A9
:1042C000030018B12046FFF7A3FF05E0204600F0E9
:1042D0006BF8204600F069F800202076206800691D
:1042E000C0F30010D8B12068C068C0F30010B0B1AE
:1042F0006FF0100021680861082020762068C069EE
:1043000000F4407018B12046FFF782FF05E0204618
:1043100000F04AF8204600F048F800202076206897
:10432000006900F0010058B12068C06800F0010089
:1043300030B16FF0010021680861204600F036F8C6
:1043400020680069C0F3C01058B12068C068C0F38D
:10435000C01030B16FF08000216808612046FFF77F
:10436000D5FE20680069C0F3801058B12068C0688D
:10437000C0F3801030B16FF0400021680861204622
:1043800000F02CF820680069C0F3401058B1206894
:10439000C068C0F3401030B16FF0200021680861A0
:1043A0002046FFF7B4FE10BD7047704710B50446B5
:1043B0000748844201D105F075FF0648844201D1C7
:1043C00005F0A6FF0448844201D105F0D7FF10BDD7
:1043D00078D40020B4D40020F0D400207047704777
:1043E00001460022002391F8392091F83A3042EA40
:1043F00003007047F8B504460025002620680068D1
:1044000000F001052068C06800F480767DB176B1C7
:1044100000BF00200090206800680090206840687D
:10442000009000BF00BFE06B40F00100E063206837
:104430000068C0F340052068406900F001067DB1C6
:1044400076B100BF002000902068006800902068CE
:104450004068009000BF00BFE06B40F00400E063E4
:1044600020680068C0F380052068406900F00106FC
:104470007DB176B100BF00200090206800680090F8
:1044800020684068009000BF00BFE06B40F0020071
:10449000E06320680068C0F3C0052068406900F050
:1044A00001067DB176B100BF002000902068006851
:1044B000009020684068009000BF00BFE06B40F0B3
:1044C0000800E06320680068C0F340152068C068F9
:1044D00000F020061DB116B1204601F0B1F82068A9
:1044E0000068C0F3C0152068C06800F080061DB1E8
:1044F00016B1204601F0ACFA20680068C0F38015C0
:104500002068C06800F040061DB116B1204601F0D9
:1045100087F8E06B38B1202084F8390084F83A003D
:104520002046FFF75CFFF8BD10B504460CB901202A
:1045300010BDA06900B100E000BF94F8390028B9AF
:10454000002084F83800204600F028F8242084F861
:1045500039002068C06820F400502168C8602046F7
:1045600001F0C2F82068006920F4904021680861D9
:104570002068406920F02A00216848612068C068EE
:1045800040F400502168C8600020E063202084F8D7
:10459000390084F83A000020CAE7000010B586B060
:1045A00004465249206888424DD100BF0020009047
:1045B0004F48006840F001004D4908600846006817
:1045C00000F00100009000BF00BF00BF002000907D
:1045D0000846006840F0010008600846006800F0E6
:1045E0000100009000BF00BF00BF002000904048C5
:1045F0001430006840F010003D491431086008464E
:10460000006800F01000009000BF00BF4815019046
:1046100002200290012003900220049007200590C0
:1046200001A93448FEF718FE4FF48060019001A9FB
:104630003048FEF711FE2520FEF74BFF0022032134
:104640002520FEF753FF2C49206888424CD100BF3B
:10465000002000902648006840F0080024490860C7
:104660000846006800F00800009000BF00BF00BFCF
:10467000002000900846006840F0080008600846E6
:10468000006800F00800009000BF00BF00BF0020DD
:10469000009017481030006840F400301449103181
:1046A00008600846006800F40030009000BF00BFBA
:1046B000202001900220029001200390022004900B
:1046C0000720059001A90D48FEF7C6FD4020019086
:1046D00001A90A48FEF7C0FD2620FEF7FAFE0022D7
:1046E00003212620FEF702FF06B010BD0010014096
:1046F000303802400000024000440040000C0240FC
:1047000010B5034693F83A0020282FD101B10AB919
:10471000012010BD00BF93F83800012801D102200C
:10472000F7E7012083F8380000BF99629A85DA859F
:104730000020D863222083F83A001868C06840F44B
:1047400080701C68E0601868406940F001001C68D7
:10475000606100BF002083F8380000BF1868C0689F
:1047600040F020001C68E0600020D2E70220D0E783
:1047700010B5044608492068884203D107490878E3
:1047800005F026FE06492068884203D105490878CD
:1047900005F03CFE10BD000000100140300000207C
:1047A00000440040310000202DE9F04104460D4650
:1047B0001646984694F83900202855D105B116B907
:1047C0000120BDE8F08100BF94F83800012801D134
:1047D0000220F6E7012084F8380000BF0020E063E3
:1047E000212084F83900A684E68428E0E08C401E6D
:1047F000E084A068B0F5805F14D143460022802198
:10480000204601F059F908B10320DAE72F4638882D
:10481000C0F3080021684860206908B9AD1C0EE0AB
:104820006D1C0CE0434600228021204601F044F933
:1048300008B10320C5E715F8010B21684860E08C3A
:104840000028D3D1434600224021204601F034F90C
:1048500008B10320B5E7202084F8390000BF00200C
:1048600084F8380000BFACE70220AAE7704700BF19
:10487000FEE7000070B504460D4635B9002010492A
:10488000085520460DF014FF70BD012D16D10026ED
:1048900010E020460DF064FE002120460EF030F8B6
:1048A000012802D106490855EEE74FF47A70FEF769
:1048B0009AFC761C40F6C4108642EAD30020E3E757
:1048C0007401002010B5044621460020FFF7D2FFF6
:1048D00010BD10B5044621460120FFF7CBFF10BDE7
:1048E00000BFFEE77047000000F01F020121914069
:1048F000024A430942F823107047000080E100E0BB
:1049000000F01F02012191404209920002F1E022D1
:10491000C2F800117047000002480068C0F302208E
:10492000704700000CED00E010B5002807DA0A0718
:10493000140E054A00F00F031B1FD45403E00A07AE
:10494000130E024A135410BD18ED00E000E400E01D
:1049500010B5002807DA0A07140E054A00F00F0305
:104960001B1FD45403E00A07130E024A135410BD50
:1049700018ED00E000E400E010B5002000F006F8BB
:1049800010BD10B5012000F001F810BD2DE9F04F69
:104990008FB00546FE4850F82590D9F81400D9F894
:1049A000181000EA010AD9F840B4D9F814040B90A1
:1049B0000DB1102000E0082003900AF0080078B341
:1049C00000272AE0F34800EB851050F8270018B3C1
:1049D000F04800EB851050F82700C069E0B1ED48C1
:1049E00000EB851050F82700C069401EE94901EB33
:1049F000851151F82710C86170B9E64800EB8510A1
:104A000050F82700406920F010001030E14901EB18
:104A1000851151F8271048617F1C03988742D1D334
:104A20000AF08070002853D00BF0020040B1DA4841
:104A300050F8250020B94FF4FA70D84921F8150034
:104A40000BF00800E8B30BF0040060B3D44850F852
:104A5000250020F00300D24941F82500CBF3414066
:104A600030B101280DD0022814D003281AD118E043
:104A7000CB4850F8250040F00200C94941F8250014
:104A800010E0C74850F8250040F00100C44941F843
:104A9000250007E0C24850F82500C14941F825002B
:104AA00000E000BF00BF0BF0010050B9BA4850F859
:104AB000250030B10120BB4941F825000020B6494E
:104AC00000E001E041F825002BF0040BC9F840B4E8
:104AD0000AF0005058B1B04850F8250038B1012014
:104AE000B04941F825000020AB4941F82500AD4808
:104AF00050F82500E0B109F5A066002715E0A548AB
:104B000000EB851050F8270068B13946284602F0BE
:104B100011FB01909F4800EB851050F82720284694
:104B2000019903F011F820367F1C03988742E6D3E1
:104B30000AF01000002866D0D9F8180020F0100004
:104B4000C9F81800D9F81C0008900898C0F3434031
:104B500002284FD1D9F820000890089800F00F07DC
:104B60000898C0F30A1007903946284602F0E2FA86
:104B700006468D4800EB851050F827000C908548BC
:104B800000EB851050F827402068E16808440D903C
:104B9000079880080590079800F00300049009E04A
:104BA0000C9801680D9801600D98001D0D90E0684B
:104BB000001DE0600598411E05910028F0D1049881
:104BC000D8B10C98006806900D980E900CE00698ED
:104BD000C1B20E9801700E98401C0E900698000A03
:104BE0000690E068401CE0600498411E0491002893
:104BF000EDD102E0D9F820000890D9F8180040F073
:104C00001000C9F818000AF00070002876D009F5E5
:104C1000A0660027A1E20120B8400B9908400028B7
:104C20006DD0B068F16800EA01085A4800EB8510C1
:104C300050F827406069C8F3C31141EA1040616928
:104C400060F317416161206900F00F00012804D072
:104C5000206900F00F000D287ED108F0010010B38C
:104C6000284602F04BFB0020F060A068E0600020C6
:104C7000606108F0400028B1606920F4F070C03035
:104C8000606104E0606920F4F07040306061606948
:104C900020F008000830606100203E4901EB8511DA
:104CA00041F8270054E208F0080078B1284602F0E5
:104CB00025FB606920F4F07000F5E070606102206F
:104CC000F060306840F08040306041E208F0100051
:104CD00028B908F0400010B908F08000E8B3284671
:104CE00002F00CFB08F0100050B1606920F4F07085
:104CF00000F5A07060610220F06014E034E22AE266
:104D000008F0400038B1606920F4F070C030606194
:104D10000220F06007E0606920F47F0000F5803039
:104D200060612220F060A06890B13069C0F3C94092
:104D30000A903088C0F30A000990A16809980144DC
:104D4000491EB1FBF0F10A98091A09984143E16044
:104D5000306840F0404001E085E001E03060F7E17C
:104D600008F00200F0B3B178C1F38101032952D0F9
:104D70006169C1F343110A294DD1064901EB85113F
:104D800051F827108869411E024A02EB85120DE096
:104D9000C4000020FCD900206C0100205401002038
:104DA000640100205C010020CC00002052F8272084
:104DB000916178B3FD4800EB851050F827008068BA
:104DC000FA4901EB851151F82710C968401A009083
:104DD000F64800EB851050F827000068F34901EB16
:104DE000851100E02DE051F82710C9684318EF48FD
:104DF00000EB851050F827000069C2B23146284602
:104E000002F0B0F96420E94901EB851151F827104F
:104E1000C8619DE1FFE70020F060606920F00100BB
:104E20006061606920F002006061606920F0080044
:104E3000083060610020DD4901EB851141F8270051
:104E400086E108F02000002889D0606920F4F07025
:104E500040306061606920F47F006061F06820F09C
:104E60002000F06074E1206900F00F0004286FD189
:104E700008F0080060B1606920F4F07000F5E0709F
:104E800060610220F060306840F0804030605FE197
:104E900008F0100010B908F08000C0B108F0100050
:104EA00040B1606920F4F07000F5A07060610220EC
:104EB000F06007E0606920F47F0000F580306061F9
:104EC0002220F060306840F08040306040E108F01F
:104ED0000200E0B3B178C1F38101032944D06169D4
:104EE000C1F343110A293FD1B04901EB851151F8B3
:104EF00027108869411EAD4A02EB851252F827201F
:104F0000916130B3A94800EB851050F82700806804
:104F1000A64901EB851151F82710C968401A009085
:104F2000A24800EB851050F8270000689F4901EB6C
:104F3000851151F82710C96843189C4800EB85106B
:104F400050F827000069C2B23146284602E021E04D
:104F500038E009E002F006F96420944901EB85117C
:104F600051F82710C861F3E00020F060606920F07C
:104F700001006061606920F002006061606920F0FA
:104F80000800083060610020884901EB851141F874
:104F90002700DDE008F02000002897D0606920F4A9
:104FA000F07040306061606920F47F006061F068FB
:104FB00020F02000F0600220F060306840F0804077
:104FC0003060C5E0206900F00F00092811D108F019
:104FD000010078B1606920F4F07040306061606970
:104FE00020F47F0060610220F060306840F04040B3
:104FF0003060ADE008F0100090B3606920F4F0700C
:1050000000F5A07060616A4951F8251009B3B178C4
:10501000C1F3810103291CD0644901EB851151F8CA
:1050200027108869411E614A02EB851252F8272039
:10503000916170B140F2B950F060306840F00040CA
:1050400030606420594901EB851151F82710C8617F
:105050007EE00220F060306840F04040306077E051
:10506000FFE708F0800028B908F4807010B908F054
:10507000080020B30220F06008F0800050B16069A1
:1050800020F47F0000F580306061F06840F020007F
:10509000F0600FE008F4807030B1606920F47F00A8
:1050A00000F50030606105E0606920F4F07000F503
:1050B000E0706061306840F04040306048E008F0E7
:1050C0000200E8B10020F060606920F0010060613A
:1050D000606920F002006061606920F0080008301B
:1050E00060610020314901EB851141F827006069BA
:1050F000C0F3C00018B3206A08B3206A804727E0D5
:1051000008F0200018B3606920F4F070403060614E
:10511000606920F47F006061B078C0F381000328EB
:105120000ED040F2B950F060306840F0004030607E
:1051300064201E4901EB851151F82710C86107E072
:105140000220F060306840F04040306000E000BF76
:1051500040F2FF70B06020367F1C03988742FFF456
:105160005AAD0B98C9F81404C9F814A00AF0080045
:10517000F0B3104850F8250010B10120029020E053
:1051800000200290002718E0084800EB851050F836
:10519000270088B1054800EB851050F827004069CA
:1051A000C0F3400040B10120029009E0FCD900208A
:1051B0006C0100204C0100207F1C03988742E3D340
:1051C00000BF09F5A06600275FE0334800EB8510BB
:1051D00050F82740F4B3606900F00100D0B3606973
:1051E000C0F34000B0BBB078C0F38100032800E0FA
:1051F0004EE036D1294800EB451030F81700A8B131
:10520000029830B1254800EB451030F8170001280E
:1052100001DC029850B9214800EB451030F8170026
:10522000401E1E4901EB451121F81700029888B96C
:105230001A4800EB451030F8170058B9606920F0A3
:105240000200801C6061A068009023682069C2B2DF
:10525000314600E017E0284601F084FF012002906B
:1052600011E0029878B9606920F00200801C60614A
:10527000A068009023682069C2B23146284601F038
:1052800071FF0120029020367F1C039887429CD337
:105290000FB0BDE8F08F0000FCD900207CDA0020C0
:1052A00038B505460C466B462246002128460DF0CF
:1052B000DDFA08B9002038BD009880B2A080E080F7
:1052C0000120F8E710B5044621460020FFF7E8FF6B
:1052D00010BD10B5044621460120FFF7E1FF10BDC7
:1052E000F8B507460C4615461E46B0B22B46224678
:1052F0000021009038460DF09BFAF8BD70B50446C9
:105300000D46164633462A4621460020FFF7E8FFA1
:1053100070BD70B504460D46164633462A462146F2
:105320000120FFF7DDFF70BDF8B504460D461646B7
:105330002B46002280212046009600F009F828B173
:10534000606D40F0200060650320F8BD0020FCE7A0
:105350002DE9F04104460E4617461D46DDF818803B
:105360003FE0681CE0B32DB1FEF77CF8A0EB08002D
:10537000A84236D32068406820F0E00021684860E9
:105380006068B0F5827F0DD1A068B0F5004F03D002
:10539000A068B0F5806F05D12068006820F040005B
:1053A00021680860A06AB0F5005F0ED100BF2068D8
:1053B00000684DF6FF7108402168086020680068A9
:1053C00040F400502168086000BF012084F85100BB
:1053D00000BF002084F8500000BF0320BDE8F0812A
:1053E000FFE7206880683040B842BAD10020F5E776
:1053F0002DE9F04194B00546884616461F46002424
:1054000000BF002001902648006840F080502449E9
:1054100008600846006800F08050019000BF00BF9F
:1054200000BF002001901F48006840F440401D4923
:1054300008600846006800F44040019000BF00BFCB
:1054400001200790089002200D9041050E91CDF8A3
:105450003C8010951196129707A8FEF79FFA044614
:105460000CB100BFFEE7FEF793F804460CB100BF95
:10547000FEE70F20029002200390002004904FF4DA
:10548000A05005904FF480500690072102A8FEF727
:10549000D1F804460CB100BFFEE714B0BDE8F081BE
:1054A00040380240007000401448006840F470002A
:1054B000124908601248006840F001001049086075
:1054C00000200F49083108600D4800680D49084068
:1054D0000B4908600C48091D0860081F006820F48B
:1054E0008020091F0860002005490C3108604FF03A
:1054F00000600249803908607047000088ED00E0D4
:1055000000380240FFFFF6FE1030002410B50248BC
:10551000FEF77FFE10BD000078D4002010B50248D1
:10552000FEF777FE10BD0000B4D4002010B502488D
:10553000FEF76FFE10BD0000F0D4002000220268CC
:105540002C4B98420ED0B0F1804F0BD02A4B984292
:1055500008D02A4B984205D0294B984202D0294BBB
:10556000984201D1012300E000231BB122F0700218
:105570004B681A431F4B984220D0B0F1804F1DD08A
:105580001D4B98421AD01D4B984217D01C4B984285
:1055900014D01C4B984211D01B4B98420ED01B4B81
:1055A00098420BD01A4B984208D01A4B984205D01B
:1055B000194B984202D0194B984201D1012300E0C7
:1055C00000231BB122F44072CB681A4302608B683F
:1055D000C3620B688362074B984202D0094B984222
:1055E00001D1012300E000230BB10B690363012308
:1055F0004361704700000140000400400008004083
:10560000000C004000040140004001400044014003
:105610000048014000180040001C004000200040ED
:1056200010B504462068C06820F040002168C860BA
:10563000202084F839002046FFF718F9002010BD1B
:1056400070B5044694F83A0022284AD1A068B0F513
:10565000805F13D1A56A206940B920684068C0F313
:1056600008002880A06A801CA06219E020684068B9
:10567000C0B22880A06A401CA06211E0206938B93D
:1056800020684068C1B2A26A501CA062117007E095
:105690002068406800F07F01A26A501CA06211706F
:1056A000E08D401E80B2E085C8B92068C06820F057
:1056B00020002168C8602068C06820F480702168DC
:1056C000C8602068406920F00100216848612020FE
:1056D00084F83A002046FFF74BF8002070BD002008
:1056E000FCE70220FAE700002DE9F041044600251E
:1056F0002068056925F44055E06805432068056188
:105700002068C56849F20C6085432169A068084398
:1057100061690843E169084305432068C560206862
:10572000456925F44075A069054320684561E06935
:10573000B0F5004F7ED1C4492068884203D0C349E8
:10574000206888425DD1FEF779F800EBC00101EBDB
:10575000001061684900B0FBF1F06421B0FBF1F08A
:105760000601FEF76BF800EBC00101EB0010616869
:105770004900B0FBF1F7FEF761F800EBC00101EB67
:10578000001061684900B0FBF1F06421B0FBF1F05A
:1057900000EBC00101EB0010A7EB8000322101EB10
:1057A000C0006421B0FBF1F000F0F80006EB400609
:1057B000FEF744F800EBC00101EB001061684900FE
:1057C000B0FBF1F7FEF73AF800EBC00101EB001077
:1057D00061684900B0FBF1F06421B0FBF1F000EB2F
:1057E000C00101EB0010A7EB8000322101EBC000EB
:1057F0006421B0FBF1F000F00700304421688860BC
:1058000020E1FEF705F800EBC00101EB0010616834
:105810004900B0FBF1F06421B0FBF1F00601FDF7A7
:10582000F7FF00EBC00101EB001061684900B0FB1D
:10583000F1F700E045E0FDF7EBFF00EBC00101EB05
:10584000001061684900B0FBF1F06421B0FBF1F099
:1058500000EBC00101EB0010A7EB8000322101EB4F
:10586000C0006421B0FBF1F000F0F80006EB400648
:10587000FDF7CEFF00EBC00101EB001061684900AD
:10588000B0FBF1F7FDF7C4FF00EBC00101EB001026
:1058900061684900B0FBF1F06421B0FBF1F000EB6E
:1058A000C00101EB0010A7EB8000322101EBC0002A
:1058B0006421B0FBF1F000F00700304421688860FB
:1058C000C0E061492068884203D06049206888426E
:1058D0005CD1FDF7B3FF00EBC00101EB0010616884
:1058E0008900B0FBF1F6FDF7A9FF00EBC00101EB69
:1058F000001061688900B0FBF1F06421B0FBF1F0A9
:1059000000EBC00101EB0010A6EB8000322101EB9F
:1059100000106421B0FBF1F000F0F006FDF78EFFFF
:1059200000EBC00101EB001061688900B0FBF1F0F1
:105930006421B0FBF1F006EB0016FDF77FFF00EBF2
:10594000C00101EB001061688900B0FBF1F7FDF7C1
:1059500075FF00EBC00101EB001061688900B0FB2E
:10596000F1F06421B0FBF1F000EBC00101EB00109D
:10597000A7EB8000322101EB00106421B0FBF1F0B5
:1059800000F00F003044216888605BE0FDF740FFC5
:1059900000EBC00101EB001061688900B0FBF1F67B
:1059A000FDF736FF00EBC00101EB001061688900D4
:1059B000B0FBF1F06421B0FBF1F000EBC00101EBB2
:1059C0000010A6EB8000322101EB00106421B0FB37
:1059D000F1F000F0F006FDF71BFF00EBC00101EB5A
:1059E000001061688900B0FBF1F06421B0FBF1F0B8
:1059F00006EB0016FDF70CFF00EBC00101EB0010F9
:105A000061688900B0FBF1F7FDF702FF00EBC00110
:105A100001EB001061688900B0FBF1F06421B0FB7C
:105A2000F1F000EBC00101EB0010A7EB8000322188
:105A300001EB00106421B0FBF1F000F00F003044E6
:105A400021688860BDE8F081001001400014014029
:105A5000014691F8390021282CD18868B0F5805F83
:105A60000FD10A6A1088C0F308000B6858600869F3
:105A700018B9086A801C086209E0086A401C0862BC
:105A800005E00B6A581C086218780B685860C88CCF
:105A9000401E80B2C88458B90868C06820F08000F1
:105AA0000B68D8600868C06840F040000B68D86098
:105AB000002070470220FCE72DE9F04104460E4625
:105AC00017461D464FF00008FDF7CCFC804677BB1B
:105AD0002FE0681C60B32DB1FDF7C4FCA0EB0800FB
