:020000040800F2
:10000000509A0120750300086F290008672900082D
:100010006B2900084913000809610008000000006E
:100020000000000000000000000000004102000885
:100030004D13000800000000ED02000861030008F5
:100040008F0300088F0300088F0300088F03000848
:100050008F0300088F0300088F0300088F03000838
:100060008F0300088F0300088F0300088F03000828
:100070008F0300088F0300088F0300088F03000818
:100080008F0300088F0300088F0300088F03000808
:100090008F0300088F0300088F0300088F030008F8
:1000A0008F0300088F0300088F0300088F030008E8
:1000B0000D3500081D3500082D3500088F03000898
:1000C0008F0300088F0300088F0300088F030008C8
:1000D0008F030008BD3B0008ED3B00088F030008BC
:1000E0008F0300088F0300088F0300088F030008A8
:1000F0008F0300088F0300088F0300088F03000898
:100100008F0300088F0300088F0300088F03000887
:100110008F0300088F0300088F0300088F03000877
:100120008F0300088F0300088F0300088F03000867
:100130008F03000800000000000000008F0300088B
:100140008F0300088F0300088F030008012A0008AE
:100150008F0300088F0300088F0300088F03000837
:100160008F0300088F0300088F0300088F03000827
:100170008F0300080B2A00088F030008000000000E
:10018000000000008F0300080000000000000000D5
:100190008F03000800000000000000008F0300082B
:1001A0000000000000000000000000008F030008B5
:1001B0008F0300088F0300088F0300088F030008D7
:1001C0008F030008DFF80CD000F0FEFD0048004768
:1001D00095D60008509A012080F309887047EFF304
:1001E00009807047684680F3098804480078C00792
:1001F00014BF0220032080F314887047D80C010834
:10020000DFF818C0EFF305831B0618BF6047EFF354
:100210001483DB0708BF604700DF704785EF0008E5
:10022000DFF818C0EFF305831B0618BF6047EFF334
:100230001483DB0708BF604700DF704781F10008C7
:10024000EFF30980816911F8021CC9BB10B590E871
:100250000F10E047BDE81040EFF3098C204B93E806
:100260000600914229D081B10CB41EF0100F06BFD8
:100270002CED108A0323012381F826302CE9F00F9E
:10028000C1F82CC00FF000FA0CBC1A60D2F82CC0D8
:10029000BCE8F00F92F8263013F0020F1ABFBCEC46
:1002A000108A6FF0120E6FF0020E8CF3098813F0B3
:1002B000010F08BF704792F82500CCF80000704786
:1002C00010B5084A1268914209D8074C54F82140E9
:1002D00090E80F10A047EFF3098C8CE80F0010BDD9
:1002E00044000020A8120008A812000810B50FF062
:1002F0004FF8BDE81040194B93E80600914208BF43
:1003000070470CB4EFF3098C1EF0100F06BF2CEDF4
:10031000108A0223002381F826302CE9F00FC1F85F
:100320002CC00FF0B1F90CBC1A60D2F82CC0BCE89C
:10033000F00F92F8263013F0020F1ABFBCEC108AAF
:100340006FF0120E6FF0020E8CF3098813F0010F9C
:100350001CBF92F82530CCF80030704744000020D4
:1003600010B50FF073FAC4E710B50DF04DFA0FF0A9
:100370006DFABEE70648804706480047FEE7FEE7FD
:10038000FEE7FEE7FEE7FEE7FEE7FEE7FEE7FEE745
:10039000A9340008C50100082DE9F05F05460020DA
:1003A00092469B4688460646814640241BE02846E6
:1003B00041464746224600F006FB53465A46C01ABD
:1003C000914110D311461846224600F0EDFA2D1A3D
:1003D00067EB01084F4622460120002100F0E4FAB5
:1003E00017EB00094E41201EA4F10104DFDC484652
:1003F00031462A464346BDE8F09F40EA01039B0789
:1004000003D009E008C9121F08C0042AFAD203E089
:1004100011F8013B00F8013B521EF9D27047D2B2ED
:1004200001E000F8012B491EFBD270470022F6E7DD
:1004300010B513460A4604461946FFF7F0FF20465A
:1004400010BD30B505462A460B4612F8010B13F8CD
:10045000014B08B1A042F8D01CB1002802D06D1C9D
:10046000F1E7284630BD421C10F8011B0029FBD1E2
:10047000801A704710B5002200E0521C835C8C5C2F
:10048000A34201D1002BF8D1D8B2E1B2401A10BD7D
:10049000034611F8012B00F8012B002AF9D1184668
:1004A0007047000070B50F4D00B92868002412E0B5
:1004B0000A4602E09E4203D0521C1378002BF9D169
:1004C000DAB2224305D02BB124B1002100F8011B80
:1004D00004E00446401C0678002EE9D1286020463E
:1004E00070BD00000803002070B5064605F04AFE06
:1004F000046805460A220021304600F0D5FA2C6037
:1005000070BD2DE9FE4F804681EA0300C00F0C4606
:10051000009021F0004123F00045B8EB0200A94112
:1005200005D24046214690461C460B46024623F023
:100530000040104347D0270DC7F30A00C3F30A5108
:100540000290401A019040286BDAC3F3130040F484
:10055000801B0098924620B10023D2EB030A63EB84
:100560000B0B01985946C0F14002504600F01CFAAE
:1005700006460D4650465946019A00F034FA10EBF3
:1005800008006141002487EA115284EAE7731A43A4
:1005900040D0009A62B3019A012A4FEA075215DC53
:1005A000001B61EB02014FF0004202EA0752CDE965
:1005B0000042001C41F5801132462B4600F0F2FA51
:1005C00003B0BDE8F08F40462146F9E7001B61EB20
:1005D0000201001C41F5801300185B412018A2F5B0
:1005E000001747EB030140EAD570B6196D4111E0E1
:1005F0006D084FEA360645EAC0754FEA0752001B00
:1006000061EB0201001C41F5801149084FEA3000FE
:100610000019514132462B4603B0BDE8F04F00F0BF
:10062000B2BA0098012240000023D0EB020263EB33
:10063000E073009821464FEAE074B8EB000061EBEC
:100640000401E9E783F000435BE781F0004158E7EC
:100650002DE9FE4F81EA030404F0004421F000413B
:1006600000944FF0000B23F0004350EA01045ED0E9
:1006700052EA03045BD0C3F30A54C1F30A552C4475
:10068000A4F2F3340194A0FB0254C1F3130141F42A
:100690008011C3F3130343F4801301FB024400FBF6
:1006A000034E840A970A44EA815447EA8357A4FB1D
:1006B000076802958D0A05FB07854FEA932C04FB1A
:1006C0000C542705029D4FEA065847EA1637B5EB4A
:1006D00008056EEB070C870E920E47EA811742EA77
:1006E0008312A7FB0201B6EB0B0164EB00042B0D98
:1006F00043EA0C335E1844EB1C50DA465146E7FBE4
:100700000201C5F313044FEA0B3343EA14534FEAD3
:100710000432019C43EA0603A4F10C040294009CF9
:10072000CDE900B400F03EFA03B0BDE8F08F002040
:100730000146F9E72DE9F04D81EA030404F0004B8E
:1007400021F0004514464FF0000A23F0004150EA22
:10075000050220D054EA01021DD0C5F30A57024613
:10076000C5F31303C1F31300C1F30A5640F4801517
:1007700043F48013A7EB0608101BD64608F2FD3899
:1007800073EB050002D308F1010801E092185B4108
:10079000B8F1000F03DA00200146BDE8F08D00201B
:1007A0004FF48011064684460EE0171B73EB0507D5
:1007B00005D3121B63EB050306434CEA010C490801
:1007C0004FEA300092185B4150EA0107EDD152EA3E
:1007D000030012D082EA040083EA0501084305D031
:1007E000101BAB4106D20122002306E000224FF08D
:1007F000004302E06FF0010253101AEB06004CEBCD
:10080000085110EB0A0041EB0B01BDE8F04D00F080
:10081000BAB90EB5C10F80EAE0700844CA070021DA
:1008200040F233438DE80E000A460B4600F0BAF959
:1008300003B000BD0EB540F2334102910021CDE975
:1008400000110A460B4600F0ADF903B000BD70B5CB
:10085000C1F30A5201F000450024C1F3130140F234
:10086000FF3341F480119A4201DA002070BD40F25A
:1008700033439A42A2F2334203DC524200F0A3F81F
:1008800000E090402C43F1D0404270BDC1F30A52C9
:1008900010B5C1F3130140F2FF3341F480119A42C5
:1008A00001DA002010BD40F233439A42A2F23342F3
:1008B00003DC524200F087F810BD904010BD00F0FC
:1008C000004230F000400AD0C10D01F56071C0F364
:1008D000160042EA0151C208400711437047002048
:1008E0000146704730B5041E71F1000404DB4FF07F
:1008F0000044404264EB0101141E73F1000405DB67
:100900001C464FF00043524263EB04038B4208BF86
:10091000824230BD30B5041E71F1000404DB4FF09B
:100920000044404264EB0101141E73F1000405DB36
:100930001C464FF00043524263EB0403994208BF48
:10094000904230BD01F0004330B421F0004150EA44
:10095000010206D00A0DA2F56072C1F31301002A4C
:1009600002DC30BC00207047440F44EAC104C100DF
:10097000E01830BC00EBC25000F0CEB830B50B46EA
:10098000014600202022012409E021FA02F59D42BF
:1009900005D303FA02F5491B04FA02F52844151E93
:1009A000A2F10102F1DC30BD202A04DB203A00FA7A
:1009B00002F1002070479140C2F1200320FA03F3B6
:1009C000194390407047202A04DB203A21FA02F0B4
:1009D0000021704721FA02F3D040C2F12002914079
:1009E000084319467047202A06DBCB17203A41FA04
:1009F00002F043EAE07306E041FA02F3D040C2F1AC
:100A00002002914008431946704700000FB40023AC
:100A100000B589B00CA900910B996FF00042CB6032
:100A20001E4B06931E4B07930423CDE901321D4A4A
:100A3000089202466B46002000F066FA09B05DF8A5
:100A400014FB70B586B006464FF0FF300091CDE93B
:100A50000101002015460C4604903246694604A860
:100A6000FFF7D4FF02460498211825B108B10846C3
:100A700000E020462860049800280DD0002A02DDFE
:100A80000098884208D0081B0094CDE90104324642
:100A9000694604A8FFF7BAFF06B070BD411100080F
:100AA0005F110008F50D00082DE9F04791460F464B
:100AB00080460446002614F8015B2DB100F096F93B
:100AC0000068405DC007F6D12B2D02D02D2D18D027
:100AD000641E4A463946204600F052FB27B1396869
:100AE000A14201D1C7F8008071054FF002040BD577
:100AF0004042002803DD05F045FB0460A007BDE887
:100B0000F08746F48066E4E70028F8DA05F03AFB5F
:100B100004606FF00040F2E70029A8BF7047401C56
:100B2000490008BF20F00100704710B4B0FA80FC03
:100B300000FA0CF050EA010404BF10BC704749B140
:100B4000CCF1200421FA04F411FA0CF118BF0121B0
:100B500021430843A3EB0C01CB1D4FEA00614FEA90
:100B6000102042BF002010BC704700EBC35010445F
:100B70000029A4BF10BC7047401C490008BF20F0EA
:100B8000010010BC704710B5141E73F1000408DAA0
:100B9000401C41F1000192185B411A4301D120F041
:100BA000010010BD2DE9F04D92469B4611B1B1FAFE
:100BB00081F202E0B0FA80F220329046FFF7F4FEB4
:100BC00004460F4640EA0A0041EA0B0153465A46E2
:100BD000084313D0114653EA010019D0C8F140026E
:100BE0005046FFF7F0FE05460E465046594642462F
:100BF000FFF7DAFE084305D0012004E0204639461D
:100C0000BDE8F08D0020054346EAE0762C433743EB
:100C10000A986305E40AA0EB08000022FD0A44EAF2
:100C200047540A3002D500200146E9E701051019B2
:100C30006941DDE9084500196941BDE8F04DA2E7C9
:100C400070B521F0004303430CD0C1F30A550024D2
:100C5000D5EB040564EB0403D617AD1AB34102DBF0
:100C60000020014670BD201841EB025170BD2DE9F6
:100C7000F04D00231A461B1A8A4103DB002001466F
:100C8000BDE8F08DC1F30A52C1F3130141F48015A0
:100C90004FF0000BD10702D100186D41521E002702
:100CA000044640F2FF11384601EB620A3E46804698
:100CB000024600204FF48011FFF785FEC2197141F2
:100CC000BB1846EB0100B4EB030C75EB000C04D32E
:100CD000E41A65EB000517460E46241908F10100D9
:100CE0006D4180463428E3DDF91946EB0600091B07
:100CF000A84103D24FF0FF32134601E00022134611
:100D00001BEB070046EB0A51BDE8F04DFFF73BBF78
:100D10002DE9F041054621F000400C46284309D05A
:100D2000C4F30A5040F23341884205DD284621468B
:100D3000BDE8F0812846FBE740F2FE31884210DC36
:100D40000CDB4FEA043040EA155050EA053105D07B
:100D5000104804F0004101430020E9E7002001466B
:100D6000E6E7A0F233404642C6F14002284621465B
:100D7000FFF71AFE07468846284621463246FFF707
:100D800022FE43463A46FFF7FEFE3246BDE8F041FA
:100D9000FFF70ABE0000F03FC1F30A52C1F313018E
:100DA00040F2FF3341F480119A4202DA00200146FA
:100DB000704740F233439A42A2F2334202DC52427D
:100DC000FFF701BEFFF7F0BD064C074D06E0E068F7
:100DD00040F0010394E8070098471034AC42F6D382
:100DE000FFF7F4F950BA030870BA030800487047D7
:100DF0004CBA030810B50446FFF7F8FF0068005D21
:100E000000F0010010BD00002DE9FF4F087881B00F
:100E10009946FF2805D0491C2D2804D00024002322
:100E200008E000230BE00124F9E703EB830300EB68
:100E30004303491C0878FF28F7D104B15B42002026
:100E40000090147801462D2C01D02B2C04D1521C7B
:100E50002D2C12D00024009400251678FF2E0ED0E1
:100E60000A24A0FB04C801FB0481002700FB071132
:100E7000521C16EB0C006941EFE70124EBE79944A3
:100E800050EA01020ED00024AA4D2646DFF8A882BF
:100E900000F0D3F982468B46B9F1000009DAC9F1B6
:100EA00000071BE001980021C0E9001105B0BDE872
:100EB000F08F074612E0F80707D022462B4630464F
:100EC0004146FFF7C5FB0646884622462B4610469C
:100ED0001946FFF7BDFB04460D467F10002FEAD1EF
:100EE000B9F1000F324643465046594602DAFFF741
:100EF00021FC01E0FFF7ACFB009A0AB181F0004150
:100F0000019AC2E90001D1E72DE9FF4F1F468DB0DC
:100F1000D7E901464FF0FF382E2045464FF0000933
:100F20000B90B9696D1C0E988847396A82468847CC
:100F30000028F6D1BAF1FF3F0AD024F4D064002E85
:100F400011DDBAF12B0F08D0BAF12D0F0BD102E051
:100F5000404611B0ABE744F48064B9696D1C0E984B
:100F600088478246761E6946600501D52D2000E03F
:100F70002B208DF8000001F1010B0DF1200809E094
:100F8000B9696D1C0E98884782460F9844F4007426
:100F9000761E0560002E02DDBAF1300FF0D00B99FD
:100FA0008A453ED144F0800406E00F99681CA9F1FF
:100FB000010944F400740860B9696D1C761E0E982E
:100FC000884782463028F0D02BE00B998A4505D11E
:100FD000200603D444F08004761E18E0504606F044
:100FE000C9FA08B30DF11301761E44F400748B4561
:100FF00008D2AAF130000BF8010B200607D5A9F1A1
:10100000010003E0200602D409F101008146A00599
:1010100002D50F99681C0860B9696D1C0E98884745
:101020008246002ED1DC53E0002E51DDBAF1650F6F
:1010300002D0BAF1450F4BD1A00549D5B9696D1C55
:1010400024F44074761E0E9888478246002E0CDDEC
:101050002B2804D0BAF12D0F07D144F48074B9695C
:101060006D1C0E9888478246761EE00501D52D211D
:1010700000E02B2108F8011BCDF82C8021E00DF1B8
:101080002901761E44F4007488450CD2AAF1300080
:1010900010F0FF0088F8000002D10B99884509D9AB
:1010A00008F1010806E0E00501D5244801E042F21C
:1010B0000F708146B9696D1C0E98884782460F985B
:1010C0000560002E04DD504606F054FA0028D6D103
:1010D000F9690E988847FF208BF8000088F8000017
:1010E0000020069007904B466A4608A906A8FFF71D
:1010F0008BFEA00502D46FF001002AE714F0240F44
:101100000AD0E00714D1DDE906123868031D3B6000
:101110000068C0E900120BE0DDE90601FFF712FCF0
:101120000146E00704D13868021D3A60006801609A
:1011300028460EE7000024400000F03FF1D8FFFFF2
:10114000426842B1016811F8013B23B1521EC0E967
:101150000012184670470121C160881E704742681E
:101160005AB1C368016843B983688B4205D0491EF0
:10117000521CC0E90012002070474FF0FF3070474A
:101180002DE9F05F82460078002715468B460AF16C
:101190000104B946302801D09DB113E014F8010BC9
:1011A0000127782803D0582801D045B10AE00DB1B5
:1011B000102D07D10027102514F8010B02E0082597
:1011C00000E00A250026B0460EE005FB080005FBFE
:1011D00006F1012701EB10461FFA80F8B6F5803FB3
:1011E00000D3B94614F8010B294600F018F800287E
:1011F000EBDABBF1000F05D00FB1641E00E05446DE
:10120000CBF80040B9F1000F06D004F0BBFF02217B
:101210000160C81EBDE8F09F48EA0640FAE73A2898
:1012200000D2303820F02002412A01D3A2F1370049
:10123000884201D34FF0FF3070470EB540F2334281
:1012400002920022CDE900221346FFF7ABFC03B067
:1012500000BD70B58C1810F8015B15F0070301D1C3
:1012600010F8013B2A1106D110F8012B03E010F809
:10127000016B01F8016B5B1EF9D12B0705D400232C
:10128000521E0DD401F8013BFAE710F8013BCB1ACE
:10129000921C03E013F8015B01F8015B521EF9D5C3
:1012A000A142D8D3002070BD000000000FE0002054
:1012B00007F064F84FF47A70DFF814C000DF012003
:1012C00007F05CF84FF47A70DFF804C000DFEEE757
:1012D00019F100080023124A4FF001111148DFF8FC
:1012E00048C000DF114908600023114A4FF0041183
:1012F0001048DFF834C000DF0F49086009F082FCB5
:101300000CF03AF809F038FA09F076FF0BF0B2FD6C
:1013100004E04FF47A70DFF824C000DFF9E7000042
:1013200018050020AD120008DDF8000800000020BC
:1013300018060020411300080400002019F10008DD
:1013400006F0BCFC00BFFEE700BFFEE770470000F0
:10135000F8B502460B460025002400200021D7E006
:10136000012606FA01F51E6806EA0504AC4273D1AF
:101370005E68022E02D05E68122E13D1CF0802F1F1
:10138000200656F827004E07F70E0F26BE40B04342
:101390004F07FF0E1E69BE403043CF0802F1200602
:1013A00046F8270010684F000326BE40B0431E7960
:1013B00006F003064F00BE40304310605E68012E09
:1013C00008D05E68022E05D05E68112E02D05E68DD
:1013D000122E13D190684F000326BE40B0434F0039
:1013E000DE68BE4030439060506801268E40B043B6
:1013F0001E79C6F300168E4030435060D0684F000F
:101400000326BE40B0434F009E68BE403043D060CC
:101410005E6806F08056B6F1805F78D100BF002686
:1014200000963D4E366846F480463B4F3E603E4651
:10143000366806F48046009600BF00BF374E8F081E
:1014400056F827008E07370F0F26BE40B043344EA4
:10145000B24202D100261FE059E0324EB24201D121
:10146000012619E0304EB24201D1022614E02F4E7F
:10147000B24201D103260FE02D4EB24201D1042623
:101480000AE02C4EB24201D1052605E02A4EB242B6
:1014900001D1062600E008268F073F0FBE403043EB
:1014A0001E4E8F0846F82700244E3068A0435E6821
:1014B00006F48036B6F5803F00D120431F4E3060E1
:1014C000361D3068A0435E6806F40036B6F5003F6E
:1014D00000D12043194E361D3060361D3068A043C0
:1014E0005E6806F48016B6F5801F00D12043134EC7
:1014F00008363060361D3068A0435E6806F400167A
:10150000B6F5001F00D120430C4E0C363060491C4C
:101510001029FFF425AFF8BD4438024008380140D7
:10152000000002400004024000080240000C02409B
:10153000001002400014024000180240003C01402C
:10154000024613690B400BB1012000E000207047F8
:101550000AB1816101E00B048361704701480068B2
:10156000704700002800002010B50D48006840F4C6
:1015700000700B4908600846006840F4806008600D
:101580000846006840F480700860032000F068F8A6
:101590000F2000F007F800F017F8002010BD000041
:1015A000003C024070B5044600F092F94FF47A71A5
:1015B000B0FBF1F5284600F00BFE00222146501E3C
:1015C00000F010F8002070BD704700BF00F01F024F
:1015D000012191404209920002F1E022C2F800117B
:1015E00000BF70472DE9F05F80460D461646002784
:1015F00001F0D6F9074639462A46334601F007007E
:10160000C0F1070ABAF1040F02D94FF0040A01E051
:10161000C0F1070AD14600F1040ABAF1070F02D25D
:101620004FF0000A01E0A0F1030AD4464FF0010A8E
:101630000AFA09FAAAF1010A0AEA020A0AFA0CFAF3
:101640004FF0010B0BFA0CFBABF1010B0BEA030B98
:101650004AEA0B042146404601F0AAF9BDE8F09F92
:1016600000BF00F00702064B19684FF6FF03194050
:10167000044B0B4343EA0221014B196000BF704742
:101680000CED00E00000FA0538B5002400BF002092
:1016900000902348006840F08050214908600846C7
:1016A000006800F08050009000BF00BF01200104DE
:1016B00091FAA1F1B1FA81F11A4A42F82100FFF73B
:1016C0004DFF044607E0FFF749FF001BB0F57A7FA6
:1016D00001D9032038BD1448406800F48030B0F5CB
:1016E000803FF0D10120410491FAA1F1B1FA81F1DA
:1016F0000C4A42F82100FFF731FF044607E0FFF7EC
:101700002DFF001BB0F57A7F01D90320E2E70648E0
:10171000406800F40030B0F5003FF0D10020D9E778
:101720004038024000000E420070004070B5044690
:101730000D4600266448006800F00F00A84209D258
:1017400061490D700846006800F00F00A84201D002
:10175000012070BD207800F00200022807D15B480C
:10176000006820F0F000A16808435849086020781C
:1017700000F00100002877D06068012807D15348A5
:1017800008380068C0F34040B8B90120E1E760685C
:10179000022802D06068032807D14C480838006846
:1017A000C0F3406048B90120D3E7484808380068D2
:1017B000C0F3400008B90120CBE74448006820F09E
:1017C00003006168084341490860FFF7C7FE064609
:1017D0006068012810D108E0FFF7C0FE801B41F2CD
:1017E0008831884201D90320B3E73848006800F007
:1017F0000C000428F0D137E06068022810D108E01E
:10180000FFF7ACFE801B41F28831884201D90320EA
:101810009FE72E48006800F00C000828F0D123E074
:101820006068032810D108E0FFF798FE801B41F2A2
:101830008831884201D903208BE72448006800F0F2
:101840000C000328F0D10FE008E0FFF787FE801BB3
:1018500041F28831884201D903207AE71B480068A9
:1018600000F00C000028F0D11748006800F00F00CD
:10187000A84209D914490D700846006800F00F000D
:10188000A84201D0012064E7207800F00400042879
:1018900007D10E48006820F4E050E16808430B4986
:1018A0000860207800F00800082808D10748006880
:1018B00020F46040216940EAC100044908600F201B
:1018C000FFF770FE002044E7003C02400838024069
:1018D00010B500F045F80949096801F0F001F0225F
:1018E00092FAA2F2B2FA82F2D140054A515CC840A3
:1018F000044908600846006810BD0000083802402E
:10190000F80C01080800002010B5FFF7E1FF0749B7
:10191000096801F4E0514FF4E05292FAA2F2B2FAEF
:1019200082F2D140024A515CC84010BD08380240E2
:10193000F80C010810B5FFF7CBFF0749096801F45F
:1019400060414FF4604292FAA2F2B2FA82F2D140C0
:10195000024A515CC84010BD08380240F80C01082A
:10196000F0B500210022002300240020464D2D6800
:1019700005F00C0535B1042D06D0082D06D00C2D30
:101980007ED140E041487DE041487BE03E4D2D1F47
:101990002D6805F03F013C4D2D1F2D6805F4800595
:1019A00085B13B4DB5FBF1F6374D2D1F2D6847F640
:1019B000C0773D4097FAA7F7B7FA87F7FD4006FBD7
:1019C00005F20FE0314DB5FBF1F62F4D2D1F2D68BF
:1019D00047F6C0773D4097FAA7F7B7FA87F7FD407B
:1019E00006FB05F2284D2D1F2D6805F440354FF4F8
:1019F000403696FAA6F6B6FA86F6F5406D1C6B00F0
:101A0000B2FBF3F03EE0204D2D1F2D6805F03F01A5
:101A10001D4D2D1F2D6805F4800585B11C4DB5FBAE
:101A2000F1F6194D2D1F2D6847F6C0773D4097FA06
:101A3000A7F7B7FA87F7FD4006FB05F20FE0134D55
:101A4000B5FBF1F6104D2D1F2D6847F6C0773D40D0
:101A500097FAA7F7B7FA87F7FD4006FB05F20A4D9C
:101A60002D1F2D6805F0E0454FF0E04696FAA6F6EA
:101A7000B6FA86F625FA06F4B2FBF4F002E0FFE7C8
:101A8000024800BF00BFF0BD083802400024F40047
:101A900000127A0038B504460025207800F00100D5
:101AA00000286ED0FA48006800F00C0004281BD013
:101AB000F748006800F00C00082807D1F448001F20
:101AC000006800F48000B0F5800F0DD0F048006889
:101AD00000F00C000C2813D1ED48001F006800F442
:101AE0008000B0F5800F0BD1E94808380068C0F3DA
:101AF0004040002845D06068002842D1012038BD10
:101B00000020E349891F0870FFF728FD054606E01D
:101B1000FFF724FD401B642801D90320EFE7DC48D0
:101B200008380068C0F340400028F1D12079D84936
:101B3000891F0870606890B1FFF710FD054606E048
:101B4000FFF70CFD401B642801D90320D7E7D048DC
:101B500008380068C0F340400028F1D011E0FFF7DA
:101B6000FDFC054606E0FFF7F9FC401B642801D99F
:101B70000320C4E7C64808380068C0F34040002886
:101B8000F1D1207800F00200022875D1C048006829
:101B900000F00C00B8B1BE48006800F00C00082846
:101BA00005D1BB48001F006800F4800058B1B84858
:101BB000006800F00C000C2821D1B548001F006817
:101BC00000F48000D8B9B24808380068C0F340007B
:101BD00020B1E068012801D0012090E7AC48083826
:101BE000006820F0F800F82292FAA2F2B2FA82F22B
:101BF000216991400843A649083908603CE0E06843
:101C000028B30120A3490860FFF7A8FC054606E0B9
:101C1000FFF7A4FC401B022801D903206FE79C4872
:101C200008380068C0F340000028F1D09848083810
:101C3000006820F0F800F82292FAA2F2B2FA82F2DA
:101C400021699140084392490839086014E0002056
:101C500090490860FFF782FC054606E0FFF77EFC2E
:101C6000401B022801D9032049E789480838006849
:101C7000C0F340000028F1D1207800F008000828C7
:101C80002CD16069A8B1012083490860FFF766FC88
:101C9000054606E0FFF762FC401B022801D903203D
:101CA0002DE77B486C300068C0F340000028F1D07D
:101CB00014E0002078490860FFF750FC054606E074
:101CC000FFF74CFC401B022801D9032017E770489E
:101CD0006C300068C0F340000028F1D1207800F09B
:101CE000040004286FD100BF0020009068483830FD
:101CF000006840F080506649383108600846006846
:101D000000F08050009000BF00BF6448006840F4BD
:101D1000807062490860FFF721FC054606E0FFF786
:101D20001DFC401B022801D90320E8E65B4800683F
:101D300000F480700028F2D0002055496831087006
:101D4000FFF70CFC054608E0FFF708FC401B41F2DA
:101D50008831884201D90320D1E64D4868300068B7
:101D6000C0F340000028EFD1207A4949683108705B
:101D7000A068A0B1FFF7F2FB054608E0FFF7EEFB15
:101D8000401B41F28831884201D90320B7E6404820
:101D900068300068C0F340000028EFD013E0FFF780
:101DA000DDFB054608E0FFF7D9FB401B41F2883117
:101DB000884201D90320A2E6354868300068C0F3A4
:101DC00040000028EFD1A069F0B33148006800F06E
:101DD0000C0008287AD0A069022861D100202D4982
:101DE0000866FFF7BBFB054606E0FFF7B7FB401BA5
:101DF000022801D9032082E6254808380068C0F38C
:101E000040600028F1D1D4E90701084347F6C072C9
:101E100092FAA2F2B2FA82F2616A91400843012278
:101E2000A16AC2EB51014FF4403292FAA2F2B2FA27
:101E300082F2914008434FF0706292FAA2F2B2FA35
:101E400082F2E16A914000E042E008434FF0E04254
:101E500092FAA2F2B2FA82F2216B914008430C4945
:101E6000091F086001200B490866FFF777FB05464C
:101E700006E0FFF773FB401B022801D903203EE672
:101E8000034808380068C0F340600028F1D01FE024
:101E90000838024000004742800E47420070004070
:101EA00000200C490866FFF759FB054607E0FFF7DD
:101EB00055FB401B022802D9032020E606E0064815
:101EC0000068C0F340600028F1D101E0012016E66F
:101ED000002014E6000047420038024010B50446D6
:101EE0000CB9012010BD606A00B900BF0021A162D9
:101EF00094F8510028B9002084F85000204600F0E2
:101F000033F8022084F851002068006820F0400077
:101F100021680860D4E901010843E16808432169A8
:101F2000084361690843218B01F400710843E169AA
:101F30000843216A0843A16A084321680860042114
:101F4000A06901EA1040616A08432168486020687E
:101F5000C06920F400602168C8610020606501202C
:101F600084F851000020BDE710B586B00446304922
:101F70002068884259D100BF002000902D48006899
:101F800040F002002B4908600846006800F002009B
:101F9000009000BF00BF00BF00200090084600680E
:101FA00040F0020008600846006800F0020000905F
:101FB00000BF00BF00BF002000900846006840F04E
:101FC000020008600846006800F00200009000BFB0
:101FD00000BF00BF0020009016481430006840F495
:101FE00080501449143108600846006800F480509D
:101FF000009000BF00BF0820019002200290012045
:102000000390022004900520059001A90A48FFF7DB
:102010009FF91020019001A90748FFF799F92020A6
:10202000019001A90448FFF793F906B010BD000024
:102030000030014030380240000402402DE9F047F2
:1020400004460D4616461F46DDF820804FF0000975
:10205000CA4600BF94F85000012802D10220BDE812
:10206000F087012084F8500000BFFFF777FA81461F
:1020700094F8510001280CD06068B0F5827F05D13A
:10208000A06818B994F85100042802D04FF0020A51
:1020900094E00DB106B117B94FF0010A8EE094F843
:1020A0005100012802D1052084F85100002060650C
:1020B000A663E787A7872563E786A7862064606411
:1020C0002068006800F04000402805D020680068C3
:1020D00040F0400021680860E068B0F5006F30D142
:1020E00028E0E08E60B12068806800F002000228DD
:1020F00006D128882168C860AD1CE08E401EE086AD
:10210000E08F58B12068806800F0010030B120688D
:10211000C0683080B61CE08F401EE08708F10100E7
:1021200040B1FFF71BFAA0EB0900404502D34FF086
:10213000030A43E0E08E0028D3D1E08F0028D0D1FD
:102140002FE028E0E08E60B12068806800F0020097
:10215000022806D115F8010B21680873E08E401E95
:10216000E086E08F58B12068806800F0010030B14F
:102170002068C06806F8010BE08F401EE08708F178
:10218000010040B1FFF7EAF9A0EB0900404502D396
:102190004FF0030A12E0E08E0028D3D1E08F002830
:1021A000D0D14A464146204601F0BEF828B1606DC4
:1021B00040F0200060654FF0010A00BF012084F864
:1021C000510000BF002084F8500000BF504646E791
:1021D00070B504462546681EB0F1807F01D301200A
:1021E0000FE0681E4FF0E02148610F214FF0FF30F3
:1021F00000F0DEFB00204FF0E0218861072008613D
:10220000002070BD7047704710B504460CB901201E
:1022100010BD94F8390028B9002084F83800204611
:1022200000F00CF8022084F83900211D206801F02C
:1022300085F9012084F839000020E9E710B504464B
:102240002068B0F1804F07D1002204211C20FFF745
:10225000C9F91C20FFF7B9F90C492068884207D159
:10226000002204211D20FFF7BDF91D20FFF7ADF965
:1022700007492068884207D1002204211E20FFF769
:10228000B1F91E20FFF7A1F910BD000000040040C5
:10229000000800400146022081F839000868006803
:1022A00040F001000A681060012081F83900002028
:1022B000704701460868C06840F001000A68D060B5
:1022C0000868006840F001000A681060002070474C
:1022D00001460868C06820F001000A68D06000BFAD
:1022E0000868006A41F21112104050B90868006A8B
:1022F0009210104028B90868006820F001000A68B0
:10230000106000BF00207047704710B50446206879
:102310000069C0F34000D8B12068C068C0F3400035
:10232000B0B16FF0020021680861012020762068BA
:10233000806900F0030018B12046FFF7E5FF05E0D3
:10234000204600F0ADF8204600F0ABF800202076E3
:1023500020680069C0F38000D8B12068C068C0F36D
:102360008000B0B16FF0040021680861022020767F
:102370002068806900F4407018B12046FFF7C4FF60
:1023800005E0204600F08CF8204600F08AF8002096
:10239000207620680069C0F3C000D8B12068C0680A
:1023A000C0F3C000B0B16FF00800216808610420DC
:1023B00020762068C06900F0030018B12046FFF7BE
:1023C000A3FF05E0204600F06BF8204600F069F816
:1023D0000020207620680069C0F30010D8B1206882
:1023E000C068C0F30010B0B16FF010002168086140
:1023F000082020762068C06900F4407018B120469B
:10240000FFF782FF05E0204600F04AF8204600F082
:1024100048F8002020762068006900F0010058B1DB
:102420002068C06800F0010030B16FF00100216841
:102430000861204600F036F820680069C0F3C0103B
:1024400058B12068C068C0F3C01030B16FF0800090
:10245000216808612046FFF7D5FE20680069C0F3B7
:10246000801058B12068C068C0F3801030B16FF0A0
:10247000400021680861204600F02CF820680069BF
:10248000C0F3401058B12068C068C0F3401030B1AC
:102490006FF02000216808612046FFF7B4FE10BDF0
:1024A0007047704710B504460748844201D105F0D3
:1024B000FDFF0648844201D106F02EF8044884420C
:1024C00001D106F05FF810BDC8820020048300200F
:1024D000408300207047704701460022002391F896
:1024E000392091F83A3042EA03007047F8B50446C3
:1024F000002500262068006800F001052068C068FB
:1025000000F480767DB176B100BF00200090206895
:102510000068009020684068009000BF00BFE06B3A
:1025200040F00100E06320680068C0F340052068C7
:10253000406900F001067DB176B100BF0020009037
:1025400020680068009020684068009000BF00BFCD
:10255000E06B40F00400E06320680068C0F3800591
:102560002068406900F001067DB176B100BF00200F
:10257000009020680068009020684068009000BFCC
:1025800000BFE06B40F00200E06320680068C0F329
:10259000C0052068406900F001067DB176B100BF3A
:1025A000002000902068006800902068406800903B
:1025B00000BF00BFE06B40F00800E06320680068E7
:1025C000C0F340152068C06800F020061DB116B1A8
:1025D000204601F035F820680068C0F3C015206877
:1025E000C06800F080061DB116B1204601F030FA37
:1025F00020680068C0F380152068C06800F04006BD
:102600001DB116B1204601F00BF8E06B38B1202067
:1026100084F8390084F83A002046FFF75CFFF8BDE3
:1026200010B504460CB9012010BDA06900B100E04E
:1026300000BF94F8390028B9002084F838002046FB
:1026400000F028F8242084F839002068C06820F4BD
:1026500000502168C860204601F046F820680069F3
:1026600020F49040216808612068406920F02A0029
:10267000216848612068C06840F400502168C86043
:102680000020E063202084F8390084F83A0000201C
:10269000CAE7000010B586B0044652492068884257
:1026A0004DD100BF002000904F48006840F001006D
:1026B0004D4908600846006800F00100009000BF26
:1026C00000BF00BF002000900846006840F00100F5
:1026D00008600846006800F00100009000BF00BFDD
:1026E00000BF0020009040481430006840F0100007
:1026F0003D49143108600846006800F01000009061
:1027000000BF00BF481501900220029001200390F5
:10271000022004900720059001A93448FEF718FE16
:102720004FF48060019001A93048FEF711FE25208A
:10273000FEF74BFF002203212520FEF753FF2C4913
:10274000206888424CD100BF0020009026480068D5
:1027500040F00800244908600846006800F00800BE
:10276000009000BF00BF00BF002000900846006836
:1027700040F0080008600846006800F0080000907B
:1027800000BF00BF00BF0020009017481030006855
:1027900040F400301449103108600846006800F425
:1027A0000030009000BF00BF202001900220029066
:1027B00001200390022004900720059001A90D48F4
:1027C000FEF7C6FD4020019001A90A48FEF7C0FDB2
:1027D0002620FEF7FAFE002203212620FEF702FF44
:1027E00006B010BD00100140303802400000024029
:1027F00000440040000C024010B5034693F83A0034
:1028000020282FD101B10AB9012010BD00BF93F8D3
:102810003800012801D10220F7E7012083F83800B1
:1028200000BF99629A85DA850020D863222083F858
:102830003A001868C06840F480701C68E06018684E
:10284000406940F001001C68606100BF002083F80F
:10285000380000BF1868C06840F020001C68E060C5
:102860000020D2E70220D0E710B5044608492068CE
:10287000884203D10749087805F0AEFE0649206872
:10288000884203D10549087805F0C4FE10BD000058
:10289000001001402C000020004400402D000020CA
:1028A0002DE9F04104460D461646984694F8390045
:1028B000202855D105B116B90120BDE8F08100BF2F
:1028C00094F83800012801D10220F6E7012084F8AD
:1028D000380000BF0020E063212084F83900A6847E
:1028E000E68428E0E08C401EE084A068B0F5805FBC
:1028F00014D1434600228021204601F0DDF808B1C2
:102900000320DAE72F463888C0F3080021684860C2
:10291000206908B9AD1C0EE06D1C0CE04346002296
:102920008021204601F0C8F808B10320C5E715F85A
:10293000010B21684860E08C0028D3D14346002277
:102940004021204601F0B8F808B10320B5E7202067
:1029500084F8390000BF002084F8380000BFACE7DD
:102960000220AAE7704700BFFEE700BFFEE77047FE
:1029700000F01F0201219140024A430942F823104E
:102980007047000080E100E000F01F02012191404B
:102990004209920002F1E022C2F8001170470000E3
:1029A00002480068C0F30220704700000CED00E010
:1029B00010B5002807DA0A07140E054A00F00F03C5
:1029C0001B1FD45403E00A07130E024A135410BD10
:1029D00018ED00E000E400E010B5002807DA0A076F
:1029E000140E054A00F00F031B1FD45403E00A071E
:1029F000130E024A135410BD18ED00E000E400E08D
:102A000010B5002000F006F810BD10B5012000F050
:102A100001F810BD2DE9F04F8FB00546FE4850F883
:102A20002590D9F81400D9F8181000EA010AD9F84D
:102A300040B4D9F814040B900DB1102000E0082028
:102A400003900AF0080078B300272AE0F34800EB6F
:102A5000851050F8270018B3F04800EB851050F8A7
:102A60002700C069E0B1ED4800EB851050F8270061
:102A7000C069401EE94901EB851151F82710C86172
:102A800070B9E64800EB851050F82700406920F047
:102A900010001030E14901EB851151F82710486111
:102AA0007F1C03988742D1D30AF08070002853D04E
:102AB0000BF0020040B1DA4850F8250020B94FF47D
:102AC000FA70D84921F815000BF00800E8B30BF0B4
:102AD000040060B3D44850F8250020F00300D24928
:102AE00041F82500CBF3414030B101280DD0022838
:102AF00014D003281AD118E0CB4850F8250040F034
:102B00000200C94941F8250010E0C74850F82500E7
:102B100040F00100C44941F8250007E0C24850F8E0
:102B20002500C14941F8250000E000BF00BF0BF0BF
:102B3000010050B9BA4850F8250030B10120BB4916
:102B400041F825000020B64900E001E041F82500E9
:102B50002BF0040BC9F840B40AF0005058B1B0484B
:102B600050F8250038B10120B04941F82500002077
:102B7000AB4941F82500AD4850F82500E0B109F512
:102B8000A066002715E0A54800EB851050F8270047
:102B900068B13946284602F0CDFA01909F4800EB13
:102BA000851050F827202846019902F0CDFF2036E5
:102BB0007F1C03988742E6D30AF01000002866D0F5
:102BC000D9F8180020F01000C9F81800D9F81C0036
:102BD00008900898C0F3434002284FD1D9F820004C
:102BE0000890089800F00F070898C0F30A100790A3
:102BF0003946284602F09EFA06468D4800EB8510BD
:102C000050F827000C90854800EB851050F82740BD
:102C10002068E16808440D9007988008059007989F
:102C200000F00300049009E00C9801680D98016021
:102C30000D98001D0D90E068001DE0600598411E94
:102C400005910028F0D10498D8B10C98006806903E
:102C50000D980E900CE00698C1B20E9801700E9877
:102C6000401C0E900698000A0690E068401CE06048
:102C70000498411E04910028EDD102E0D9F820000B
:102C80000890D9F8180040F01000C9F818000AF0B0
:102C90000070002876D009F5A0660027A1E2012087
:102CA000B8400B99084000286DD0B068F16800EA80
:102CB00001085A4800EB851050F827406069C8F3B6
:102CC000C31141EA1040616960F3174161612069F5
:102CD00000F00F00012804D0206900F00F000D283B
:102CE0007ED108F0010010B3284602F007FB002057
:102CF000F060A068E0600020606108F0400028B14A
:102D0000606920F4F070C030606104E0606920F414
:102D1000F07040306061606920F008000830606148
:102D200000203E4901EB851141F8270054E208F0EC
:102D3000080078B1284602F0E1FA606920F4F070EA
:102D400000F5E07060610220F060306840F0804083
:102D5000306041E208F0100028B908F0400010B9D6
:102D600008F08000E8B3284602F0C8FA08F0100026
:102D700050B1606920F4F07000F5A070606102202D
:102D8000F06014E034E22AE208F0400038B16069F3
:102D900020F4F070C03060610220F06007E06069EC
:102DA00020F47F0000F5803060612220F060A06890
:102DB00090B13069C0F3C9400A903088C0F30A006E
:102DC0000990A16809980144491EB1FBF0F10A98E5
:102DD000091A09984143E160306840F0404001E041
:102DE00085E001E03060F7E108F00200F0B3B1786F
:102DF000C1F38101032952D06169C1F343110A294A
:102E00004DD1064901EB851151F827108869411E03
:102E1000024A02EB85120DE0C00000204C88002021
:102E200068010020500100206001002058010020AE
:102E3000C800002052F82720916178B3FD4800EBCC
:102E4000851050F827008068FA4901EB851151F888
:102E50002710C968401A0090F64800EB851050F81A
:102E600027000068F34901EB851100E02DE051F8DF
:102E70002710C9684318EF4800EB851050F8270069
:102E80000069C2B23146284602F06CF96420E94973
:102E900001EB851151F82710C8619DE1FFE7002083
:102EA000F060606920F001006061606920F002005C
:102EB0006061606920F00800083060610020DD4931
:102EC00001EB851141F8270086E108F02000002879
:102ED00089D0606920F4F07040306061606920F44E
:102EE0007F006061F06820F02000F06074E12069EC
:102EF00000F00F0004286FD108F0080060B160698D
:102F000020F4F07000F5E07060610220F06030683D
:102F100040F0804030605FE108F0100010B908F028
:102F20008000C0B108F0100040B1606920F4F0707A
:102F300000F5A07060610220F06007E0606920F495
:102F40007F0000F5803060612220F060306840F042
:102F50008040306040E108F00200E0B3B178C1F396
:102F60008101032944D06169C1F343110A293FD18A
:102F7000B04901EB851151F827108869411EAD4A0F
:102F800002EB851252F82720916130B3A94800EB7B
:102F9000851050F827008068A64901EB851151F88B
:102FA0002710C968401A0090A24800EB851050F81D
:102FB000270000689F4901EB851151F82710C96867
:102FC00043189C4800EB851050F827000069C2B2F6
:102FD0003146284602E021E038E009E002F0C2F87C
:102FE0006420944901EB851151F82710C861F3E082
:102FF0000020F060606920F001006061606920F0ED
:1030000002006061606920F0080008306061002003
:10301000884901EB851141F82700DDE008F0200028
:10302000002897D0606920F4F070403060616069DA
:1030300020F47F006061F06820F02000F060022042
:10304000F060306840F080403060C5E0206900F0FA
:103050000F00092811D108F0010078B1606920F44F
:10306000F07040306061606920F47F006061022090
:10307000F060306840F040403060ADE008F0100093
:1030800090B3606920F4F07000F5A07060616A4947
:1030900051F8251009B3B178C1F3810103291CD07F
:1030A000644901EB851151F827108869411E614A76
:1030B00002EB851252F82720916170B140F2B950AD
:1030C000F060306840F0004030606420594901EB06
:1030D000851151F82710C8617EE00220F060306849
:1030E00040F04040306077E0FFE708F0800028B90A
:1030F00008F4807010B908F0080020B30220F060D6
:1031000008F0800050B1606920F47F0000F5803045
:103110006061F06840F02000F0600FE008F480701B
:1031200030B1606920F47F0000F50030606105E097
:10313000606920F4F07000F5E0706061306840F084
:103140004040306048E008F00200E8B10020F06044
:10315000606920F001006061606920F00200606138
:10316000606920F00800083060610020314901EBFF
:10317000851141F827006069C0F3C00018B3206AC8
:1031800008B3206A804727E008F0200018B3606980
:1031900020F4F07040306061606920F47F0060616D
:1031A000B078C0F3810003280ED040F2B950F0602F
:1031B000306840F00040306064201E4901EB85110A
:1031C00051F82710C86107E00220F060306840F035
:1031D0004040306000E000BF40F2FF70B060203639
:1031E0007F1C03988742FFF45AAD0B98C9F814046A
:1031F000C9F814A00AF00800F0B3104850F82500F0
:1032000010B10120029020E000200290002718E079
:10321000084800EB851050F8270088B1054800EBFE
:10322000851050F827004069C0F3400040B10120EC
:10323000029009E04C88002068010020480100202D
:103240007F1C03988742E3D300BF09F5A0660027DF
:103250005FE0334800EB851050F82740F4B3606915
:1032600000F00100D0B36069C0F34000B0BBB0789B
:10327000C0F38100032800E04EE036D1294800EB7E
:10328000451030F81700A8B1029830B1254800EB7E
:10329000451030F81700012801DC029850B9214888
:1032A00000EB451030F81700401E1E4901EB451198
:1032B00021F81700029888B91A4800EB451030F839
:1032C000170058B9606920F00200801C6061A06896
:1032D000009023682069C2B2314600E017E028461A
:1032E00001F040FF0120029011E0029878B9606976
:1032F00020F00200801C6061A068009023682069B3
:10330000C2B23146284601F02DFF0120029020363E
:103310007F1C039887429CD30FB0BDE8F08F00005C
:103320004C880020CC880020F8B504460D4616468F
:103330002B46002280212046009600F009F828B193
:10334000606D40F0200060650320F8BD0020FCE7C0
:103350002DE9F04104460E4617461D46DDF818805B
:103360003FE0681CE0B32DB1FEF7F8F8A0EB0800D1
:10337000A84236D32068406820F0E0002168486009
:103380006068B0F5827F0DD1A068B0F5004F03D022
:10339000A068B0F5806F05D12068006820F040007B
:1033A00021680860A06AB0F5005F0ED100BF2068F8
:1033B00000684DF6FF7108402168086020680068C9
:1033C00040F400502168086000BF012084F85100DB
:1033D00000BF002084F8500000BF0320BDE8F0814A
:1033E000FFE7206880683040B842BAD10020F5E796
:1033F0002DE9F04194B00546884616461F46002444
:1034000000BF002001902648006840F08050244909
:1034100008600846006800F08050019000BF00BFBF
:1034200000BF002001901F48006840F440401D4943
:1034300008600846006800F44040019000BF00BFEB
:1034400001200790089002200D9041050E91CDF8C3
:103450003C8010951196129707A8FEF71BFB0446B7
:103460000CB100BFFEE7FEF70FF904460CB100BF38
:10347000FEE70F20029002200390002004904FF4FA
:10348000A05005904FF480500690072102A8FEF747
:103490004DF904460CB100BFFEE714B0BDE8F08161
:1034A00040380240007000401448006840F470004A
:1034B000124908601248006840F001001049086095
:1034C00000200F49083108600D4800680D49084088
:1034D0000B4908600C48091D0860081F006820F4AB
:1034E0008020091F0860002005490C3108604FF05A
:1034F00000600249803908607047000088ED00E0F4
:1035000000380240FFFFF6FE1030002410B50248DC
:10351000FEF7FBFE10BD0000C882002010B5024877
:10352000FEF7F3FE10BD00000483002010B5024832
:10353000FEF7EBFE10BD0000408300200022026871
:103540002C4B98420ED0B0F1804F0BD02A4B9842B2
:1035500008D02A4B984205D0294B984202D0294BDB
:10356000984201D1012300E000231BB122F0700238
:103570004B681A431F4B984220D0B0F1804F1DD0AA
:103580001D4B98421AD01D4B984217D01C4B9842A5
:1035900014D01C4B984211D01B4B98420ED01B4BA1
:1035A00098420BD01A4B984208D01A4B984205D03B
:1035B000194B984202D0194B984201D1012300E0E7
:1035C00000231BB122F44072CB681A4302608B685F
:1035D000C3620B688362074B984202D0094B984242
:1035E00001D1012300E000230BB10B690363012328
:1035F00043617047000001400004004000080040A3
:10360000000C004000040140004001400044014023
:103610000048014000180040001C0040002000400D
:1036200010B504462068C06820F040002168C860DA
:10363000202084F839002046FFF794F9002010BDBF
:1036400070B5044694F83A0022284AD1A068B0F533
:10365000805F13D1A56A206940B920684068C0F333
:1036600008002880A06A801CA06219E020684068D9
:10367000C0B22880A06A401CA06211E0206938B95D
:1036800020684068C1B2A26A501CA062117007E0B5
:103690002068406800F07F01A26A501CA06211708F
:1036A000E08D401E80B2E085C8B92068C06820F077
:1036B00020002168C8602068C06820F480702168FC
:1036C000C8602068406920F001002168486120201E
:1036D00084F83A002046FFF7C7F8002070BD0020AC
:1036E000FCE70220FAE700002DE9F041044600253E
:1036F0002068056925F44055E068054320680561A8
:103700002068C56849F20C6085432169A0680843B8
:1037100061690843E169084305432068C560206882
:10372000456925F44075A069054320684561E06955
:10373000B0F5004F7ED1C4492068884203D0C34908
:10374000206888425DD1FEF7F5F800EBC00101EB7F
:10375000001061684900B0FBF1F06421B0FBF1F0AA
:103760000601FEF7E7F800EBC00101EB001061680D
:103770004900B0FBF1F7FEF7DDF800EBC00101EB0B
:10378000001061684900B0FBF1F06421B0FBF1F07A
:1037900000EBC00101EB0010A7EB8000322101EB30
:1037A000C0006421B0FBF1F000F0F80006EB400629
:1037B000FEF7C0F800EBC00101EB001061684900A2
:1037C000B0FBF1F7FEF7B6F800EBC00101EB00101B
:1037D00061684900B0FBF1F06421B0FBF1F000EB4F
:1037E000C00101EB0010A7EB8000322101EBC0000B
:1037F0006421B0FBF1F000F00700304421688860DC
:1038000020E1FEF781F800EBC00101EB00106168D8
:103810004900B0FBF1F06421B0FBF1F00601FEF7C6
:1038200073F800EBC00101EB001061684900B0FBC8
:10383000F1F700E045E0FEF767F800EBC00101EBAF
:10384000001061684900B0FBF1F06421B0FBF1F0B9
:1038500000EBC00101EB0010A7EB8000322101EB6F
:10386000C0006421B0FBF1F000F0F80006EB400668
:10387000FEF74AF800EBC00101EB00106168490057
:10388000B0FBF1F7FEF740F800EBC00101EB0010D0
:1038900061684900B0FBF1F06421B0FBF1F000EB8E
:1038A000C00101EB0010A7EB8000322101EBC0004A
:1038B0006421B0FBF1F000F007003044216888601B
:1038C000C0E061492068884203D06049206888428E
:1038D0005CD1FEF72FF800EBC00101EB001061682E
:1038E0008900B0FBF1F6FEF725F800EBC00101EB13
:1038F000001061688900B0FBF1F06421B0FBF1F0C9
:1039000000EBC00101EB0010A6EB8000322101EBBF
:1039100000106421B0FBF1F000F0F006FEF70AF8A9
:1039200000EBC00101EB001061688900B0FBF1F011
:103930006421B0FBF1F006EB0016FDF7FBFF00EB96
:10394000C00101EB001061688900B0FBF1F7FDF7E1
:10395000F1FF00EBC00101EB001061688900B0FBD2
:10396000F1F06421B0FBF1F000EBC00101EB0010BD
:10397000A7EB8000322101EB00106421B0FBF1F0D5
:1039800000F00F003044216888605BE0FDF7BCFF69
:1039900000EBC00101EB001061688900B0FBF1F69B
:1039A000FDF7B2FF00EBC00101EB00106168890078
:1039B000B0FBF1F06421B0FBF1F000EBC00101EBD2
:1039C0000010A6EB8000322101EB00106421B0FB57
:1039D000F1F000F0F006FDF797FF00EBC00101EBFE
:1039E000001061688900B0FBF1F06421B0FBF1F0D8
:1039F00006EB0016FDF788FF00EBC00101EB00109D
:103A000061688900B0FBF1F7FDF77EFF00EBC001B4
:103A100001EB001061688900B0FBF1F06421B0FB9C
:103A2000F1F000EBC00101EB0010A7EB80003221A8
:103A300001EB00106421B0FBF1F000F00F00304406
:103A400021688860BDE8F081001001400014014049
:103A5000014691F8390021282CD18868B0F5805FA3
:103A60000FD10A6A1088C0F308000B685860086913
:103A700018B9086A801C086209E0086A401C0862DC
:103A800005E00B6A581C086218780B685860C88CEF
:103A9000401E80B2C88458B90868C06820F0800011
:103AA0000B68D8600868C06840F040000B68D860B8
:103AB000002070470220FCE72DE9F04104460E4645
:103AC00017461D464FF00008FDF748FD804677BBBE
:103AD0002FE0681C60B32DB1FDF740FDA0EB08009E
:103AE000A84226D92068C06820F080002168C860FC
:103AF0002068C06820F020002168C8602068C06885
:103B000020F480702168C8602068406920F00100BE
:103B100021684861202084F8390084F83A0000BF09
:103B2000002084F8380000BF0320BDE8F0810BE0DE
:103B3000FFE7206800683040B04201D1012000E07A
:103B400000200028C5D037E02CE0681C50B32DB110
:103B5000FDF704FDA0EB0800A84223D92068C06847
:103B600020F080002168C8602068C06820F0200034
:103B70002168C8602068C06820F480702168C8602F
:103B80002068406920F0010021684861202084F805
:103B9000390084F83A0000BF002084F8380000BFE4
:103BA0000320C2E7206800683040B04201D1012004
:103BB00000E000200028C8D10020B6E710B5094871
:103BC000FEF794FC00BF0748FEF786FC2028FAD1D8
:103BD00000BF012204490348FEF70EFE0028F8D179
:103BE00010BD0000487200202C00002010B50948CC
:103BF000FEF77CFC00BF0748FEF76EFC2028FAD1D8
:103C000000BF012204490348FEF7F6FD0028F8D161
:103C100010BD0000887200202D00002070B5044601
:103C20000D46164633462A462146002001F0F8FB91
:103C300070BDF8B504460D4616461F4633462A4663
:103C400021460020009701F037FCF8BD10B504466E
:103C50002146002001F076FC10BD00B5002001F0E7
:103C6000ADFC00BD00B5002001F00CFD00BD10B59D
:103C700004462146002001F00DFD10BD10B504469C
:103C80002146002001F034FE10BD10B50446214647
:103C9000002001F0CBFE10BD10B5044621460020E7
:103CA00001F0DCFE10BD70B504460D462A462146E3
:103CB000002001F049FF70BD70B504460D462A464C
:103CC0002146002001F088FF70BD70B504460D4606
:103CD000164633462A462146012001F0A1FB70BD5D
:103CE000F8B504460D4616461F4633462A46214679
:103CF0000120009701F0E0FBF8BD10B50446214615
:103D0000012001F01FFC10BD00B5012001F056FCA0
:103D100000BD00B5012001F0B5FC00BD10B50446A2
:103D20002146012001F0B6FC10BD10B50446214625
:103D3000012001F0DDFD10BD10B504462146012033
:103D400001F074FE10BD10B504462146012001F0BB
:103D500085FE10BD70B504460D462A462146012059
:103D600001F0F2FE70BD70B504460D462A462146AC
:103D7000012001F031FF70BD70B504460F4A00EB21
:103D8000840012EBC0030E4850F824000BD060B141
:103D90005976D3F815609A7E456A1D333046A84798
:103DA00028B1012070BD012102E0022100E00E21B6
:103DB000204602F0A7F8002070BD0000FC70002033
:103DC0001000002070B50446104A00EB840012EB8E
:103DD000C0030F4850F824000DD070B1A3F8211093
:103DE000D3F815509A7E597E466A1D332846B0474F
:103DF00028B1012070BD012102E0022100E00E2166
:103E0000204602F07FF8002070BD0000FC7000200A
:103E10001000002070B50646164900EB860011EB35
:103E2000C004154850F8260019D0D0B1072104F875
:103E30001D1F022161700025A570E5700821A18079
:103E4000A5711D3C036A04F11D02294628469847C6
:103E500044F8150F6560206828B1012070BD01216C
:103E600002E0022100E00D21304602F04BF8002074
:103E700070BD0000FC700020100000202DE9F74FFD
:103E800006467C4F00EB8601794857F8265086B0ED
:103E900093464FF0000910EBC1044AD0002D50D0DA
:103EA00000213046FFF768FF002847D057F82670FA
:103EB0005A462346CA46D7B39A76597ED3F8150098
:103EC0007F6A1D33B84798B34FF001080821304688
:103ED000FFF778FF002831D0082204A930460CF003
:103EE000ABFA00282AD00821049ACDF800A0CDE929
:103EF0000121002301221946304600F0D5F80700C1
:103F000005D00498C1793046FFF75CFF0740304682
:103F100004990CF0C3FA002810D069680220884781
:103F2000207D401C10F07F0020750ED010E008E0CE
:103F300009E00121304601F0E5FF002009B0BDE8AD
:103F4000F08F0221F6E70E21F4E7404684F8148052
:103F5000C1B2304601F090FF0028EFD0217D3046FD
:103F6000FFF70AFF0028E9D069680A20884709227C
:103F700003A930460CF060FA0028DFD00921039A2B
:103F8000CDF800A0CDE901210023022219463046D8
:103F900000F08AF810EA070802D00398B0F80290FF
:103FA000304603990CF07AFA0028C7D069680220DD
:103FB00088474A4603A930460CF03EFA0028BDD097
:103FC000039ACDF800A0CDE9012900230222194669
:103FD000304600F069F810EA080741D003980178EC
:103FE0000844407900F04AF88046FF2801D00120BB
:103FF00000E0002007402FD01F4850F82810D1F8CB
:1040000004C0BCF1000F2BD0039900918146237DA1
:104010005A4630460799E0478246FF2801D00120E2
:1040200000E000200740304603990CF037FA0446C0
:1040300087B16968022088470121304601F03FFFBF
:10404000074007D059F82800C2681AB151463046D7
:104050009047074024B109E01D21304601F052FF8E
:10406000304603990CF01AFA002886D0384665E7E6
:10407000FC700020100000201800002010B5014640
:104080000020074B074A06E053F8204024788C4272
:1040900005D0401CC0B21478A042F5D3FF2010BD5B
:1040A00018000020F40C01082DE9F84F1646DDE950
:1040B0000B940F461D46824608226946DDF828808B
:1040C0000CF0BAF9002827D00099087820F0600099
:1040D00040F0800067F3040008700620487045EA4D
:1040E00006204880A1F80480CC80504601F084FE70
:1040F0000546504600990CF0D1F900280CD0224614
:104100004946504600F04EFF00EA050400221146E1
:10411000504601F00DFE2040BDE8F88F06490978B1
:10412000884201D301207047044900EB800001EB75
:10413000C000406A70470000F00C0108FC700020CD
:104140002DE9FF5F884606469B46002550495148A9
:104150000E9F0DE003D1FF2004B0BDE8F09FD2B266
:1041600006FB025201EB0212D26822B16D1CEDB2C5
:1041700002789542EED90078474A06EB860306FBA3
:10418000005012EBC302454B01EB001400EBC001E1
:10419000434853F826A000EB810918D0BAF1000F6C
:1041A0001CD0ECB1B9F1000F1CD000202060606081
:1041B000A060E06024214846FCF738F9C4F80C9070
:1041C0003878384441790779082954D10CE0012224
:1041D0002946304600F014FD0020BDE7022251E0E0
:1041E00003224FE017224DE08179062943D1C1799E
:1041F000502940D1217084F8018084F802B00299DE
:10420000E1700178084430E098F8030000F0030002
:10421000022828D198F80200DAF820300006029926
:104220004246584610D59847C9F8010048B3D8F817
:104230000020C9F80920B8F80420A9F80D2098F842
:10424000061089F80F100EE098474946C9F810008B
:10425000B8B10846D8F800208261B8F804208283FB
:1042600098F80610817708F1070080463800A7F11A
:104270000107FFB2C8D1207940F001002071284623
:104280006AE70D222946304600F0BAFC63E70000D9
:104290004C710020F50C0108FC700020100000207B
:1042A0006C710020094A1278904201D301207047B6
:1042B000074A1378994201D317207047DAB200FBFE
:1042C0000210044901EB001080687047F00C0108EF
:1042D000F50C01084C710020F8B50D460446082283
:1042E00069460CF0A9F8002828D00099087820F039
:1042F000600040F08000203020F01F00401C08705B
:10430000FE2048700020488088800120C880204618
:1043100001F072FD0646204600990CF0BFF8002817
:104320000CD001222946204600F03CFE00EA06059A
:1043300000221146204601F0FBFC2840F8BD000099
:104340002DE9FE43074646488846007887425ED2FC
:1043500045494448097850F8274007FB0180434904
:1043600001EB0016F568ECB3EEB3002D4DD061689B
:104370000A20884705F11F013846FFF7ADFF616845
:104380000A208847242201A938460CF055F8002855
:104390003ED002AB41463846019A00F069F83846F3
:1043A00001990CF07BF8002832D04FF47A796168DB
:1043B0000A20884702AA4146384600F02FFC050033
:1043C00025D0029860B3616864208847122201A951
:1043D00038460CF031F800281AD002AB4146384676
:1043E000019A01E009E00AE000F0BAFA0540384617
:1043F00001990CF053F868B10FE0022200E00322AB
:104400004146384600F0FCFB01E01722F8E70020A7
:10441000BDE8FE83B9F1010FF9D0B9F10109C6D1A8
:1044200061680A208847082201A938460CF004F880
:104430000028EDD002A80090002241463846019B9A
:1044400000F080F900EA0504384601990CF026F8DE
:104450000028DDD0307940F0020030712046D7E7E7
:10446000F00C010810000020F50C01084C71002030
:104470002DE9FC47074644480E46444900789946D2
:1044800007FB006001EB00101546C468002C73D0D8
:104490001F2201A938460BF0CFFF002869D0019AEE
:1044A0003B4824211060206A0623401C2062506093
:1044B0009160802010730020507393731223D37384
:1044C000107450749074D174107550759075D075C7
:1044D000107650769076D0761077507790771F23AD
:1044E0003146384600F0D0FA8046384601990BF044
:1044F000D5FF00283DD024232A463146384600F017
:10450000B9F900EA08050D22694638460BF094FF18
:1045100000282ED00D2331463846009A00F0AAF923
:1045200005401FD000981B490068884204D018221B
:104530003146384600F064FB0098216A40688842A2
:1045400004D019223146384600F05AFB00988068A2
:1045500020B11A223146384600F052FB0098017B08
:10456000C9F80010384600990BF098FF002800D0D9
:104570002846BDE8FC87FFE717223146384600F0A1
:104580003FFB0020F5E70000F50C01084C7100200E
:1045900055534243555342532DE9FF4F15468A4622
:1045A00080466349634A00EB880011EBC00712782C
:1045B000614908FB02A085B001EB0010129CC6689F
:1045C00041D0EEB31F2203A940460BF035FF00286F
:1045D00041D0039A59480A211060306A1F23401CB9
:1045E0003062506060029060802010730020507331
:1045F00091732821D1731074290E5174290C917470
:10460000290AD17415755075210A9175D4751076E3
:1046100050769076D0761077507790775146404616
:1046200000F032FA8146404603990BF037FF00282C
:1046300011D0386890B17868B0F5007F0ED900E0ED
:1046400003E0450A0BE0012200E0172251464046F4
:1046500000F0D6FA002009B0BDE8F08F0125AC4289
:1046600000D225466019401EB0FBF5F76A0293465A
:10467000694640460BF0E0FE0028ECD04FF6FF7094
:1046800000EA45200024019011E0DDE900235146B5
:10469000404600F0EFF800EA09095A4600990898E8
:1046A000FBF7ABFE0898641C00EB45200890BC4269
:1046B000EBD3404600990BF0F1FE0028CBD00D2241
:1046C00002A940460BF0B8FE0028C4D00D23514685
:1046D0004046029A00F0CEF810EA09041FD0029872
:1046E00017490068884204D018225146404600F01D
:1046F00087FA0298316A4068884204D019225146EC
:10470000404600F07DFA0298806820B11A22514696
:10471000404600F075FA0298017B1398016040460C
:1047200002990BF0BBFE002895D0204693E70000CD
:10473000FC700020F50C01084C71002055534243D9
:10474000555342532DE9FC47074646480E46464915
:104750000078DDF8289007FB006001EB00109A4616
:10476000C4681546002C76D01F2201A938460BF0EC
:1047700063FE00286CD0019A3C480A211060206A30
:104780001F23401C2062506008209060802010731E
:104790000020507391732521D1731074290E517428
:1047A000290C9174290AD174157550759075D075BE
:1047B000107650769076D076107750779077314695
:1047C000384600F061F98046384601990BF066FEE4
:1047D00000283DD0082352463146384600F04AF8BA
:1047E00000EA08050D22694638460BF025FE002830
:1047F0002ED00D2331463846009A00F03BF8054094
:104800001FD000981A490068884204D01822314607
:10481000384600F0F5F90098216A4068884204D0D3
:1048200019223146384600F0EBF90098806820B133
:104830001A223146384600F0E3F90098017BC9F8A6
:104840000010384600990BF029FE002800D02846B9
:10485000BDE8FC87FFE717223146384600F0D0F963
:104860000020F5E7F50C01084C7100205553424338
:10487000555342532DE9F04F16468246354A00EB18
:104880008A0012EBC007344A89B01C4612780AFB32
:104890000210324A02EB0010D0F80C9017D0C0B1D1
:1048A000B9F1000F17D024216846FBF7BFFDB9F816
:1048B0000D5038684FF001084FF0640B18B178685C
:1048C000A84200D985B2AC420DD928460CE001229D
:1048D00002E0032200E01722504600F091F9002088
:1048E00009B0BDE8F08F204680B3012101EB5021D3
:1048F00001EB4102C2EBC1114FF6FF7202EA8103E4
:1049000000960290049820F00F000930049004985B
:1049100020F020000490F86806906A4609F1010131
:1049200050460BF089FF00EA0808039820B103986D
:1049300006440398201A84B234B15FEA0B00ABF14D
:1049400001011FFA81FBBED14046C9E7FFE73223D0
:10495000D6E70000FC700020F50C01084C71002027
:104960002DE9FC47074644480E46444900789946DD
:1049700007FB006001EB00101546C468002C73D0E3
:104980001F2201A938460BF057FD002869D0019A73
:104990003B4812211060206A0623401C20625060B0
:1049A0009160802010730020507393730323D3739E
:1049B000107450749074D174107550759075D075D2
:1049C000107650769076D0761077507790771F23B8
:1049D0003146384600F058F88046384601990BF0C9
:1049E0005DFD00283DD012232A4631463846FFF7A8
:1049F00041FF00EA08050D22694638460BF01CFD10
:104A000000282ED00D2331463846009AFFF732FF9A
:104A100005401FD000981B490068884204D0182226
:104A20003146384600F0ECF80098216A4068884228
:104A300004D019223146384600F0E2F80098806828
:104A400020B11A223146384600F0DAF80098017B8E
:104A5000C9F80010384600990BF020FD002800D05E
:104A60002846BDE8FC87FFE717223146384600F0AC
:104A7000C7F80020F5E70000F50C01084C71002094
:104A800055534243555342532DE9F04F93468146C7
:104A900000EB890257489FB010EBC207564A1C46EC
:104AA000127809FB0210554A02EB0016F56819D07E
:104AB000D6B1F5B1242104A8FBF7B8FC01201B9066
:104AC00064201A90B5F81C80386820B17868404599
:104AD00001D91FFA80F805F110001C90F078022827
:104AE00009D030E0012200E00322484600F088F8B7
:104AF00064E01722F9E7287828B31C980D90242148
:104B00000EA8FBF793FC3B4909EB890001EBC000C1
:104B10004FF00A0A1E9000201090129820F00F000B
:104B2000001D1290129820F0200012901E98C0686C
:104B300014904FF4FA730EAA48460D990BF07CFEC0
:104B400098B3002028704046444500D8204668B3FA
:104B5000012101EB502101EB4102C2EBC1114FF6E3
:104B6000FF7202EA810300BFCDF810B006900898EA
:104B700020F00F00401C0890089820F020000890BA
:104B8000F8680A9004AA48461C990BF055FE1B9938
:104B900008401B90079820B1079883440798201A73
:104BA00084B2F07802280FD013E000E00AE0AAF106
:104BB00001001FFA80FABAF1000FACD100201FB03B
:104BC000BDE8F08F3223CFE70998C0F343100A28DD
:104BD00004D00998C0F34310062801D101202870A1
:104BE00034B11A98411E89B21A9100287FF476AF29
:104BF0001B98E4E7FC700020F50C01084C710020C4
:104C0000044B1B7800FB0310034901EB001082608A
:104C100070470000F50C01084C7100202DE9FC41A3
:104C200006463D480D463D490078904606FB00503B
:104C300001EB0010C468002C67D01F2201A9304688
:104C40000BF0FAFB00285ED0019A3548062110606F
:104C5000206A1F23401C2062506000209060107367
:104C600050739173D073107450749074D074107525
:104C700050759075D075107650769076D076107706
:104C80005077907729463046FFF7FEFE07463046BC
:104C900001990BF003FC002835D00D2269463046FF
:104CA0000BF0CAFB00282ED00D2329463046009A6F
:104CB000FFF7E0FD07401FD000981A4900688842BE
:104CC00004D0182229463046FFF79AFF0098216A3F
:104CD0004068884204D0192229463046FFF790FFE9
:104CE0000098806820B11A2229463046FFF788FFD5
:104CF0000098017BC8F80010304600990BF0CEFBFD
:104D0000002800D03846BDE8FC81172229463046ED
:104D1000FFF776FF0020F6E7F50C01084C71002044
:104D200055534243555342532DE9F04788460746B1
:104D300023492248097850F8276007FB0180214960
:104D400001EB0014204900EBC00001EB80055EB1CF
:104D500064B16DB12079C00718D0B16A286988475D
:104D60005FEA000906D00AE0022220E003221EE0EA
:104D700017221CE00F2241463846FFF741FFB16A77
:104D8000D5F80100884710EA09090FD024212846E8
:104D9000FBF74CFB002020606060A060E0602079A1
:104DA00020F0010020714846BDE8F0870F224146FF
:104DB0003846FFF725FF0020F6E70000100000202E
:104DC000F50C01084C7100206C710020094A10B5E7
:104DD0001278094B00FB021213EB021205D0107976
:104DE00020F002001071012010BD0322FFF708FF20
:104DF000002010BDF50C01084C7100202DE9FF4F7B
:104E000015468A4680466249624A00EB880011EBEB
:104E1000C0071278604908FB02A085B001EB0010C2
:104E2000129CC6683FD0EEB31F2203A940460BF088
:104E300003FB00283FD0039A58480A211060306ACB
:104E40001F23401C3062506060029060002010738D
:104E5000507391732A21D1731074290E5174290C47
:104E60009174290AD17415755075210A9175D475FC
:104E7000107650769076D0761077507790775146AE
:104E80004046FFF701FE8146404603990BF006FBC2
:104E9000002810D0386888B17868B0F5007F0DD947
:104EA000450A0CE001E0012200E01722514640468D
:104EB000FFF7A6FE002009B0BDE8F08F0125AC4247
:104EC00000D225466019401EB0FBF5F76A029346F2
:104ED000694640460BF0B0FA0028ECD04FF6FF7060
:104EE00000EA45200024019011E05A4608990098F4
:104EF000FBF783FADDE9002351464046FFF7C4FD86
:104F000000EA09090898641C00EB45200890BC429F
:104F1000EBD3404600990BF0C1FA0028CBD00D220C
:104F200002A940460BF088FA0028C4D00D23514650
:104F30004046029AFFF79EFC10EA09041FD002982F
:104F400017490068884204D0182251464046FFF7AE
:104F500057FE0298316A4068884204D019225146AF
:104F60004046FFF74DFE0298806820B11A22514654
:104F70004046FFF745FE0298017B139801604046CA
:104F800002990BF08BFA002895D0204693E7000099
:104F9000FC700020F50C01084C7100205553424371
:104FA000555342532DE9F04F894682462E4900EB76
:104FB0008A008BB0144611EBC00617D02421684636
:104FC000FBF734FAB6F8215030684F464FF06408CA
:104FD00018B17068A84200D985B206F115004FF0EB
:104FE000320B0990AC4209D9284608E0012150460D
:104FF00000F088FF00200BB0BDE8F08F20464F4541
:1050000000970290049921F00F0101F10901049128
:10501000049906D141F010010491049941F0200156
:1050200001E021F020010491F168069100B1012016
:10503000C0EB4011C1EB00210BEB41036A46504627
:1050400009990BF0F9FB039921B103990F440399D6
:10505000611A8CB2002CCED05FEA0801A8F10102DF
:105060001FFA82F8BED1C6E7FC70002070B5064674
:105070000C460CB9002070BD0020E060022000F05A
:1050800087F9206800F00040002836D0208800F41E
:10509000004038B9206928B1304600F02FF908B92E
:1050A0000020E8E76FF00200A060206840F00040B8
:1050B0002060022000F06CF9206820F0004040F0F1
:1050C0008040206040F2F23514E0207A00F00200C7
:1050D00000B111E0206800F04040B0F1404F00D135
:1050E0000AE00DB90020C6E70A2D02DC0A2000F014
:1050F0004FF96D1E002DE8DA00BF0120BBE700006C
:1051000010B501460A4850F8210000F5A06209B127
:10511000102000E008200446002305E0106808B9CC
:10512000104610BD20325B1CA342F7D30020F8E7E5
:10513000C00000200246044850F8220000F5A0609C
:1051400000EB411070470000C000002002460448F8
:1051500050F8220000F5A060081A401170470000C6
:10516000C00000202DE9FF4F83B081460F46164650
:10517000DDF840801FB9002007B0BDE8F08F474838
:1051800050F8290008B90020F6E73D683C69002086
:1051900002904348054006F00F0001280CD0042877
:1051A00014D0092802D00D2815D10AE045F4004595
:1051B00040F2B95002900EE025F40045D92002904B
:1051C00009E025F400459920029004E025F400450B
:1051D000B920029000BF00BF25F0804545F0004592
:1051E00004F0C04406F00F000D2804D124F0C044A0
:1051F00044F0C0440DE0C6F3401050B1C6F30010B7
:1052000020B124F0C04444F0804402E024F0C044C3
:1052100000BF06F00F00042801D144F00044C5F39C
:105220000A0AB8F1000F09D008EB0A00401EB0FBD3
:10523000FAF044EAC04444EA080402E044F40024DA
:1052400000BF39464846FFF781FF83460298F86061
:105250003C6106F00F00012803D006F00F000D2876
:1052600004D1B8F1000F01D0012000E0002001902E
:10527000019810B1484600F063F83D60019850B1C4
:10528000084800EB891050F82B101FFA88F34846A5
:10529000069A00F009F801206EE70000680100207E
:1052A000FF7FFE3FC800002070B504460D460CB9D4
:1052B000114901E01049183104EB440046003D203B
:1052C000B0400D4E083E30608A6000200861CD601D
:1052D000D81CC61700EB9676B6104E6000204861C9
:1052E00060060860086840F4AD400860086840F057
:1052F00001000860012070BD1064024070B50646D0
:105300000EB90E4D01E00D4D18357006286040F2C3
:10531000F2340DE0286800F0010000B90AE00CB991
:10532000002070BD0A2C02DC0A2000F031F8641E57
:10533000002CEFDA00BF0120F3E700001064024008
:1053400070B506460EB9114D01E0104D183540F20A
:10535000F2340FE0286800F0010008B1686800B975
:105360000AE00CB9002070BD0A2C02DC0A2000F013
:105370000FF8641E002CEDDA00BF3046FFF7BEFFC9
:1053800008B90020EFE70120EDE7000010640240BB
:1053900030B5014600230020002200BF1E4C2468C7
:1053A000ACB94FF47A734FF0E024246904F001049F
:1053B0004CB96FF07F4004464FF0E0256C61AC6162
:1053C00005242C6107E04FF0E024A06903E0124CB3
:1053D000246801FB04F300BF1C1EA3F10103FBD1F1
:1053E0000D4C2468B4B94FF0E024A269824201D385
:1053F00064692044841A094D2D68B5FBF4F4064D08
:105400002C606FF07F44A04203D100244FF0E025D0
:105410002C61C3E730BD00005401002008000020CB
:105420002DE9F04106460F4690461C463046FFF7F0
:1054300067FE054615B90020BDE8F081A07800F0B0
:105440000F01A08861F3DF20A178C90940EAC130CB
:10545000B8F1000F01D1012100E0002140EA4140F4
:10546000E17801F0030140EA814007F07F0140EA62
:1054700081502860E07800F0030030B1012806D0A8
:10548000022803D0032811D102E000BF0EE000BFC4
:1054900029463046FFF75AFE064901EB0611A2796C
:1054A0000A54286840F48010286000BF00BF2846D6
:1054B000C2E700000C8900202DE9F04781460E4626
:1054C00017469846089C16B90020BDE8F087354677
:1054D00029464846FFF7CAFD08B90020F5E7A0783D
:1054E00000F00F01A08861F3DF20A178C90940EA2C
:1054F000C130B8F1000F01D1012100E0002140EAE4
:105500004140E17801F0030140EA814007F07F016A
:1055100040EA81502860E07800F0030030B10128B3
:1055200006D0022803D0032808D102E000BF05E01E
:1055300000BF286840F48010286000BF00BF012031
:10554000C3E700002DE9F04106460F4617B90020D9
:10555000BDE8F0813C4621463046FFF7F7FD0546A1
:105560000D4800EB861050F82580B8F1000F07D0E9
:1055700042463946304600F0E7FA08B90020E7E72E
:1055800000202060A060E0602061044901EB46112A
:1055900021F815000120DBE74C880020CC88002092
:1055A0000121016049024160024981600249C160F4
:1055B00070470000A086010040420F0070B504460D
:1055C0002C4850F82400D0F8400400F001062A4886
:1055D00050F82450294850F82400704028B127483A
:1055E00050F8240008B1012000E00020054345B137
:1055F000214850F82400A8431F4941F824002804FA
:1056000070BD1F4830F8140018B31D4830F814005E
:10561000401E1B4921F81400084630F81400A0B9B8
:10562000164850F82400704028B1144850F824005F
:1056300008B9012000E000200546104850F8240079
:1056400028430E4941F8240011E00120FFF7A0FE95
:105650000DE00A4850F82400704040B1074850F867
:10566000240020B94FF4FA70054921F814002846A7
:10567000C6E70000C000002058010020680100209B
:10568000500100200146024850F8210070470000F8
:10569000600100202DE9F04105460F468A4850F888
:1056A0002540002F72D085B94FF40D728749002034
:1056B0000AF020FF10B90020BDE8F081844800689E
:1056C00040F080008249086017E0012D15D14FF4A9
:1056D0000D72804901200AF00DFF08B90020EBE7A8
:1056E0007B48001F006840F080407949091F08602E
:1056F0000846006840F00050086000BF00BF00BFCF
:1057000000BF00BF206940F00100206140F24C461C
:105710000DE0206900F0010000B90AE00EB9002098
:10572000CAE7642E02DC0A20FFF732FE761E002E46
:10573000EFDA00BF00BF6648001F006840F4800039
:105740006349091F086000BF6420FFF721FEA068BD
:1057500040F00100A060E0685F490840E0605F48F9
:10576000E0606420FFF714FE25B9E06840F0800097
:10577000E06003E0E06840F0D870E060862060629E
:105780002DB957484FF0A041886204E03BE0012D5D
:1057900001D15348A0625348C4F80001A06B40F403
:1057A0008810A063A06950490843A061D4F80004A0
:1057B00000F0030048B91DB90520C4F8000404E056
:1057C000012D02D10120C4F800044FF6FF70C4F887
:1057D000180455B9FF20C4F8180400214320FDF730
:1057E000FBF84320FDF7D0F86BE0012D69D14FF6AF
:1057F000FF70C4F8180400214D20FDF7EDF84D208E
:10580000FDF7C2F85DE0E5B94320FDF7B1F8D4F843
:10581000180420F0FF00C4F818042D482038006850
:1058200040F080002A49203908600846006820F0CE
:10583000800008602648006820F080002449086045
:1058400024E0012D22D14D20FDF792F8D4F8180460
:105850006FF30F00C4F818041D482438006840F0A6
:1058600000501B49243908600846006820F00050A9
:1058700008601748001F006820F000501449091FF5
:1058800008600846006820F0804008600020C4F8E6
:105890004004C4F80004A0691349C9430840A0614A
:1058A000E0680D4980310840E0601DB9E06820F0F3
:1058B0008000E060E06840F40060E06000200B4998
:1058C00008600120F8E60000C0000020E48300200A
:1058D00034380240188600207FC3FFDF0014002008
:1058E00086008000060110001800002354010020EB
:1058F00030B505460C46B5B964B140F21A520B21D9
:1059000000200AF0D3FE40F21A520C2100200AF0C7
:10591000CDFE89E00B2100200AF050FF0C21002071
:105920000AF04CFF80E0012D7ED1002C4CD040F2DB
:105930001A52042107200AF0B9FE40F21A520B2134
:1059400008200AF0B3FE40F21A52002102200AF0A9
:10595000ADFE40F21A52052100200AF0A7FE40F2E7
:105960001A52052101200AF0A1FE40F21A520D211F
:1059700001200AF09BFE40F21A520C2101200AF08D
:1059800095FE40F21A520B2101200AF08FFE40F2E0
:105990001A520A2101200AF089FE40F21A5201210E
:1059A00008460AF083FE40F21A52002101200AF054
:1059B0007DFE40F21A52032100200AF077FE0021FA
:1059C000012000F033F82FE0042107200AF0F6FE52
:1059D0000B2108200AF0F2FE002102200AF0EEFE60
:1059E000052100200AF0EAFE052101200AF0E6FE6A
:1059F0000D2101200AF0E2FE0C2101200AF0DEFE5A
:105A00000B2101200AF0DAFE0A2101200AF0D6FE5D
:105A1000012108460AF0D2FE002101200AF0CEFE44
:105A2000032100200AF0CAFE012030BD02460B46C9
:105A3000094850F8221033B1D1F8400440F48050A6
:105A4000C1F8400405E0D1F8400420F48050C1F8CA
:105A50004004012070470000C00000202DE9F04301
:105A600007468946364850F8270010B90020BDE89F
:105A7000F083344850F82740D4F80054D4F84084D8
:105A8000C8F3414030B1012812D002281ED00328AB
:105A90002BD129E04BF68030C4F8040405F0030054
:105AA000012804D025F00300451CC4F800541CE074
:105AB0004BF68030C4F8040405F00300012804D03C
:105AC00025F00300451CC4F800540EE041F270704C
:105AD000C4F8040405F00300022804D025F00300F4
